:100000000C9461000C9473000C9473000C947300B6
:100010000C9473000C9473000C9473000C94730094
:100020000C9473000C9473000C9473000C94960061
:100030000C9473000C9473000C9473000C94730074
:100040000C94C6000C9473000C9473000C94730011
:100050000C9473000C9473000C9473000C94730054
:100060000C9473000C947300000000070002010060
:100070000003040600000000000000000102040864
:100080001020408001020408102001020408102002
:10009000040404040404040402020202020203032E
:1000A00003030303000000002300260029000000D2
:1000B0000000250028002B0000000000240027007D
:1000C0002A0011241FBECFEFD8E0DEBFCDBF21E054
:1000D000A0E0B1E001C01D92A930B207E1F70E9493
:1000E00055020C9462020C94000061E08DE00E94C5
:1000F000BD01F89410928000E1E8F0E010821092C7
:1001000085001092840082E19AE7909389008093A1
:100110008800808188608083808184608083EFE6AE
:10012000F0E0808182608083789408951F920F921E
:100130000FB60F9211242F933F934F935F936F93BA
:100140007F938F939F93AF93BF93EF93FF938DE034
:100150000E942C0261E068278DE00E94F601FF9169
:10016000EF91BF91AF919F918F917F916F915F912F
:100170004F913F912F910F900FBE0F901F901895A8
:1001800061E070E080E090E00C9433011F920F92E8
:100190000FB60F9211242F933F938F939F93AF939A
:1001A000BF938091010190910201A0910301B09150
:1001B00004013091000123E0230F2D3720F4019634
:1001C000A11DB11D05C026E8230F0296A11DB11D7A
:1001D000209300018093010190930201A0930301F9
:1001E000B09304018091050190910601A09107014F
:1001F000B09108010196A11DB11D80930501909356
:100200000601A0930701B0930801BF91AF919F91A0
:100210008F913F912F910F900FBE0F901F901895C7
:100220003FB7F8948091050190910601A0910701D4
:10023000B091080126B5A89B05C02F3F19F0019683
:10024000A11DB11D3FBF6627782F892F9A2F620FFE
:10025000711D811D911D42E0660F771F881F991F38
:100260004A95D1F70895CF92DF92EF92FF92CF9304
:10027000DF936B017C010E941001EB01C114D104DA
:10028000E104F10479F00E9410016C1B7D0B683EC3
:100290007340A0F381E0C81AD108E108F108C85101
:1002A000DC4FECCFDF91CF91FF90EF90DF90CF90BC
:1002B0000895789484B5826084BD84B5816084BDDE
:1002C00085B5826085BD85B5816085BDEEE6F0E0CF
:1002D000808181608083E1E8F0E01082808182602B
:1002E0008083808181608083E0E8F0E080818160AC
:1002F0008083E1EBF0E0808184608083E0EBF0E0DC
:10030000808181608083EAE7F0E08081846080837F
:100310008081826080838081816080838081806829
:1003200080831092C1000895833081F028F48130D9
:1003300099F08230A1F008958630A9F08730B9F0A5
:100340008430D1F4809180008F7D03C08091800043
:100350008F7780938000089584B58F7702C084B52D
:100360008F7D84BD08958091B0008F7703C0809108
:10037000B0008F7D8093B0000895CF93DF9390E01D
:10038000FC01E458FF4F2491FC01E057FF4F84919A
:10039000882349F190E0880F991FFC01E854FF4F32
:1003A000A591B49182559F4FFC01C591D4919FB7FF
:1003B000611108C0F8948C91209582238C938881D8
:1003C00082230AC0623051F4F8948C91322F309518
:1003D00083238C938881822B888304C0F8948C912A
:1003E000822B8C939FBFDF91CF9108950F931F9322
:1003F000CF93DF931F92CDB7DEB7282F30E0F901FE
:10040000E859FF4F8491F901E458FF4F1491F90125
:10041000E057FF4F04910023C9F0882321F069833E
:100420000E9494016981E02FF0E0EE0FFF1FE2557A
:10043000FF4FA591B4919FB7F8948C91611103C0BF
:100440001095812301C0812B8C939FBF0F90DF916A
:10045000CF911F910F910895CF93DF93282F30E014
:10046000F901E859FF4F8491F901E458FF4FD49105
:10047000F901E057FF4FC491CC2391F081110E9404
:100480009401EC2FF0E0EE0FFF1FEC55FF4FA5910C
:10049000B4912C912D2381E090E021F480E002C002
:1004A00080E090E0DF91CF9108950E9459010E9471
:1004B0007500C0E0D0E00E94C0002097E1F30E94E8
:0804C0000000F9CFF894FFCF12
:00000001FF
