:100000000C9463000C948B000C948B000C948B006C
:100010000C948B000C948B000C948B000C948B0034
:100020000C948B000C948B000C948B000C948B0024
:100030000C948B000C948B000C948B000C948B0014
:100040000C94C6040C948B000C94F4060C943707A3
:100050000C948B000C948B000C948B000C948B00F4
:100060000C9499030C948B0000000007000201001F
:100070000003040600000000000000000102040864
:100080001020408001020408102001020408102002
:10009000040404040404040402020202020203032E
:1000A00003030303000000002300260029000000D2
:1000B0000000250028002B0000000000240027007D
:1000C0002A00B702F30711241FBECFEFD8E0DEBF2E
:1000D000CDBF11E0A0E0B1E0EEEAF9E102C0059089
:1000E0000D92A437B107D9F722E0A4E7B1E001C02F
:1000F0001D92A73EB207E1F710E0C6ECD0E004C0C5
:100100002297FE010E94D10CC23CD107C9F70E9480
:1001100055060C94D50C0C940000DC01ED91FC917B
:100120000190F081E02D09941F93CF93DF93182F56
:10013000EB01609100017091010184E791E00E9460
:10014000A202612F84E791E00E943F026D2F70E0D0
:1001500084E791E00E948D00BE01772784E791E05B
:100160000E948D0061E084E791E0DF91CF911F91C3
:100170000C94A402609100017091010184E791E068
:100180000E94A20261E084E791E00E943F0264E6DF
:1001900084E791E00E943F0261E084E791E00E94E1
:1001A000A40260E07DE182E00E94940060E07EE1D4
:1001B00083E00C94940084E791E00E947E0240E882
:1001C00055E260E070E08DE392E00E94720760E02B
:1001D00087E00E94BD0561E087E00E94F6050C946F
:1001E000BA004F925F926F927F92AF92BF92CF927E
:1001F000DF92EF92FF920F931F93CF93DF93609163
:1002000000017091010184E791E00E94A20260E088
:1002100084E791E00E943F0261E084E791E00E9460
:10022000A402609100017091010142E050E084E776
:1002300091E00E94950284E791E00E94EF01D82F9F
:1002400040E0C42F84E791E00E94EF018C2B9D2BAE
:1002500024E0969587952A95E1F7BC0180E090E02F
:100260000E94680B20E030E040E85DE30E941E0C35
:100270006B017C0162E071E08DE392E00E948708EF
:1002800022E030E0B701A6018DE392E00E94640A0B
:1002900068E071E08DE392E00E94870887E00E94A9
:1002A0002C064AE050E0BC018DE392E00E94610917
:1002B00020E030E040E251E4C701B6010E941E0C8C
:1002C0000E94370B2B013C0124E630E0CB01B90141
:1002D0000E94850CB201681B790BCB01B9010E9409
:1002E000850C5B014CE946039001479F300D1124BA
:1002F000240D351DEAE0F0E0C901BF010E94850C24
:10030000A901481B590BCA01BF010E94850C8B0132
:1003100046EF4603E001479FD00D1124C20FD31FC3
:1003200022E030E0B701A6018DE392E00E94640A6A
:1003300061E171E08DE392E00E9487084AE050E0BD
:10034000B5018DE392E00E9459094AE050E0B801FE
:100350008DE392E00E94590964E171E08DE392E03F
:100360000E9487084AE050E0BE018DE392E00E94BF
:10037000590966E171E08DE392E00E94A4086BE107
:1003800071E08DE392E00E94A4086FE071E08DE3DC
:1003900092E00E94A4086FE071E08DE392E0DF91AB
:1003A000CF911F910F91FF90EF90DF90CF90BF9072
:1003B000AF907F906F905F904F900C94A4080E9434
:1003C000F10064EC79E080E090E00C9433058091DA
:1003D000A40190E02091A501821B9109089520912C
:1003E000A5018091A401281750F4E22FF0E0EA550E
:1003F000FE4F808190E02F5F2093A50108958FEF3D
:100400009FEF0895E091A5018091A401E81730F4D1
:10041000F0E0EA55FE4F808190E008958FEF9FEF66
:1004200008950895CF92DF92EF92FF920F931F935A
:10043000CF93DF937C01CB018A012091800122239D
:1004400089F0EB016B01C40ED51ECC15DD0569F0FA
:100450006991D701ED91FC910190F081E02DC701E8
:100460000995F3CF642F0E947003C801DF91CF91EB
:100470001F910F91FF90EF90DF90CF900895CF9351
:10048000DF931F92CDB7DEB76983209180012223CD
:10049000D1F020918101203240F021E030E0FC01D8
:1004A0003383228380E090E015C080918201E82FA1
:1004B000F0E0ED57FE4F998190838F5F809382012A
:1004C0008093810105C061E0CE0101960E94700316
:1004D00081E090E00F90DF91CF910895FC011382AD
:1004E000128248EE53E060E070E0448355836683F7
:1004F000778389E491E09183808308951092A50128
:100500001092A40110928201109281010C94BB02FE
:10051000862F413208F040E266EA71E00E94D9027B
:100520001092A5018093A401089521E00C94880203
:1005300081E0809380016093A30110928201109268
:10054000810108950C9498020F93062F21E04091A9
:10055000810163E871E08091A3010E941D03109264
:10056000820110928101109280010F91089584E719
:1005700091E00C946E021092330281E0809331027C
:100580001092300261E082E10E94F60561E083E1B1
:100590000E94F605E9EBF0E080818E7F8083808108
:1005A0008D7F808388E48093B80085E48093BC00CD
:1005B0000895413208F03FC0909133029111FCCF71
:1005C00091E090933302209331022FEF2093C601E4
:1005D00010920B02240F20930A0290933202909102
:1005E0003202880F892B8093320280913002813051
:1005F00041F410923002809132028093BB0085EC6E
:1006000001C085EE8093BC00809133028130E1F31C
:1006100080910B02841710F440910B022CE032E021
:10062000FB01D9018A2F821B841718F48D918193C5
:10063000F9CF842F089580E008950F93413208F098
:1006400046C0909133029111FCCF92E09093330217
:10065000009331029FEF9093C60110920B024093DA
:100660000A02FB016CE072E0DB019A2F961B9417E3
:1006700018F491919D93F9CF109232029091320229
:10068000880F892B8093320280913002813041F4AF
:1006900010923002809132028093BB0085EC01C041
:1006A00085EE8093BC00222321F0809133028230BA
:1006B000E1F38091C6018F3F61F08091C6018032E5
:1006C00051F08091C601803341F483E007C081E09E
:1006D00005C080E003C082E001C084E00F9108956E
:1006E000613298F420913302243089F46093E80158
:1006F000FC018AEE91E0DC012A2F281B261718F452
:1007000021912D93F9CF80E0089581E0089582E052
:10071000089585ED8093BC008091BC0084FDFCCFE2
:1007200010923302089585EC8093BC00109233023E
:1007300008951F920F920FB60F9211242F933F939B
:100740004F935F936F937F938F939F93AF93BF93D9
:10075000EF93FF938091B900887F803609F49CC0A5
:1007600068F5883209F45BC090F4803109F454C014
:1007700038F4882309F4F5C0883009F44DC0F5C079
:10078000883109F44CC0803209F45DC0EEC0803479
:1007900009F468C048F4803309F455C0883309F07F
:1007A000E4C08093C601A8C0803509F44FC08835E5
:1007B00009F45DC0883409F0D8C0D5C0883909F47F
:1007C000C6C0A8F4883709F467C038F4883609F43D
:1007D00063C0803709F460C0C8C0883809F4B7C066
:1007E000803909F45FC0803809F0BFC05BC0803B2E
:1007F00009F485C038F4803A09F466C0883A09F4EF
:100800007EC0B3C0803C09F4A6C0883C09F4A3C0F4
:10081000883B09F489C0A9C08091320210C0909130
:100820000B0280910A02981770F5E0910B0281E0AB
:100830008E0F80930B02F0E0E45FFD4F8081809388
:10084000BB0085EC85C08093C6018DC0E0910B0292
:1008500081E08E0F80930B028091BB00F0E0E45F9B
:10086000FD4F808390910B0280910A026DC0E09150
:100870000B0281E08E0F80930B028091BB00F0E0B1
:10088000E45FFD4F80838091310281116CC081E073
:100890008093300284EA60C083E080933302109238
:1008A000C701CFCF8091C701803208F050C0E091DE
:1008B000C70181E08E0F8093C7018091BB00F0E0FB
:1008C000E853FE4F8083BDCF8091C701803230F462
:1008D000E091C701F0E0E853FE4F10820E948903C7
:1008E0006091C70170E0E0912C02F0912D0288EC3C
:1008F00091E009951092C7010E94930336C084E0ED
:10090000809333021092E9011092E801E0912E02E7
:10091000F0912F0209958091E801811105C081E0D5
:100920008093E8011092EA01E091E90181E08E0FE5
:100930008093E901F0E0E651FE4F80818093BB0097
:100940009091E9018091E801981708F47ACF85E841
:100950008093BC000AC085EC8093BC0010923302E7
:1009600004C01092C6010E948903FF91EF91BF91CC
:10097000AF919F918F917F916F915F914F913F9137
:100980002F910F900FBE0F901F9018951F920F92EE
:100990000FB60F9211242F933F938F939F93AF9392
:1009A000BF938091350290913602A0913702B091A9
:1009B00038023091340223E0230F2D3720F40196C2
:1009C000A11DB11D05C026E8230F0296A11DB11D72
:1009D000209334028093350290933602A09337021D
:1009E000B09338028091390290913A02A0913B0273
:1009F000B0913C020196A11DB11D809339029093E4
:100A00003A02A0933B02B0933C02BF91AF919F91F9
:100A10008F913F912F910F900FBE0F901F901895BF
:100A20003FB7F8948091390290913A02A0913B022D
:100A3000B0913C0226B5A89B05C02F3F19F0019646
:100A4000A11DB11D3FBF6627782F892F9A2F620FF6
:100A5000711D811D911D42E0660F771F881F991F30
:100A60004A95D1F70895CF92DF92EF92FF92CF93FC
:100A7000DF936B017C010E941005EB01C114D104CE
:100A8000E104F10479F00E9410056C1B7D0B683EB7
:100A90007340A0F381E0C81AD108E108F108C851F9
:100AA000DC4FECCFDF91CF91FF90EF90DF90CF90B4
:100AB0000895789484B5826084BD84B5816084BDD6
:100AC00085B5826085BD85B5816085BDEEE6F0E0C7
:100AD000808181608083E1E8F0E010828081826023
:100AE0008083808181608083E0E8F0E080818160A4
:100AF0008083E1EBF0E0808184608083E0EBF0E0D4
:100B0000808181608083EAE7F0E080818460808377
:100B10008081826080838081816080838081806821
:100B200080831092C1000895833081F028F48130D1
:100B300099F08230A1F008958630A9F08730B9F09D
:100B40008430D1F4809180008F7D03C0809180003B
:100B50008F7780938000089584B58F7702C084B525
:100B60008F7D84BD08958091B0008F7703C0809100
:100B7000B0008F7D8093B0000895CF93DF9390E015
:100B8000FC01E458FF4F2491FC01E057FF4F849192
:100B9000882349F190E0880F991FFC01E854FF4F2A
:100BA000A591B49182559F4FFC01C591D4919FB7F7
:100BB000611108C0F8948C91209582238C938881D0
:100BC00082230AC0623051F4F8948C91322F309510
:100BD00083238C938881822B888304C0F8948C9122
:100BE000822B8C939FBFDF91CF9108950F931F931A
:100BF000CF93DF931F92CDB7DEB7282F30E0F901F6
:100C0000E859FF4F8491F901E458FF4F1491F9011D
:100C1000E057FF4F04910023C9F0882321F0698336
:100C20000E9494056981E02FF0E0EE0FFF1FE2556E
:100C3000FF4FA591B4919FB7F8948C91611103C0B7
:100C40001095812301C0812B8C939FBF0F90DF9162
:100C5000CF911F910F910895CF93DF93282F30E00C
:100C6000F901E859FF4F8491F901E458FF4FD491FD
:100C7000F901E057FF4FC491CC2391F081110E94FC
:100C80009405EC2FF0E0EE0FFF1FEC55FF4FA59100
:100C9000B4912C912D2381E090E021F480E002C0FA
:100CA00080E090E0DF91CF9108950E9459050E9465
:100CB000DB00CEE2D7E00E94DF012097E1F30E9443
:100CC0002E07F9CFFC0124853585F901E05CFF4F43
:100CD00080819181329620813181821B930B8F73A9
:100CE00099270895FC0184859585FC01E05CFF4F00
:100CF000408151813296208131814217530741F062
:100D00000190F081E02DE80FF91F808190E00895B7
:100D10008FEF9FEF0895FC0184859585FC01E05CD1
:100D2000FF4F408151813296208131814217530714
:100D300079F0A081B181A80FB91F8C9120813181F8
:100D40002F5F3F4F2F7333273183208390E0089527
:100D50008FEF9FEF0895FC0181A1882329F0A489DA
:100D6000B5898C9186FFFBCF11A20895CF93DF93B5
:100D7000FC0126853785D901A05CBF4F8D919C91E0
:100D8000119701968F739927E901CE5BDF4F488158
:100D9000598184179507D9F30D90BC91A02DA20F0E
:100DA000B31F6C93A685B785A05CBF4F11969C932B
:100DB0008E93A689B7892C9181E090E0078C02C0C0
:100DC000880F991F0A94E2F7282B2C9381E081A3C6
:100DD0000488F589E02D80818064808381E090E043
:100DE000DF91CF91089508951F920F920FB60F9241
:100DF00011242F933F934F938F939F93EF93FF93E0
:100E00008091C00082FD1CC04091C6008091E30229
:100E10009091E40201968F7399272091E502309119
:100E2000E6028217930771F0E091E302F091E40289
:100E3000ED55FD4F40839093E4028093E30202C09E
:100E40008091C600FF91EF919F918F914F913F91BB
:100E50002F910F900FBE0F901F9018958DE392E089
:100E60000E946206892B11F00C94F30608951F92DC
:100E70000F920FB60F9211242F933F938F939F934E
:100E8000EF93FF9320919F023091A0028091A102E5
:100E90009091A2022817390731F48091C1008F7D0B
:100EA0008093C10014C0E091A102F091A202E15A26
:100EB000FD4F20818091A1029091A20201968F7333
:100EC00099279093A2028093A1022093C600FF91DC
:100ED000EF919F918F913F912F910F900FBE0F90A7
:100EE0001F901895CF92DF92EF92FF92CF93DF93EE
:100EF000EC016A017B01411581EE5807610571051E
:100F0000F9F0EC89FD8981E090E008A002C0880F2B
:100F1000991F0A94E2F7808360E079E08DE390E026
:100F2000A70196010E94990C2150310941095109EC
:100F30005695479537952795211580E1380798F004
:100F4000EC89FD89108260E874E88EE190E0A701E9
:100F500096010E94990C2150310941095109569579
:100F6000479537952795E889F9893083EA89FB8980
:100F7000208319A2EE89FF89408181E090E09C01E5
:100F80000C8C02C0220F331F0A94E2F7422B4083DD
:100F9000EE89FF8940819C010D8C02C0220F331F16
:100FA0000A94E2F7422B4083EE89FF8940819C013D
:100FB0000E8C02C0220F331F0A94E2F7422B4083AB
:100FC000EE89FF8920810F8C02C0880F991F0A9437
:100FD000E2F7809582238083DF91CF91FF90EF909D
:100FE000DF90CF9008951092400210923F0288EE59
:100FF00093E0A0E0B0E08093410290934202A0937E
:101000004302B093440289E591E090933E028093BD
:101010003D0283EA92E090934A02809349028FE571
:1010200092E090934C0280934B0285EC90E0909379
:101030004E0280934D0284EC90E090935002809396
:101040004F0280EC90E0909352028093510281EC29
:1010500090E0909354028093530282EC90E090933E
:1010600056028093550286EC90E09093580280934C
:10107000570284E08093590283E080935A0287E00C
:1010800080935B0285E080935C0281E080935D0247
:101090000895CF92DF92EF92FF920F931F93CF9319
:1010A000DF936C017A01EB01E60EF71E00E010E021
:1010B000CE15DF0561F06991D601ED91FC910190AB
:1010C000F081E02DC6010995080F191FF1CFC80165
:1010D000DF91CF911F910F91FF90EF90DF90CF9014
:1010E00008956115710581F0DB010D900020E9F78D
:1010F000AD0141505109461B570BDC01ED91FC91AC
:101100000280F381E02D099480E090E008950C9432
:101110007108DC01ED91FC910190F081E02D0994C2
:101120000F931F93CF93DF93EC016DE00E9489082A
:101130008C016AE0CE010E948908800F911FDF9127
:10114000CF911F910F9108950F931F93CF93DF932A
:10115000EC010E9471088C01CE010E949008800F62
:10116000911FDF91CF911F910F9108958F929F92C0
:10117000AF92BF92CF92DF92EF92FF920F931F93A5
:10118000CF93DF93CDB7DEB7A1970FB6F894DEBF4C
:101190000FBECDBF7C01C42EE52FCB01D22E19A2EC
:1011A00021E02D1510F02AE0D22E8E010F5D1F4F89
:1011B0008D2C912CA12CB12C6C2D7E2FA50194018E
:1011C0000E94990C8C2DD29E801911240150110976
:1011D0008A3014F4805D01C0895CF8018083211598
:1011E00031054105510521F0C22EE32FCA01E4CF9C
:1011F000B801C7010E947108A1960FB6F894DEBF2E
:101200000FBECDBFDF91CF911F910F91FF90EF9057
:10121000DF90CF90BF90AF909F908F900895CF9226
:10122000DF92EF92FF920F931F93CF93DF93EC0126
:101230006A017B012115310579F4E881F98101907A
:10124000F081E02D642FDF91CF911F910F91FF90DE
:10125000EF90DF90CF9009942A303105E9F477FFC1
:101260001AC06DE20E9489088C0144275527BA01F3
:101270004C195D096E097F092AE0CE010E94B6086B
:10128000800F911FDF91CF911F910F91FF90EF90F1
:10129000DF90CF9008952AE0B701A601CE01DF913B
:1012A000CF911F910F91FF90EF90DF90CF900C9412
:1012B000B6089A01AB01662757FD6095762F0C940E
:1012C0000F090F931F93CF93DF93EC019A01AB01AA
:1012D000662757FD6095762F0E940F098C01CE017D
:1012E0000E949008800F911FDF91CF911F910F9165
:1012F00008954F925F926F927F928F929F92AF92DA
:10130000BF92CF92DF92EF92FF920F931F93CF93F2
:10131000DF93EC016A017B01B22E9A01AB01C70198
:10132000B6010E94810C882319F065E671E027C0A0
:1013300026013701E89477F82FEF3FEF4FE75FE79B
:10134000C301B2010E94810C81110DC02FEF3FEF4C
:101350004FE75FE7C301B2010E94CB0A18161CF4E5
:1013600069E671E00CC02FEF3FEF4FE75FE4C70184
:10137000B6010E941A0C1816ACF46DE671E0CE01AD
:10138000DF91CF911F910F91FF90EF90DF90CF9061
:10139000BF90AF909F908F907F906F905F904F9095
:1013A0000C9471082FEF3FEF4FE75FECC701B601D8
:1013B0000E94CB0A87FDE1CF20E030E0A901C70100
:1013C000B6010E94CB0A87FF0AC06DE2CE010E94DF
:1013D00089088C01F7FAF094F7F8F09402C000E065
:1013E00010E0A12C60E070E080E09FE3AB1441F0DE
:1013F00020E030E040E251E40E94CF0AA394F6CF0F
:101400009B01AC01C701B6010E94670A6B017C0118
:101410000E943C0B2B013C010E94680B9B01AC011C
:10142000C701B6010E94660A6B017C012AE0B30184
:10143000A201CE010E94B608080F191FBB2039F087
:1014400061E771E0CE010E947108080F191F7B2C23
:10145000772041F120E030E040E251E4C701B601DD
:101460000E941E0C6B017C010E94370B4B01AA24C9
:1014700097FCA094BA2C2AE030E0B501A401CE017B
:101480000E940F09080F191FC501B4010E946A0BC1
:101490009B01AC01C701B6010E94660A6B017C0189
:1014A0007A94D6CFC801DF91CF911F910F91FF9011
:1014B000EF90DF90CF90BF90AF909F908F907F90F4
:1014C0006F905F904F9008950C9479095058BB2706
:1014D000AA270ED075C166D130F06BD120F031F45F
:1014E0009F3F11F41EF45BC10EF4E095E7FB51C180
:1014F000E92F77D180F3BA1762077307840795073E
:1015000018F071F49EF58FC10EF4E0950B2EBA2FF2
:10151000A02D0B01B90190010C01CA01A0011124F9
:10152000FF27591B99F0593F50F4503E68F11A16A5
:10153000F040A22F232F342F4427585FF3CF469536
:1015400037952795A795F0405395C9F77EF41F1658
:10155000BA0B620B730B840BBAF09150A1F0FF0F22
:10156000BB1F661F771F881FC2F70EC0BA0F621F0E
:10157000731F841F48F4879577956795B795F795FE
:101580009E3F08F0B3CF9395880F08F09927EE0F90
:10159000979587950895D9D008F481E008950CD0E7
:1015A0000FC107D140F0FED030F021F45F3F19F0B9
:1015B000F0C0511139C1F3C014D198F39923C9F384
:1015C0005523B1F3951B550BBB27AA276217730749
:1015D000840738F09F5F5F4F220F331F441FAA1FFD
:1015E000A9F333D00E2E3AF0E0E830D091505040BD
:1015F000E695001CCAF729D0FE2F27D0660F771F6B
:10160000881FBB1F261737074807AB07B0E809F04C
:10161000BB0B802DBF01FF2793585F4F2AF09E3FE1
:10162000510568F0B6C000C15F3FECF3983EDCF3B3
:10163000869577956795B795F7959F5FC9F7880F5A
:10164000911D9695879597F90895E1E0660F771FAC
:10165000881FBB1F621773078407BA0720F0621B3D
:10166000730B840BBA0BEE1F88F7E095089504D036
:101670006894B111D9C00895BCD088F09F5790F0FC
:10168000B92F9927B751A0F0D1F0660F771F881FA7
:10169000991F1AF0BA95C9F712C0B13081F0C3D0C2
:1016A000B1E00895C0C0672F782F8827B85F39F060
:1016B000B93FCCF3869577956795B395D9F73EF406
:1016C00090958095709561957F4F8F4F9F4F0895AE
:1016D000E89409C097FB3EF49095809570956195CC
:1016E0007F4F8F4F9F4F9923A9F0F92F96E9BB2782
:1016F0009395F695879577956795B795F111F8CFFE
:10170000FAF4BB0F11F460FF1BC06F5F7F4F8F4F68
:101710009F4F16C0882311F096E911C0772321F05E
:101720009EE8872F762F05C0662371F096E8862FF6
:1017300070E060E02AF09A95660F771F881FDAF74D
:10174000880F9695879597F90895990F0008550F7A
:10175000AA0BE0E8FEEF16161706E807F907C0F037
:1017600012161306E407F50798F0621B730B840B3F
:10177000950B39F40A2661F0232B242B252B21F419
:1017800008950A2609F4A140A6958FEF811D811DB9
:10179000089597F99F6780E870E060E008959FEFF3
:1017A00080EC089500240A941616170618060906F8
:1017B000089500240A9412161306140605060895C7
:1017C000092E0394000C11F4882352F0BB0F40F44F
:1017D000BF2B11F460FF04C06F5F7F4F8F4F9F4F8F
:1017E000089557FD9058440F551F59F05F3F71F011
:1017F0004795880F97FB991F61F09F3F79F0879578
:101800000895121613061406551FF2CF4695F1DF00
:1018100008C0161617061806991FF1CF8695710590
:10182000610508940895E894BB2766277727CB01C4
:1018300097F908958ADF08F48FEF08950BD0C0CF91
:10184000B1DF28F0B6DF18F0952309F0A2CFA7CFBB
:101850001124EACFC6DFA0F3959FD1F3950F50E096
:10186000551F629FF001729FBB27F00DB11D639F52
:10187000AA27F00DB11DAA1F649F6627B00DA11DF8
:10188000661F829F2227B00DA11D621F739FB00D9E
:10189000A11D621F839FA00D611D221F749F33270E
:1018A000A00D611D231F849F600D211D822F762FA7
:1018B0006A2F11249F5750408AF0E1F088234AF0A4
:1018C000EE0FFF1FBB1F661F771F881F91505040F0
:1018D000A9F79E3F510570F05CCFA6CF5F3FECF3B8
:1018E000983EDCF3869577956795B795F795E795DC
:1018F0009F5FC1F7FE2B880F911D9695879597F9ED
:10190000089523DF880B990B089597FB072E16F493
:10191000009407D077FD09D00E94BB0C07FC05D0CE
:101920003EF4909581959F4F0895709561957F4FF6
:101930000895A1E21A2EAA1BBB1BFD010DC0AA1F10
:10194000BB1FEE1FFF1FA217B307E407F50720F028
:10195000A21BB30BE40BF50B661F771F881F991FA3
:101960001A9469F760957095809590959B01AC01EC
:10197000BD01CF010895AA1BBB1B51E107C0AA1FDF
:10198000BB1FA617B70710F0A61BB70B881F991F20
:101990005A95A9F780959095BC01CD010895EE0F59
:0E19A000FF1F0590F491E02D0994F894FFCFFD
:1019AE00480054656D703D0020416C61726D3D20A4
:1019BE00002D3E002C0020C2B043002D2D2D2D2DCC
:1019CE002D2D2D2D2D2D2D2D2D2D2D2D2D2D2D2D39
:1019DE002D2D2D2D2D2D2D2D2D2D2D2D2D2D2D2D29
:1019EE002D2D2D2D00000000003F021202E701EF09
:1019FE00010202110200000000B606490862068BC1
:101A0E00067206AB066E616E00696E66006F7666D4
:041A1E00002E000096
:00000001FF
