:100000000C943F000C9467000C9467000C946700FC
:100010000C9467000C9467000C9467000C946700C4
:100020000C9467000C9467000C9467000C946700B4
:100030000C9467000C9467000C9467000C946700A4
:100040000C949C000C9467000C9409020C944C02D4
:100050000C9467000C9467000C9467000C94670084
:100060000C9467000C9467004D792061646472659C
:100070007373202020206973203A20000803112484
:100080001FBECFEFD8E0DEBFCDBF11E0A0E0B1E0F2
:10009000EEEAF9E002C005900D92A031B107D9F760
:1000A00021E0A0E1B1E001C01D92A43CB207E1F75C
:1000B00010E0CEE7D0E004C02297FE010E94BB040E
:1000C000CC37D107C9F70E946A010C94D5040C946F
:1000D00000004BE060E070E080E191E00E94980059
:1000E00040E855E260E070E08AE191E00C9487021C
:1000F000CF9360E070E080E191E00E949500C82F0E
:1001000068E670E08AE191E00E949C036C2F70E049
:1001100040E150E08AE191E00E947F0460ED77E0E9
:1001200080E090E0CF910C940901CB010C94BF04C6
:10013000CB01642F0C94C7041F920F920FB60F923D
:1001400011242F933F938F939F93AF93BF938091ED
:10015000120190911301A0911401B09115013091F9
:10016000110123E0230F2D3720F40196A11DB11DAD
:1001700005C026E8230F0296A11DB11D2093110191
:100180008093120190931301A0931401B093150171
:100190008091160190911701A0911801B091190159
:1001A0000196A11DB11D8093160190931701A09394
:1001B0001801B0931901BF91AF919F918F913F9119
:1001C0002F910F900FBE0F901F9018953FB7F89486
:1001D0008091160190911701A0911801B091190119
:1001E00026B5A89B05C02F3F19F00196A11DB11D92
:1001F0003FBF6627782F892F9A2F620F711D811DAF
:10020000911D42E0660F771F881F991F4A95D1F70D
:100210000895CF92DF92EF92FF92CF93DF936B011D
:100220007C010E94E600EB01C114D104E104F10459
:1002300079F00E94E6006C1B7D0B683E7340A0F3D2
:1002400081E0C81AD108E108F108C851DC4FECCFB1
:10025000DF91CF91FF90EF90DF90CF900895789449
:1002600084B5826084BD84B5816084BD85B58260BB
:1002700085BD85B5816085BDEEE6F0E08081816059
:100280008083E1E8F0E01082808182608083808159
:1002900081608083E0E8F0E0808181608083E1EB31
:1002A000F0E0808184608083E0EBF0E08081816019
:1002B0008083EAE7F0E080818460808380818260CF
:1002C00080838081816080838081806880831092B8
:1002D000C10008950E942F010E946900C3E4D2E08A
:1002E0000E9478002097E1F30E944302F9CFFC01BD
:1002F00024853585F901E05CFF4F8081918132963C
:1003000020813181821B930B8F7399270895FC0103
:1003100084859585FC01E05CFF4F408151813296D8
:10032000208131814217530741F00190F081E02D87
:10033000E80FF91F808190E008958FEF9FEF0895F7
:10034000FC0184859585FC01E05CFF4F4081518173
:100350003296208131814217530779F0A081B18113
:10036000A80FB91F8C91208131812F5F3F4F2F73D0
:1003700033273183208390E008958FEF9FEF089516
:10038000FC0181A1882329F0A489B5898C9186FF7D
:10039000FBCF11A20895CF93DF93FC01268537850B
:1003A000D901A05CBF4F8D919C91119701968F73DD
:1003B0009927E901CE5BDF4F488159818417950762
:1003C000D9F30D90BC91A02DA20FB31F6C93A685FD
:1003D000B785A05CBF4F11969C938E93A689B78971
:1003E0002C9181E090E0078C02C0880F991F0A943D
:1003F000E2F7282B2C9381E081A30488F589E02D76
:1004000080818064808381E090E0DF91CF910895C6
:1004100008951F920F920FB60F9211242F933F93BE
:100420004F938F939F93EF93FF938091C00082FD32
:100430001CC04091C6008091C0019091C1010196FD
:100440008F7399272091C2013091C30182179307BE
:1004500071F0E091C001F091C101E058FE4F40837E
:100460009093C1018093C00102C08091C600FF91AA
:10047000EF919F918F914F913F912F910F900FBED0
:100480000F901F9018958AE191E00E947701892BC7
:1004900011F00C94080208951F920F920FB60F925C
:1004A00011242F933F938F939F93EF93FF9320916A
:1004B0007C0130917D0180917E0190917F01281710
:1004C000390731F48091C1008F7D8093C10014C041
:1004D000E0917E01F0917F01E45CFE4F20818091EC
:1004E0007E0190917F0101968F73992790937F01F0
:1004F00080937E012093C600FF91EF919F918F9191
:100500003F912F910F900FBE0F901F901895CF9293
:10051000DF92EF92FF92CF93DF93EC016A017B01B0
:10052000411581EE580761057105F9F0EC89FD89E7
:1005300081E090E008A002C0880F991F0A94E2F7BA
:10054000808360E079E08DE390E0A70196010E944E
:10055000970421503109410951095695479537951E
:100560002795211580E1380798F0EC89FD891082E4
:1005700060E874E88EE190E0A70196010E9497047C
:1005800021503109410951095695479537952795CD
:10059000E889F9893083EA89FB89208319A2EE89E9
:1005A000FF89408181E090E09C010C8C02C0220F09
:1005B000331F0A94E2F7422B4083EE89FF89408182
:1005C0009C010D8C02C0220F331F0A94E2F7422BCC
:1005D0004083EE89FF8940819C010E8C02C0220F6E
:1005E000331F0A94E2F7422B4083EE89FF89208172
:1005F0000F8C02C0880F991F0A94E2F7809582231E
:100600008083DF91CF91FF90EF90DF90CF9008959E
:1006100010921D0110921C0188EE93E0A0E0B0E062
:1006200080931E0190931F01A0932001B09321019C
:1006300084E091E090931B0180931A0180E891E09F
:1006400090932701809326018CE391E090932901F8
:100650008093280185EC90E090932B0180932A01F0
:1006600084EC90E090932D0180932C0180EC90E03D
:1006700090932F0180932E0181EC90E090933101B3
:100680008093300182EC90E09093330180933201AB
:1006900086EC90E0909335018093340184E0809360
:1006A000360183E08093370187E08093380185E04D
:1006B0008093390181E080933A010895CF92DF92CF
:1006C000EF92FF920F931F93CF93DF936C017A0108
:1006D000EB01E60EF71E00E010E0CE15DF0561F03D
:1006E0006991D601ED91FC910190F081E02DC60158
:1006F0000995080F191FF1CFC801DF91CF911F9104
:100700000F91FF90EF90DF90CF90089561157105E4
:1007100081F0DB010D900020E9F7AD014150510956
:10072000461B570BDC01ED91FC910280F381E02D1B
:10073000099480E090E00895EF92FF920F931F9349
:10074000CF93DF938C01FB01C0E0D0E064917F0187
:100750008FEFE81AF80A662361F0D801ED91FC9159
:100760000190F081E02DC8010995C80FD91FF7014C
:10077000EDCFCE01DF91CF911F910F91FF90EF90C0
:100780000895DC01ED91FC910190F081E02D099438
:100790000F931F93CF93DF93EC016DE00E94C10391
:1007A0008C016AE0CE010E94C103800F911FDF918E
:1007B000CF911F910F9108958F929F92AF92BF9208
:1007C000CF92DF92EF92FF920F931F93CF93DF931D
:1007D000CDB7DEB7A1970FB6F894DEBF0FBECDBF81
:1007E0007C01C42EE52FCB01D22E19A221E02D15BC
:1007F00010F02AE0D22E8E010F5D1F4F8D2C912C10
:10080000A12CB12C6C2D7E2FA50194010E94970480
:100810008C2DD29E80191124015011098A3014F4B4
:10082000805D01C0895CF801808321153105410597
:10083000510521F0C22EE32FCA01E4CFB801C70150
:100840000E948603A1960FB6F894DEBF0FBECDBFFF
:10085000DF91CF911F910F91FF90EF90DF90CF909C
:10086000BF90AF909F908F900895CF92DF92EF92BC
:10087000FF920F931F93CF93DF93EC016A017B01EB
:100880002115310579F4E881F9810190F081E02D9D
:10089000642FDF91CF911F910F91FF90EF90DF9028
:1008A000CF9009942A303105E9F477FF1AC06DE240
:1008B0000E94C1038C0144275527BA014C195D09D8
:1008C0006E097F092AE0CE010E94DC03800F911F90
:1008D000DF91CF911F910F91FF90EF90DF90CF901C
:1008E00008952AE0B701A601CE01DF91CF911F91B3
:1008F0000F91FF90EF90DF90CF900C94DC030F935B
:100900001F93CF93DF93EC019A01AB01662757FD4C
:100910006095762F0E9435048C01CE010E94C80399
:10092000800F911FDF91CF911F910F910895A1E248
:100930001A2EAA1BBB1BFD010DC0AA1FBB1FEE1F59
:10094000FF1FA217B307E407F50720F0A21BB30BA4
:10095000E40BF50B661F771F881F991F1A9469F720
:1009600060957095809590959B01AC01BD01CF017C
:100970000895EE0FFF1F0590F491E02D0994F99969
:10098000FECF92BD81BDF89A992780B50895262F94
:10099000F999FECF1FBA92BD81BD20BD0FB6F89464
:0E09A000FA9AF99A0FBE01960895F894FFCFC7
:1009AE0000000000CB015E037701A0018701C001AA
:00000001FF
