:100000000C949F000C94C7000C94C7000C94C7007C
:100010000C94C7000C94C7000C94C7000C94C70044
:100020000C94C7000C94C7000C94C7000C94C70034
:100030000C94C7000C94C7000C94C7000C94C70024
:100040000C94D3070C94C7000C94D8090C941B0A89
:100050000C94C7000C94C7000C94C7000C94C70004
:100060000C9467060C94C7007E306D79335B5F702B
:100070007F7B771F0D3D4F47000000000000000010
:100080000000000000000000000000000000000070
:1000900000000000800180007E306D79335B5F706E
:1000A0007F7B00000000000000771F0D3D4F4700E0
:1000B000370000000E000000670000000000000094
:1000C000000000000000000800771F0D3D4F4700B2
:1000D000370000000E00151D670000000000000042
:1000E0000000000000000000000000070002010006
:1000F00000030406000000000000000001020408E4
:100100001020408001020408102001020408102081
:1001100004040404040404040202020202020303AD
:100120000303030300000000250028002B0000004B
:100130000000240027002A00A3018505D70A112406
:100140001FBECFEFD8E0DEBFCDBF11E0A0E0B1E031
:10015000EAECFFE102C005900D92A839B107D9F78A
:1001600023E0A8E9B1E001C01D92AB36B207E1F788
:1001700011E0CEE3D1E004C02297FE010E94DF0F20
:10018000C833D107C9F70E9439090C94E30F0C94C6
:100190000000DC01ED91FC910190F081E02D0994CB
:1001A0004F925F926F927F928F929F92AF92BF9287
:1001B000CF92DF92EF92FF920F93CF93DF936B0179
:1001C0007C0120E030E040E251E40E942C0F0E94CC
:1001D000450E2B013C0124E630E0CB01B9010E9421
:1001E000930FA201481B590BCA01B9010E94930F3A
:1001F0004B014CE946039001479F300D1124240D1B
:10020000351DEAE0F0E0C901BF010E94930FB9017A
:10021000681B790BCB01BF010E94930F5B0146EF76
:100220004603E001479FD00D1124C20FD31F00E009
:1002300020E247E050E060E070E080EA91E00E9458
:100240008B0420E246E050E060E070E080EA91E05C
:100250000E948B0420E245E050E060E070E080EA1C
:1002600091E00E948B0423E443E050E060E070E002
:1002700080EA91E00E948B04282D42E050E060E08B
:1002800070E080EA91E00E94610401E02A2D41E0E3
:1002900050E060E070E080EA91E00E94610400E0DC
:1002A0002C2F40E050E060E070E080EA91E00E9496
:1002B000610460ED77E080E090E00E94400822E079
:1002C00030E0B701A60181EC92E00E94720D62E07D
:1002D00071E081EC92E00E946B0B4AE050E0B401C7
:1002E00081EC92E00E943D0C4AE050E0B50181ECC7
:1002F00092E00E943D0C65E071E081EC92E00E948A
:100300006B0B4AE050E0BE0181EC92E00E943D0C94
:1003100067E071E081EC92E00E94880B60E070E0A1
:1003200080EA91E0DF91CF910F91FF90EF90DF9005
:10033000CF90BF90AF909F908F907F906F905F9085
:100340004F900C949C030F931F9301E010E02AE060
:1003500030E04BE050E06CE070E080EA91E00E9419
:10036000D2031F910F9108951F93CF93DF93182FFE
:10037000EB016CE071E081EC92E00E94880B6091EF
:1003800000017091010188EF91E00E947005612FDA
:1003900088EF91E00E940D056D2F70E088EF91E0ED
:1003A0000E94C900BE01772788EF91E00E94C90032
:1003B00061E088EF91E0DF91CF911F910C9472057D
:1003C00067E171E081EC92E00E946B0B61E271E009
:1003D00081EC92E00E946B0B4AE050E061E081EC1E
:1003E00092E00E946A0C6CE371E081EC92E00E9462
:1003F0006B0B4AE050E06BE481EC92E00E946A0CE7
:100400006CE371E081EC92E00E946B0B6091000163
:10041000709101014AE050E081EC92E00E94450CAD
:10042000609100017091010188EF91E00E947005D8
:1004300061E088EF91E00E940D056BE488EF91E0A8
:100440000E940D0561E088EF91E00C9472056EE367
:1004500071E081EC92E00E94880B0E94E00160E074
:1004600073E182E00E94B40160E074E183E00E94E5
:10047000B4010E94E00160E073E182E00E94B401F7
:1004800060E074E183E00C94B40140E060E070E06F
:1004900080EA91E00E94650344E050E060E070E093
:1004A00080EA91E00E948A0360E070E080EA91E0D7
:1004B0000E949C0388EF91E00E944C0540E855E2C1
:1004C00060E070E081EC92E00E94560A63E571E022
:1004D00081EC92E00E94880B62E087E00E94CA08EB
:1004E00061E088E00E94CA0880E090E0A0EAB1E400
:1004F00080939C0190939D01A0939E01B0939F01D6
:1005000080E090E0A8E9B1E480939801909399018C
:10051000A0939A01B0939B010C942702CF93DF9391
:1005200069E571E081EC92E00E946B0B6091000143
:100530007091010188EF91E00E94700560E088EF02
:1005400091E00E940D0561E088EF91E00E94720544
:10055000609100017091010142E050E088EF91E06C
:100560000E94630588EF91E00E94BD04D82F80E0CF
:10057000C82F88EF91E00E94BD04C82BD92B63E6F9
:1005800071E081EC92E00E946B0B4AE050E0BE010A
:1005900081EC92E00E94710CBE0184E07695679533
:1005A0008A95E1F780E090E00E94760E20E030E04E
:1005B00040E85DE30E942C0FDF91CF910C94D000B6
:1005C0000E948E0261E08DE00E9403096CE271E0FE
:1005D00080E090E00E94400860E08DE00E94030906
:1005E0006CE271E080E090E00E94400861E088E009
:1005F0000E9403096CE271E080E090E00E944008F4
:1006000060E088E00C9403098F929F92AF92BF92B2
:10061000CF92DF92EF92FF920F931F93CF93DF93CE
:1006200000D0CDB7DEB78C0149832A83660F771FD0
:10063000F801EA5AFF4FE080F180EE0CFF1CF80150
:10064000CF01801B910B8E159F0514F41192F8CFEA
:100650008981F801E60FF71F81838A818083680111
:1006600084E5C80ED11C60E0F60180810E94030978
:100670005801F2E5AF0EB11C480180E5880E911CCF
:100680001E141F047CF4E1E0EE1AF108F801EE0DEF
:10069000FF1D208141E0F5016081F40180810E940D
:1006A0009407EECF61E0F60180810F900F90DF910B
:1006B000CF911F910F91FF90EF90DF90CF90BF905F
:1006C000AF909F908F900C94030977FD10C0FC01B0
:1006D000EA5AFF4F208131816217730744F44423A3
:1006E00011F020E001C021E04CE00C9404030895D7
:1006F00077FD0FC0FC01EA5AFF4F2081318162175C
:1007000073073CF44830510520F4242F4BE00C943F
:100710000403089577FD0FC0FC01EA5AFF4F2081C2
:100720003181621773073CF44031510520F4242FC6
:100730004AE00C9404030895CF92DF92EF92FF9267
:100740000F931F93CF93DF937C018B0177FD21C023
:10075000FC01EA5AFF4F8081918168177907CCF438
:100760006B0123E0CC0CDD1C2A95E1F7C0E0D0E062
:10077000CE0CDF1CF601EC0FFD1F108A4C2F4F5FD3
:1007800020E0B801C7010E9404032196C830D105BA
:1007900089F7DF91CF911F910F91FF90EF90DF903C
:1007A000CF9008954F925F927F928F929F92AF92D7
:1007B000BF92CF92DF92EF92FF920F931F93CF934E
:1007C000DF931F92CDB7DEB72C01762E7C0180E53A
:1007D000E80EF11CF701608371834201F2E58F0E90
:1007E000911CF401518340836201F4E5CF0ED11CCA
:1007F000F60131832083C8010197089710F008E0C3
:1008000010E05201F6E5AF0EB11CF5011183008333
:1008100061E0872D79830E94CA0861E0F40180813C
:100820000E94CA0861E0F60180810E94CA0861E066
:10083000F60180810E940309F7017082798171833A
:1008400080E090E0F201E80FF91F108A01968034F1
:100850009105C1F700E010E0F50180819181081752
:100860001907F4F420E04FE0B801C2010E9404032C
:1008700047E050E0B801C2010E94780320E049E05F
:10088000B801C2010E940403B801C2010E949C0386
:1008900041E0B801C2010E9465030F5F1F4FDCCF2A
:1008A0000F90DF91CF911F910F91FF90EF90DF900C
:1008B000CF90BF90AF909F908F907F905F904F9020
:1008C00008950F9377FD25C0DC01AA5ABF4F0D9004
:1008D000BC91A02D6A177B07E4F448305105C8F499
:1008E0002031B8F4DB0133E0AA0FBB1F3A95E1F7E2
:1008F000E22FF0E0E859FF4F249101112068A80F82
:10090000B91FA40FB51F50962C934F5F0F910C94F5
:1009100004030F9108950F9377FD25C0DC01AA5AB7
:10092000BF4F0D90BC91A02D6A177B07E4F44830AF
:100930005105C8F4DB01E3E0AA0FBB1FEA95E1F71C
:1009400027FD20E2E22FF0E0E859FF4F249101114A
:100950002068A80FB91FA40FB51F50962C934F5FA6
:100960000F910C9404030F9108958091280290E058
:1009700020912902821B91090895209129028091DA
:100980002802281750F4E22FF0E0E65DFD4F808149
:1009900090E02F5F2093290208958FEF9FEF089535
:1009A000E091290280912802E81730F4F0E0E65D3A
:1009B000FD4F808190E008958FEF9FEF0895089597
:1009C000CF92DF92EF92FF920F931F93CF93DF931B
:1009D0007C01CB018A0120910402222389F0EB01E2
:1009E0006B01C40ED51ECC15DD0569F06991D701E8
:1009F000ED91FC910190F081E02DC7010995F3CFB5
:100A0000642F0E943E06C801DF91CF911F910F9184
:100A1000FF90EF90DF90CF900895CF93DF931F92D8
:100A2000CDB7DEB76983209104022223D1F0209153
:100A30000502203240F021E030E0FC0133832283C4
:100A400080E090E015C080910602E82FF0E0E95FB9
:100A5000FD4F998190838F5F8093060280930502FA
:100A600005C061E0CE0101960E943E0681E090E063
:100A70000F90DF91CF910895FC011382128248EE0E
:100A800053E060E070E044835583668377838DE6AE
:100A900091E0918380830895109229021092280298
:100AA00010920602109205020C948905862F41329D
:100AB00008F040E26AE272E00E94A7051092290263
:100AC00080932802089521E00C94560581E08093DC
:100AD0000402609327021092060210920502089504
:100AE0000C9466050F93062F21E04091050267E004
:100AF00072E0809127020E94EB051092060210928C
:100B00000502109204020F91089588EF91E00C9471
:100B10003C051092B70281E08093B5021092B402B6
:100B200061E082E10E94030961E083E10E94030920
:100B3000E9EBF0E080818E7F808380818D7F8083F0
:100B400088E48093B80085E48093BC000895413226
:100B500008F03FC09091B7029111FCCF91E09093C3
:100B6000B7022093B5022FEF20934A0210928F0212
:100B7000240F20938E029093B6029091B602880FB4
:100B8000892B8093B6028091B402813041F4109297
:100B9000B4028091B6028093BB0085EC01C085EE63
:100BA0008093BC008091B7028130E1F380918F0285
:100BB000841710F440918F0220E932E0FB01D90143
:100BC0008A2F821B841718F48D918193F9CF842F7B
:100BD000089580E008950F93413208F046C0909147
:100BE000B7029111FCCF92E09093B7020093B50247
:100BF0009FEF90934A0210928F0240938E02FB0166
:100C000060E972E0DB019A2F961B941718F491911A
:100C10009D93F9CF1092B6029091B602880F892B5E
:100C20008093B6028091B402813041F41092B402F4
:100C30008091B6028093BB0085EC01C085EE809365
:100C4000BC00222321F08091B7028230E1F3809131
:100C50004A028F3F61F080914A02803251F08091C8
:100C60004A02803341F483E007C081E005C080E0A0
:100C700003C082E001C084E00F910895613298F4CE
:100C80002091B702243089F460936C02FC018EE657
:100C900092E0DC012A2F281B261718F421912D93AE
:100CA000F9CF80E0089581E0089582E0089585ED10
:100CB0008093BC008091BC0084FDFCCF1092B702F1
:100CC000089585EC8093BC001092B70208951F929E
:100CD0000F920FB60F9211242F933F934F935F9370
:100CE0006F937F938F939F93AF93BF93EF93FF93F4
:100CF0008091B900887F803609F49CC068F58832FD
:100D000009F45BC090F4803109F454C038F48823AE
:100D100009F4F5C0883009F44DC0F5C0883109F4F4
:100D20004CC0803209F45DC0EEC0803409F468C064
:100D300048F4803309F455C0883309F0E4C0809347
:100D40004A02A8C0803509F44FC0883509F45DC057
:100D5000883409F0D8C0D5C0883909F4C6C0A8F4D1
:100D6000883709F467C038F4883609F463C08037DF
:100D700009F460C0C8C0883809F4B7C0803909F4E4
:100D80005FC0803809F0BFC05BC0803B09F485C0FC
:100D900038F4803A09F466C0883A09F47EC0B3C0DA
:100DA000803C09F4A6C0883C09F4A3C0883B09F440
:100DB00089C0A9C08091B60210C090918F02809125
:100DC0008E02981770F5E0918F0281E08E0F80936C
:100DD0008F02F0E0E057FD4F80818093BB0085ECEF
:100DE00085C080934A028DC0E0918F0281E08E0F12
:100DF00080938F028091BB00F0E0E057FD4F80832D
:100E000090918F0280918E026DC0E0918F0281E0FF
:100E10008E0F80938F028091BB00F0E0E057FD4F72
:100E200080838091B50281116CC081E08093B4020F
:100E300084EA60C083E08093B70210924B02CFCF68
:100E400080914B02803208F050C0E0914B0281E06B
:100E50008E0F80934B028091BB00F0E0E45BFD4F6E
:100E60008083BDCF80914B02803230F4E0914B0201
:100E7000F0E0E45BFD4F10820E94570660914B0248
:100E800070E0E091B002F091B1028CE492E009953B
:100E900010924B020E94610636C084E08093B70234
:100EA00010926D0210926C02E091B202F091B302C6
:100EB000099580916C02811105C081E080936C02DC
:100EC00010926E02E0916D0281E08E0F80936D02B0
:100ED000F0E0E259FD4F80818093BB0090916D025C
:100EE00080916C02981708F47ACF85E88093BC0053
:100EF0000AC085EC8093BC001092B70204C0109227
:100F00004A020E945706FF91EF91BF91AF919F91C6
:100F10008F917F916F915F914F913F912F910F90A2
:100F20000FBE0F901F901895BF92CF92DF92EF9255
:100F3000FF920F931F93CF93DF93C82ED62EB42E1C
:100F4000C7E0D0E0022F10E087E0E82EF12CB110CE
:100F50000AC0F701EC1BFD0BB80102C0759567953F
:100F6000EA95E2F707C0B8010C2E02C075956795A7
:100F70000A94E2F7617077278C2D0E94030961E0E3
:100F80008D2D0E94030960E08D2D0E940309219799
:100F9000F0F6DF91CF911F910F91FF90EF90DF90CE
:100FA000CF90BF9008951F920F920FB60F92112409
:100FB0002F933F938F939F93AF93BF938091B902E9
:100FC0009091BA02A091BB02B091BC023091B802DC
:100FD00023E0230F2D3720F40196A11DB11D05C07C
:100FE00026E8230F0296A11DB11D2093B80280931D
:100FF000B9029093BA02A093BB02B093BC02809155
:10100000BD029091BE02A091BF02B091C0020196B4
:10101000A11DB11D8093BD029093BE02A093BF029B
:10102000B093C002BF91AF919F918F913F912F914B
:101030000F900FBE0F901F9018953FB7F8948091B6
:10104000BD029091BE02A091BF02B091C00226B530
:10105000A89B05C02F3F19F00196A11DB11D3FBFF0
:101060006627782F892F9A2F620F711D811D911D80
:1010700042E0660F771F881F991F4A95D1F70895A0
:10108000CF92DF92EF92FF92CF93DF936B017C01BF
:101090000E941D08EB01C114D104E104F10479F0B0
:1010A0000E941D086C1B7D0B683E7340A0F381E01D
:1010B000C81AD108E108F108C851DC4FECCFDF9124
:1010C000CF91FF90EF90DF90CF900895789484B502
:1010D000826084BD84B5816084BD85B5826085BD34
:1010E00085B5816085BDEEE6F0E08081816080831A
:1010F000E1E8F0E0108280818260808380818160FD
:101100008083E0E8F0E0808181608083E1EBF0E0C3
:10111000808184608083E0EBF0E080818160808367
:10112000EAE7F0E080818460808380818260808350
:101130008081816080838081806880831092C1007B
:101140000895833081F028F4813099F08230A1F045
:1011500008958630A9F08730B9F08430D1F48091B9
:1011600080008F7D03C0809180008F778093800006
:10117000089584B58F7702C084B58F7D84BD0895AE
:101180008091B0008F7703C08091B0008F7D8093F5
:10119000B0000895CF93DF9390E0FC01E450FF4F3F
:1011A0002491FC01E05FFE4F8491882349F190E097
:1011B000880F991FFC01E25DFE4FA591B4918C5DF3
:1011C0009E4FFC01C591D4919FB7611108C0F8945E
:1011D0008C91209582238C93888182230AC062306F
:1011E00051F4F8948C91322F309583238C9388811D
:1011F000822B888304C0F8948C91822B8C939FBFA0
:10120000DF91CF9108950F931F93CF93DF931F9298
:10121000CDB7DEB7282F30E0F901E851FF4F8491B8
:10122000F901E450FF4F1491F901E05FFE4F049182
:101230000023C9F0882321F069830E94A1086981F5
:10124000E02FF0E0EE0FFF1FEC5DFE4FA591B49193
:101250009FB7F8948C91611103C01095812301C050
:10126000812B8C939FBF0F90DF91CF911F910F9196
:1012700008950E9466080E944502C2E1DAE00E94D9
:10128000E0022097E1F30E94120AF9CFFC012485C5
:101290003585F901E05CFF4F808191813296208194
:1012A0003181821B930B8F7399270895FC018485EC
:1012B0009585FC01E05CFF4F408151813296208191
:1012C00031814217530741F00190F081E02DE80F82
:1012D000F91F808190E008958FEF9FEF0895FC0142
:1012E00084859585FC01E05CFF4F408151813296F9
:1012F000208131814217530779F0A081B181A80F75
:10130000B91F8C91208131812F5F3F4F2F7333277D
:101310003183208390E008958FEF9FEF0895FC01C3
:1013200081A1882329F0A489B5898C9186FFFBCF00
:1013300011A20895CF93DF93FC0126853785D9014B
:10134000A05CBF4F8D919C91119701968F73992747
:10135000E901CE5BDF4F4881598184179507D9F3A6
:101360000D90BC91A02DA20FB31F6C93A685B785DD
:10137000A05CBF4F11969C938E93A689B7892C9140
:1013800081E090E0078C02C0880F991F0A94E2F771
:10139000282B2C9381E081A30488F589E02D80819E
:1013A0008064808381E090E0DF91CF91089508957B
:1013B0001F920F920FB60F9211242F933F934F93CA
:1013C0008F939F93EF93FF938091C00082FD1CC089
:1013D0004091C600809167039091680301968F73D6
:1013E00099272091690330916A038217930771F05E
:1013F000E0916703F0916803E95DFC4F40839093AF
:1014000068038093670302C08091C600FF91EF914B
:101410009F918F914F913F912F910F900FBE0F9001
:101420001F90189581EC92E00E944609892B11F0DB
:101430000C94D70908951F920F920FB60F921124A2
:101440002F933F938F939F93EF93FF9320912303C9
:1014500030912403809125039091260328173907A2
:1014600031F48091C1008F7D8093C10014C0E09160
:101470002503F0912603ED51FD4F20818091250336
:101480009091260301968F7399279093260380935A
:1014900025032093C600FF91EF919F918F913F917B
:1014A0002F910F900FBE0F901F901895CF92DF9243
:1014B000EF92FF92CF93DF93EC016A017B0141151C
:1014C00081EE580761057105F9F0EC89FD8981E02D
:1014D00090E008A002C0880F991F0A94E2F7808369
:1014E00060E079E08DE390E0A70196010E94A70FEC
:1014F000215031094109510956954795379527954E
:10150000211580E1380798F0EC89FD89108260E8A8
:1015100074E88EE190E0A70196010E94A70F215088
:101520003109410951095695479537952795E8891D
:10153000F9893083EA89FB89208319A2EE89FF8922
:10154000408181E090E09C010C8C02C0220F331F8F
:101550000A94E2F7422B4083EE89FF8940819C0187
:101560000D8C02C0220F331F0A94E2F7422B4083F6
:10157000EE89FF8940819C010E8C02C0220F331F2F
:101580000A94E2F7422B4083EE89FF8920810F8C79
:1015900002C0880F991F0A94E2F780958223808306
:1015A000DF91CF91FF90EF90DF90CF900895109250
:1015B000C4021092C30288EE93E0A0E0B0E08093F2
:1015C000C5029093C602A093C702B093C8028DE7EC
:1015D00091E09093C2028093C10287E293E09093DE
:1015E000CE028093CD0283EE92E09093D00280935E
:1015F000CF0285EC90E09093D2028093D10284ECEC
:1016000090E09093D4028093D30280EC90E090938A
:10161000D6028093D50281EC90E09093D80280931B
:10162000D70282EC90E09093DA028093D90286ECA4
:1016300090E09093DC028093DB0284E08093DD02F3
:1016400083E08093DE0287E08093DF0285E0809371
:10165000E00281E08093E1020895CF92DF92EF9261
:10166000FF920F931F93CF93DF936C017A01EB01ED
:10167000E60EF71E00E010E0CE15DF0561F069917F
:10168000D601ED91FC910190F081E02DC601099504
:10169000080F191FF1CFC801DF91CF911F910F9152
:1016A000FF90EF90DF90CF9008956115710581F064
:1016B000DB010D900020E9F7AD0141505109461BB7
:1016C000570BDC01ED91FC910280F381E02D099430
:1016D00080E090E008950C94550BDC01ED91FC91B5
:1016E0000190F081E02D09940F931F93CF93DF9326
:1016F000EC016DE00E946D0B8C016AE0CE010E944E
:101700006D0B800F911FDF91CF911F910F91089565
:101710000F931F93CF93DF93EC010E94550B8C0125
:10172000CE010E94740B800F911FDF91CF911F910A
:101730000F9108958F929F92AF92BF92CF92DF92B6
:10174000EF92FF920F931F93CF93DF93CDB7DEB746
:10175000A1970FB6F894DEBF0FBECDBF7C01C42E9B
:10176000E52FCB01D22E19A221E02D1510F02AE091
:10177000D22E8E010F5D1F4F8D2C912CA12CB12CE0
:101780006C2D7E2FA50194010E94A70F8C2DD29E57
:1017900080191124015011098A3014F4805D01C0B0
:1017A000895CF8018083211531054105510521F03F
:1017B000C22EE32FCA01E4CFB801C7010E94550B26
:1017C000A1960FB6F894DEBF0FBECDBFDF91CF91CB
:1017D0001F910F91FF90EF90DF90CF90BF90AF904F
:1017E0009F908F900895CF92DF92EF92FF920F9388
:1017F0001F93CF93DF93EC016A017B012115310523
:1018000079F4E881F9810190F081E02D642FDF9176
:10181000CF911F910F91FF90EF90DF90CF9009949F
:101820002A303105E9F477FF1AC06DE20E946D0B92
:101830008C0144275527BA014C195D096E097F09AF
:101840002AE0CE010E949A0B800F911FDF91CF9169
:101850001F910F91FF90EF90DF90CF9008952AE0B5
:10186000B701A601CE01DF91CF911F910F91FF909B
:10187000EF90DF90CF900C949A0B9A01AB01662702
:1018800057FD6095762F0C94F30B0F931F93CF9316
:10189000DF93EC019A01AB01662757FD6095762F27
:1018A0000E94F30B8C01CE010E94740B800F911FDC
:1018B000DF91CF911F910F9108952115310541F4CA
:1018C000DC01ED91FC910190F081E02D642F0994F1
:1018D0000C949A0B9A01462F50E060E070E00C9453
:1018E0005D0C0F931F93CF93DF93EC019A01AB0133
:1018F00060E070E00E945D0C8C01CE010E94740BD0
:10190000800F911FDF91CF911F910F9108954F92FA
:101910005F926F927F928F929F92AF92BF92CF927F
:10192000DF92EF92FF920F931F93CF93DF93EC011F
:101930006A017B01B22E9A01AB01C701B6010E9478
:101940008F0F882319F069E871E027C0260137015D
:10195000E89477F82FEF3FEF4FE75FE7C301B2015D
:101960000E948F0F81110DC02FEF3FEF4FE75FE710
:10197000C301B2010E94D90D18161CF46DE871E084
:101980000CC02FEF3FEF4FE75FE4C701B6010E94A5
:10199000280F1816ACF461E971E0CE01DF91CF9108
:1019A0001F910F91FF90EF90DF90CF90BF90AF907D
:1019B0009F908F907F906F905F904F900C94550BFD
:1019C0002FEF3FEF4FE75FECC701B6010E94D90D43
:1019D00087FDE1CF20E030E0A901C701B6010E94F8
:1019E000D90D87FF0AC06DE2CE010E946D0B8C01FC
:1019F000F7FAF094F7F8F09402C000E010E0A12CA0
:101A000060E070E080E09FE3AB1441F020E030E064
:101A100040E251E40E94DD0DA394F6CF9B01AC019E
:101A2000C701B6010E94750D6B017C010E944A0E30
:101A30002B013C010E94760E9B01AC01C701B6014F
:101A40000E94740D6B017C012AE0B301A201CE015A
:101A50000E949A0B080F191FBB2039F065E971E04D
:101A6000CE010E94550B080F191F7B2C772041F1E6
:101A700020E030E040E251E4C701B6010E942C0FA3
:101A80006B017C010E94450E4B01AA2497FCA09497
:101A9000BA2C2AE030E0B501A401CE010E94F30B7C
:101AA000080F191FC501B4010E94780E9B01AC01FB
:101AB000C701B6010E94740D6B017C017A94D6CFE8
:101AC000C801DF91CF911F910F91FF90EF90DF90B0
:101AD000CF90BF90AF909F908F907F906F905F90CE
:101AE0004F9008950C94870C5058BB27AA270ED00E
:101AF00075C166D130F06BD120F031F49F3F11F405
:101B00001EF45BC10EF4E095E7FB51C1E92F77D1DC
:101B100080F3BA17620773078407950718F071F40A
:101B20009EF58FC10EF4E0950B2EBA2FA02D0B0160
:101B3000B90190010C01CA01A0011124FF27591B12
:101B400099F0593F50F4503E68F11A16F040A22F18
:101B5000232F342F4427585FF3CF46953795279589
:101B6000A795F0405395C9F77EF41F16BA0B620B88
:101B7000730B840BBAF09150A1F0FF0FBB1F661FCF
:101B8000771F881FC2F70EC0BA0F621F731F841F12
:101B900048F4879577956795B795F7959E3F08F038
:101BA000B3CF9395880F08F09927EE0F97958795F7
:101BB0000895D9D008F481E008950CD00FC107D161
:101BC00040F0FED030F021F45F3F19F0F0C0511129
:101BD00039C1F3C014D198F39923C9F35523B1F354
:101BE000951B550BBB27AA2762177307840738F08C
:101BF0009F5F5F4F220F331F441FAA1FA9F333D0EB
:101C00000E2E3AF0E0E830D091505040E695001C9E
:101C1000CAF729D0FE2F27D0660F771F881FBB1F5A
:101C2000261737074807AB07B0E809F0BB0B802D34
:101C3000BF01FF2793585F4F2AF09E3F510568F080
:101C4000B6C000C15F3FECF3983EDCF38695779514
:101C50006795B795F7959F5FC9F7880F911D969582
:101C6000879597F90895E1E0660F771F881FBB1FDE
:101C7000621773078407BA0720F0621B730B840B8B
:101C8000BA0BEE1F88F7E095089504D06894B1115F
:101C9000D9C00895BCD088F09F5790F0B92F9927EC
:101CA000B751A0F0D1F0660F771F881F991F1AF067
:101CB000BA95C9F712C0B13081F0C3D0B1E0089530
:101CC000C0C0672F782F8827B85F39F0B93FCCF3B1
:101CD000869577956795B395D9F73EF4909580955D
:101CE000709561957F4F8F4F9F4F0895E89409C07D
:101CF00097FB3EF490958095709561957F4F8F4F3F
:101D00009F4F9923A9F0F92F96E9BB279395F69554
:101D1000879577956795B795F111F8CFFAF4BB0FD2
:101D200011F460FF1BC06F5F7F4F8F4F9F4F16C036
:101D3000882311F096E911C0772321F09EE8872FC0
:101D4000762F05C0662371F096E8862F70E060E07C
:101D50002AF09A95660F771F881FDAF7880F9695F5
:101D6000879597F90895990F0008550FAA0BE0E899
:101D7000FEEF16161706E807F907C0F0121613064D
:101D8000E407F50798F0621B730B840B950B39F48D
:101D90000A2661F0232B242B252B21F408950A26F3
:101DA00009F4A140A6958FEF811D811D089597F933
:101DB0009F6780E870E060E008959FEF80EC0895F1
:101DC00000240A941616170618060906089500241A
:101DD0000A9412161306140605060895092E039494
:101DE000000C11F4882352F0BB0F40F4BF2B11F408
:101DF00060FF04C06F5F7F4F8F4F9F4F089557FD67
:101E00009058440F551F59F05F3F71F04795880F68
:101E100097FB991F61F09F3F79F0879508951216FF
:101E200013061406551FF2CF4695F1DF08C01616AB
:101E300017061806991FF1CF86957105610508945C
:101E40000895E894BB2766277727CB0197F9089573
:101E50008ADF08F48FEF08950BD0C0CFB1DF28F0F0
:101E6000B6DF18F0952309F0A2CFA7CF1124EACF4F
:101E7000C6DFA0F3959FD1F3950F50E0551F629FE9
:101E8000F001729FBB27F00DB11D639FAA27F00DD3
:101E9000B11DAA1F649F6627B00DA11D661F829FFA
:101EA0002227B00DA11D621F739FB00DA11D621FDF
:101EB000839FA00D611D221F749F3327A00D611DFC
:101EC000231F849F600D211D822F762F6A2F1124DE
:101ED0009F5750408AF0E1F088234AF0EE0FFF1F31
:101EE000BB1F661F771F881F91505040A9F79E3F68
:101EF000510570F05CCFA6CF5F3FECF3983EDCF36A
:101F0000869577956795B795F795E7959F5FC1F7A4
:101F1000FE2B880F911D9695879597F9089523DFDD
:101F2000880B990B089597FB072E16F4009407D0A1
:101F300077FD09D00E94C90F07FC05D03EF49095AB
:101F400081959F4F0895709561957F4F0895A1E207
:101F50001A2EAA1BBB1BFD010DC0AA1FBB1FEE1F23
:101F6000FF1FA217B307E407F50720F0A21BB30B6E
:101F7000E40BF50B661F771F881F991F1A9469F7EA
:101F800060957095809590959B01AC01BD01CF0146
:101F90000895AA1BBB1B51E107C0AA1FBB1FA617B0
:101FA000B70710F0A61BB70B881F991F5A95A9F702
:101FB00080959095BC01CD010895EE0FFF1F05900F
:0A1FC000F491E02D0994F894FFCF8E
:101FCA004B002D3E002C0020C2B0430069326357FB
:101FDA00726974653136006932635772697465389B
:101FEA0000207265672C2076616C75652C207365FC
:101FFA006E736F725F616464723D20002D00726FB0
:10200A007574696E652073656E736F72436F6E6661
:10201A00696700736574757000693263526561643B
:10202A0031360076616C3D2000000000000D05E0AD
:10203A0004B504BD04D004DF04000000009A092D91
:10204A000B46096F0956098F096E616E00696E6643
:08205A00006F7666002E000005
:00000001FF
