:100000000C94C0000C94E8000C94E8000C940F04CD
:100010000C9433040C9457040C94E8000C94E800FE
:100020000C94E8000C94E8000C94E8000C94E800B0
:100030000C94E8000C94E8000C94E8000C94E800A0
:100040000C94D1050C94E8000C94D6070C94190874
:100050000C94E8000C94E8000C94E8000C94E80080
:100060000C94E8000C94E800536C6176653A2069C2
:100070006C206D696F20696E646972697A7A6F208D
:100080006527200000C201000100110011000C00D2
:1000900000E100000A002500250021000096000074
:1000A0001900390039003600127A00001F0046009E
:1000B000460044008070000022004D004D004A00C0
:1000C000004B0000360075007500720040380000DB
:1000D0004A009C009C009900802500007200EC0002
:1000E000EC00E900C0120000E900DA01DA01D701F2
:1000F00060090000D701B603B603B303B0040000E3
:10010000B3036E076E076B07580200006E07DC0E24
:10011000DC0ED80E2C010000DC0EC11DC11DBE1D61
:1001200000000007000201000003040600000000B8
:1001300000000000010204081020408001020408B1
:100140001020010204081020040404040404040420
:100150000202020202020303030303030000000081
:1001600023002600290000000000250028002B00A5
:1001700000000000240027002A005101D508580182
:1001800011241FBECFEFD8E0DEBFCDBF12E0A0E04C
:10019000B1E0EAECF5E102C005900D92A43AB10796
:1001A000D9F723E0A4EAB2E001C01D92AC3EB20749
:1001B000E1F711E0CEE7D1E004C02297FE010E94F2
:1001C000CC0ACA37D107C9F70E9437070C94D80A5E
:1001D0000C940000CF93DF936AEA71E082E493E02D
:1001E0000E94AB09C1E0D0E063E571E082E493E0F6
:1001F0000E948E094AE050E0BE0182E493E00E9432
:10020000600A62E872E082E493E00E948E0965E58C
:1002100071E082E493E00E948E092196CB30D105F3
:1002200019F766E571E082E493E00E94AB09C4EC43
:10023000D2E06991799140E150E082E493E00E943C
:10024000600A65E571E082E493E00E948E0982E035
:10025000C83DD80771F766E571E082E493E00E943B
:10026000AB096DEF71E082E493E00E94AB096DE7AA
:1002700072E082E493E00E94AB096DE772E082E4F1
:1002800093E00E94AB096DE772E082E493E00E9484
:10029000AB096DE772E082E493E0DF91CF910C94BB
:1002A000AB0920E045E066E088ED92E00C94C904DB
:1002B00088ED92E00C94CA0540E855E260E070E0F9
:1002C00082E493E00E94540860E572E082E493E0E7
:1002D0000E94AB0961E08DE00E94C80661E083E006
:1002E0000E94C80660E083E00E94010740EC52E1F2
:1002F00060E070E088ED92E00E94F90482E090E016
:100300009093C5028093C40260E070E084EF92E0B5
:100310000E949D0290E09093C7028093C60280E104
:1003200090E09093C9028093C8021092CB02109281
:10033000CA021092CD021092CC021092CF021092FB
:10034000CE021092D1021092D0021092D3021092DB
:10035000D2021092D5021092D40283E090E09093E2
:10036000D7028093D60268E670E082E493E00E94B0
:1003700069096091C6027091C70240E150E082E4D1
:1003800093E00E94680A66E571E082E493E00E94CF
:10039000AB0988ED92E00E94DB02892B49F088EDE1
:1003A00092E00E94A0029093AB028093AA02F1CF48
:1003B0000895CF93DF9381E090E09093A70280931C
:1003C000A60288ED92E00E94DB02892BD9F06AE058
:1003D00070E080E090E00E943E06C091A602D091BD
:1003E000A70288ED92E00E94A002FE01EE0FFF1F1F
:1003F000E455FD4F918380838091A6029091A702DE
:100400000196DBCF6AE070E080E090E0DF91CF9171
:100410000C943E06CF93DF9361E083E00E940107D6
:100420006AE070E080E090E00E943E06C4ECD2E01A
:100430006881229688ED92E00E949D0382E0C83D8B
:10044000D807B1F76AE070E080E090E00E943E06D5
:1004500060E083E0DF91CF910C940107CF93DF93AD
:10046000C1E0D0E088ED92E00E94DB02892B39F0F8
:100470000E94D901D093A502C093A402F3CF80912A
:10048000A4029091A502019709F054C01092A50210
:100490001092A4028091A8029091A9020196883C32
:1004A000910514F082E090E09093A9028093A80255
:1004B0008091A8029091A9029093CB028093CA02E6
:1004C00061E08DE00E9401076AE070E080E090E06A
:1004D0000E943E06C091B202D091B30260E070E08B
:1004E00084EF92E00E949D0290E0C817D90711F5B1
:1004F00066E571E082E493E00E94AB0960E672E099
:1005000082E493E00E948E096FE772E082E493E058
:100510000E94AB0981E590E09093D5028093D402CC
:100520000E940A020E94EA0060E08DE0DF91CF9114
:100530000C940107DF91CF910895CB010C94D00A60
:10054000209137033091380328173907B9F4909177
:10055000F5028091F602981789F0E091F502F0E03B
:10056000E950FD4F80812091F50230E02F5F3F4F31
:100570002F7333272093F50290E008958FEF9FEFBC
:10058000089520913703309138032817390781F4F3
:100590009091F5028091F602981751F0E091F502E2
:1005A000F0E0E950FD4F8081992787FD90950895EF
:1005B0008FEF9FEF0895209137033091380328176C
:1005C000390771F48091F6022091F50290E0805C89
:1005D0009F4F821B910960E470E00E94800A089599
:1005E00080E090E008952091370330913803281778
:1005F000390739F48FB7F8941092F6021092F50289
:100600008FBF0895DC015196ED91FC9152972081A6
:1006100050968C91809582238083089520E00197E5
:100620002FEF8F3F9207D9F708952091370330912C
:1006300038032817390789F0FC01238D2E7F238F7B
:100640002FB7F8941092F6021092F50290933803A7
:10065000809337032FBF81E0089580E00895EF92E3
:10066000FF920F931F93CF93DF93EC018B8DEE8559
:10067000FF859D8581FF04C08081892329F447C0BF
:100680008081892309F043C08B899C890E940E03D5
:1006900008E010E0EE24E394F12C8D899E890E94FD
:1006A0000E03EE85FF8580819D85892311F0FE284C
:1006B00003C08E2D8095F822EE0C01501109011512
:1006C000110559F78F89988D0E940E038B8D81FD3E
:1006D000F0948091F6022091F50290E001968F73DC
:1006E000992730E08217930779F0E091F602F0E065
:1006F000E950FD4FF0828091F60290E001968F73F1
:1007000099278093F60203C08B8D81608B8FDF91D8
:10071000CF911F910F91FF90EF900895611102C04A
:100720000C940203DC015196ED91FC9152972081CB
:1007300050968C91282B20830895DF92EF92FF92A0
:100740000F931F93CF93DF93EC01E62E898D9A8D43
:10075000892B39F481E090E09B838A8380E090E0EC
:100760004DC0DFB6F8946B8D66956170CE010E9426
:100770008E03898D9A8D05960E940E038B8D08E05D
:1007800010E0FF24F39481FF19C08F2D8E2121F0FA
:10079000CE010E94020304C061E0CE010E948E03DC
:1007A000898D9A8D0E940E03FF0C015011090115CD
:1007B000110559F7CE010E94020319C08F2D8E2119
:1007C00029F061E0CE010E948E0303C0CE010E9499
:1007D0000203898D9A8D0E940E03FF0C01501109AE
:1007E0000115110559F761E0CE010E948E03DFBEAD
:1007F000898D9A8D0E940E0381E090E0DF91CF9168
:100800001F910F91FF90EF90DF9008958091370333
:1008100090913803009711F00C942F0308951F92C4
:100820000F920FB60F9211242F933F934F935F9324
:100830006F937F938F939F93AF93BF93EF93FF93A8
:100840000E940604FF91EF91BF91AF919F918F910C
:100850007F916F915F914F913F912F910F900FBEBC
:100860000F901F9018951F920F920FB60F921124A0
:100870002F933F934F935F936F937F938F939F93A8
:10088000AF93BF93EF93FF930E940604FF91EF9104
:10089000BF91AF919F918F917F916F915F914F9198
:1008A0003F912F910F900FBE0F901F9018951F92A0
:1008B0000F920FB60F9211242F933F934F935F9394
:1008C0006F937F938F939F93AF93BF93EF93FF9318
:1008D0000E940604FF91EF91BF91AF919F918F917C
:1008E0007F916F915F914F913F912F910F900FBE2C
:1008F0000F901F9018951F93CF93DF93EC01162F45
:1009000061E0812F0E94C80661E0812F0E940107EB
:10091000812F90E0FC01EC5CFE4FE491E88BFC0140
:10092000E85BFE4FE491F0E0EE0FFF1FEA59FE4F47
:10093000859194919A8B898BDF91CF911F91089526
:100940001F93CF93DF93EC01162F60E0812F0E945D
:10095000C8068B8D81FD04C061E0812F0E940107D4
:100960001C87812F90E0FC01EC5CFE4FE491ED8749
:10097000FC01E85BFE4FE491F0E0EE0FFF1FE45A4C
:10098000FE4F859194919F878E87DF91CF911F9124
:100990000895FF920F931F93CF93DF93EC01F62EF0
:1009A000522F1B821A8208EE13E020E030E00C8305
:1009B0001D832E833F8388E892E0998388831C8A75
:1009C0001B8A1E8A1D8A188E1F8A1A8E198E8B8D7D
:1009D0008E7F50FB81F98B8F642FCE010E947B04A8
:1009E0006F2DCE01DF91CF911F910F91FF900C944D
:1009F000A0040F931F93CF93DF93EC011A8E198EEF
:100A0000188E1F8A1E8A1D8AA4E8B0E080E090E05C
:100A1000FD010591159125913491041715072607BD
:100A2000370709F031C02CE0289FF001299FF00D15
:100A30001124E857FF4F259134913C8B2B8B2CE0F0
:100A4000289FF001299FF00D1124E657FF4F2591B3
:100A500034913E8B2D8B2CE0289FF001299FF00DC7
:100A60001124E457FF4F25913491388F2F8B2CE0C0
:100A7000289FF001299FF00D1124E257FF4F859127
:100A800094919A8F898F08C001961C968D3091059C
:100A900009F0BECF1C8A1B8A8F89988D892B09F497
:100AA00043C08C858631E0F520916800883050F095
:100AB00091E08E3008F490E081E001C0880F9A95B3
:100AC000EAF701C084E0822B809368002C852830EF
:100AD00038F02E3040F0263148F0E0E0F0E008C079
:100AE000EDE6F0E005C0EBE6F0E002C0ECE6F0E099
:100AF0003081283030F481E001C0880F2A95EAF770
:100B00000DC0822F90E02E3010F4089701C00E9790
:100B100091E001C0990F8A95EAF7892F832B808392
:100B2000898D9A8D0E940E03CE01DF91CF911F9186
:100B30000F910C941503FC014485463150F5483063
:100B400028F04E3030F4EBE6F0E005C0EDE6F0E0E2
:100B500002C0ECE6F0E05081483040F481E090E0E3
:100B6000042E01C0880F0A94EAF710C0242F30E049
:100B70004E3018F42850310902C02E50310981E05E
:100B800090E0022E01C0880F0A94EAF78095852331
:100B90008083089528E832E0FC01318320830C949F
:100BA0009B051F920F920FB60F9211242F933F9324
:100BB0008F939F93AF93BF9380913A0390913B03A0
:100BC000A0913C03B0913D033091390323E0230F02
:100BD0002D3720F40196A11DB11D05C026E8230F75
:100BE0000296A11DB11D2093390380933A0390937F
:100BF0003B03A0933C03B0933D0380913E0390914F
:100C00003F03A0914003B09141030196A11DB11D86
:100C100080933E0390933F03A0934003B09341031E
:100C2000BF91AF919F918F913F912F910F900FBEE8
:100C30000F901F9018953FB7F89480913E039091C4
:100C40003F03A0914003B091410326B5A89B05C086
:100C50002F3F19F00196A11DB11D3FBF6627782FC8
:100C6000892F9A2F620F711D811D911D42E0660F21
:100C7000771F881F991F4A95D1F70895CF92DF9269
:100C8000EF92FF92CF93DF936B017C010E941B06D2
:100C9000EB01C114D104E104F10479F00E941B06B8
:100CA0006C1B7D0B683E7340A0F381E0C81AD1082D
:100CB000E108F108C851DC4FECCFDF91CF91FF90F4
:100CC000EF90DF90CF900895789484B5826084BDD2
:100CD00084B5816084BD85B5826085BD85B5816040
:100CE00085BDEEE6F0E0808181608083E1E8F0E0A0
:100CF0001082808182608083808181608083E0E8CF
:100D0000F0E0808181608083E1EBF0E080818460AD
:100D10008083E0EBF0E0808181608083EAE7F0E0AF
:100D20008081846080838081826080838081816013
:100D300080838081806880831092C1000895833011
:100D400081F028F4813099F08230A1F00895863046
:100D5000A9F08730B9F08430D1F4809180008F7D84
:100D600003C0809180008F7780938000089584B5C0
:100D70008F7702C084B58F7D84BD08958091B000C7
:100D80008F7703C08091B0008F7D8093B00008956D
:100D9000CF93DF9390E0FC01EC5CFE4F2491FC01CB
:100DA000E85BFE4F8491882349F190E0880F991FFA
:100DB000FC01E059FE4FA591B4918A599E4FFC0168
:100DC000C591D4919FB7611108C0F8948C9120957A
:100DD00082238C93888182230AC0623051F4F89474
:100DE0008C91322F309583238C938881822B88833A
:100DF00004C0F8948C91822B8C939FBFDF91CF918C
:100E000008950F931F93CF93DF931F92CDB7DEB753
:100E1000282F30E0F901E05EFE4F8491F901EC5C8F
:100E2000FE4F1491F901E85BFE4F04910023C9F0D5
:100E3000882321F069830E949F066981E02FF0E0FA
:100E4000EE0FFF1FEA59FE4FA591B4919FB7F8949A
:100E50008C91611103C01095812301C0812B8C936B
:100E60009FBF0F90DF91CF911F910F9108950E9426
:100E700064060E945C01C0E1D8E00E942E02209727
:100E8000E1F30E941008F9CFFC0124853585F901B2
:100E9000E05CFF4F80819181329620813181821BFD
:100EA000930B8F7399270895FC0184859585FC0128
:100EB000E05CFF4F408151813296208131814217A1
:100EC000530741F00190F081E02DE80FF91F808178
:100ED00090E008958FEF9FEF0895FC01848595853C
:100EE000FC01E05CFF4F40815181329620813181CD
:100EF0004217530779F0A081B181A80FB91F8C91D7
:100F0000208131812F5F3F4F2F733327318320831F
:100F100090E008958FEF9FEF0895FC0181A1882351
:100F200029F0A489B5898C9186FFFBCF11A2089581
:100F3000CF93DF93FC0126853785D901A05CBF4F95
:100F40008D919C91119701968F739927E901CE5B42
:100F5000DF4F4881598184179507D9F30D90BC91D3
:100F6000A02DA20FB31F6C93A685B785A05CBF4FC1
:100F700011969C938E93A689B7892C9181E090E07D
:100F8000078C02C0880F991F0A94E2F7282B2C9334
:100F900081E081A30488F589E02D808180648083CD
:100FA00081E090E0DF91CF91089508951F920F9214
:100FB0000FB60F9211242F933F934F938F939F93CC
:100FC000EF93FF938091C00082FD1CC04091C6004A
:100FD0008091E8039091E90301968F7399272091FE
:100FE000EA033091EB038217930771F0E091E80375
:100FF000F091E903E855FC4F40839093E903809317
:10100000E80302C08091C600FF91EF919F918F91FC
:101010004F913F912F910F900FBE0F901F901895F9
:1010200082E493E00E944407892B11F00C94D507C9
:1010300008951F920F920FB60F9211242F933F9392
:101040008F939F93EF93FF932091A4033091A50377
:101050008091A6039091A7032817390731F4809156
:10106000C1008F7D8093C10014C0E091A603F09170
:10107000A703EC59FC4F20818091A6039091A70310
:1010800001968F7399279093A7038093A6032093CB
:10109000C600FF91EF919F918F913F912F910F90FB
:1010A0000FBE0F901F901895CF92DF92EF92FF9294
:1010B000CF93DF93EC016A017B01411581EE580764
:1010C00061057105F9F0EC89FD8981E090E008A0E7
:1010D00002C0880F991F0A94E2F7808360E079E0EC
:1010E0008DE390E0A70196010E94940A21503109F6
:1010F000410951095695479537952795211580E166
:10110000380798F0EC89FD89108260E874E88EE178
:1011100090E0A70196010E94940A215031094109EB
:1011200051095695479537952795E889F989308370
:10113000EA89FB89208319A2EE89FF89408181E039
:1011400090E09C010C8C02C0220F331F0A94E2F73E
:10115000422B4083EE89FF8940819C010D8C02C0A7
:10116000220F331F0A94E2F7422B4083EE89FF8956
:1011700040819C010E8C02C0220F331F0A94E2F7BB
:10118000422B4083EE89FF8920810F8C02C0880F9B
:10119000991F0A94E2F7809582238083DF91CF9193
:1011A000FF90EF90DF90CF9008951092450310923A
:1011B000440388EE93E0A0E0B0E080934603909370
:1011C0004703A0934803B093490388E992E09093C2
:1011D00043038093420388EA93E090934F03809304
:1011E0004E0384E693E0909351038093500385EC83
:1011F00090E0909353038093520384EC90E090939B
:1012000055038093540380EC90E0909357038093B0
:10121000560381EC90E0909359038093580382EC3D
:1012200090E090935B0380935A0386EC90E0909358
:101230005D0380935C0384E080935E0383E080938E
:101240005F0387E08093600385E08093610381E022
:10125000809362030895CF92DF92EF92FF920F93F3
:101260001F93CF93DF936C017A01EB01E60EF71E1B
:1012700000E010E0CE15DF0561F06991D601ED9137
:10128000FC910190F081E02DC6010995080F191F0E
:10129000F1CFC801DF91CF911F910F91FF90EF9097
:1012A000DF90CF9008956115710581F0DB010D90FD
:1012B0000020E9F7AD0141505109461B570BDC01F5
:1012C000ED91FC910280F381E02D099480E090E0A3
:1012D0000895EF92FF920F931F93CF93DF938C01AA
:1012E000FB01C0E0D0E064917F018FEFE81AF80ABB
:1012F000662361F0D801ED91FC910190F081E02D21
:10130000C8010995C80FD91FF701EDCFCE01DF91B4
:10131000CF911F910F91FF90EF9008950C94530976
:10132000DC01ED91FC910190F081E02D09940F9387
:101330001F93CF93DF93EC016DE00E9490098C0125
:101340006AE0CE010E949009800F911FDF91CF913A
:101350001F910F9108950F931F93CF93DF93EC018B
:101360000E9453098C01CE010E949709800F911FA2
:10137000DF91CF911F910F9108958F929F92AF921D
:10138000BF92CF92DF92EF92FF920F931F93CF9372
:10139000DF93CDB7DEB7A1970FB6F894DEBF0FBECF
:1013A000CDBF7C01C42EE52FCB01D22E19A221E0A6
:1013B0002D1510F02AE0D22E8E010F5D1F4F8D2CBF
:1013C000912CA12CB12C6C2D7E2FA50194010E9493
:1013D000940A8C2DD29E80191124015011098A3053
:1013E00014F4805D01C0895CF8018083211531050A
:1013F0004105510521F0C22EE32FCA01E4CFB80107
:10140000C7010E945309A1960FB6F894DEBF0FBE24
:10141000CDBFDF91CF911F910F91FF90EF90DF90A3
:10142000CF90BF90AF909F908F900895CF92DF9212
:10143000EF92FF920F931F93CF93DF93EC016A011A
:101440007B012115310579F4E881F9810190F08162
:10145000E02D642FDF91CF911F910F91FF90EF90BE
:10146000DF90CF9009942A303105E9F477FF1AC054
:101470006DE20E9490098C0144275527BA014C194E
:101480005D096E097F092AE0CE010E94BD09800F27
:10149000911FDF91CF911F910F91FF90EF90DF90FF
:1014A000CF9008952AE0B701A601CE01DF91CF9138
:1014B0001F910F91FF90EF90DF90CF900C94BD099A
:1014C0009A01AB01662757FD6095762F0C94160A9A
:1014D0000F931F93CF93DF93EC019A01AB01662723
:1014E00057FD6095762F0E94160A8C01CE010E944E
:1014F0009709800F911FDF91CF911F910F91089550
:1015000097FB072E16F4009407D077FD09D00E94B0
:10151000B60A07FC05D03EF4909581959F4F08953B
:10152000709561957F4F0895A1E21A2EAA1BBB1BEF
:10153000FD010DC0AA1FBB1FEE1FFF1FA217B3079F
:10154000E407F50720F0A21BB30BE40BF50B661FB5
:10155000771F881F991F1A9469F760957095809579
:1015600090959B01AC01BD01CF010895AA1BBB1B47
:1015700051E107C0AA1FBB1FA617B70710F0A61B93
:10158000B70B881F991F5A95A9F780959095BC01B4
:10159000CD010895EE0FFF1F0590F491E02D099401
:1015A000F999FECF92BD81BDF89A992780B508952B
:1015B00011E0CEE7D1E004C0FE010E94CC0A2296E1
:0A15C000C038D107C9F7F894FFCF37
:1015CA00526963657675746F2064616C206D61730E
:1015DA0074657220692073656775656E7469206425
:1015EA00617469203A202D2D2D2D2D2D2D2D2D2D77
:1015FA002D2D2D2D2D2D2D2D2D2D2D2D2D2D2D2D11
:10160A002D2D2D2D2D2D2D2D2D2D2D2D2D2D2D2D00
:10161A002D2D005B0009002D2D2D2D2D2D2D2D2D6D
:10162A002D2D2D2D2D2D2D2D2D2D2D2D2D2D2D2DE0
:10163A002D2D2D2D2D2D2D2D2D2D2D2D2D2D2D2DD0
:10164A002D2D2D2D2D2D2D2D2D2D2D2D2D2D2D2DC0
:10165A002D2D2D2D2D66696E6520646174692064B7
:10166A00616C206D617374657200696E766961746C
:10167A006F20616C206D6173746572202D3E20208D
:10168A00202D2D2D2D2D2D2D2D2D2D2D2D2D2D2D8D
:10169A002D2D2D2D2D2D2D2D2D2D2D2D2D2D2D2D70
:1016AA002D2D2D2D2D2D2D2D2D2D2D2D2D2D2D2D60
:1016BA002D696E697A696F2064617469002D2D2D18
:1016CA002D2D2D2D2D2D2D2D2D2D2D2D2D2D2D2D40
:1016DA002D2D2D2D2D2D2D2D2D2D2D2D2D2D2D2D30
:1016EA002D2D2D2D2D2D2D2D2D2D2D2D2D2D2D2D20
:1016FA002D2D2D2D2D2D2D2D2D2D2D2D2D2D2D2D10
:10170A002D2D2D2D2D2D66696E652064617469005D
:10171A00536C617665206162696C697461746F00EB
:10172A004556564956412120496C20636F6D616EBA
:10173A00646F20652720706572206D652120005B2B
:10174A0053315D00000000009D032B09DB02A0025B
:10175A00C102F3020000000098072B0944076D0735
:04176A0054078D078C
:00000001FF
