:100000000C9462000C948A000C948A000C948A0070
:100010000C948A000C948A000C948A000C948A0038
:100020000C948A000C948A000C948A000C948A0028
:100030000C948A000C948A000C948A000C948A0018
:100040000C946B030C948A000C94DB030C94B503A2
:100050000C948A000C948A000C948A000C948A00F8
:100060000C948A000C948A000000000024002700F1
:100070002A0000000000250028002B0000000000DE
:1000800023002600290004040404040404040202DA
:100090000202020203030303030301020408102007
:1000A0004080010204081020010204081020000012
:1000B0000008000201000003040700000000000027
:1000C0000000AC0611241FBECFEFD8E0DEBFCDBFCD
:1000D00011E0A0E0B1E0E0E1FEE002C005900D9289
:1000E000A433B107D9F721E0A4E3B1E001C01D9228
:1000F000A83EB207E1F710E0C2E6D0E004C02197C5
:10010000FE010E94FB06C136D107C9F70E940D040B
:100110000C9406070C940000833081F028F48130A1
:1001200099F08230A1F008958730A9F08830B9F0B5
:100130008430D1F4809180008F7D03C08091800055
:100140008F7780938000089584B58F7702C084B53F
:100150008F7D84BD08958091B0008F7703C080911A
:10016000B0008F7D8093B0000895CF93DF93282F48
:1001700030E0F901E255FF4F8491F901E656FF4F57
:10018000D491F901EA57FF4FC491CC2391F081112A
:100190000E948C00EC2FF0E0EE0FFF1FE458FF4FA1
:1001A000A591B491EC91ED2381E090E021F480E001
:1001B00002C080E090E0DF91CF9108951F93CF932C
:1001C000DF93282F30E0F901E255FF4F8491F901C8
:1001D000E656FF4FD491F901EA57FF4FC491CC2363
:1001E000C9F0162F81110E948C00EC2FF0E0EE0F69
:1001F000FF1FEE58FF4FA591B4918FB7F8941111DE
:1002000005C09C91ED2FE095E92302C0EC91ED2B08
:10021000EC938FBFDF91CF911F910895CF93DF9320
:1002200090E0FC01E656FF4F2491FC01EA57FF4F96
:100230008491882361F190E0880F991FFC01E859AF
:10024000FF4FC591D491FC01EE58FF4FA591B49199
:10025000611109C09FB7F894888120958223888313
:10026000EC912E230BC0623061F49FB7F894388173
:10027000822F809583238883EC912E2B2C939FBF14
:1002800006C08FB7F894E8812E2B28838FBFDF91AB
:10029000CF9108951F93CF93DF93182FEB0161E067
:1002A0000E940E01209711F460E004C0CF3FD105F9
:1002B00039F461E0812FDF91CF911F910C94DE0022
:1002C000E12FF0E0E255FF4FE491E330F9F048F41C
:1002D000E130B9F0E230A1F584B5806284BDC8BDDB
:1002E00034C0E730E9F0E83019F1E43049F58091A5
:1002F0008000806280938000D0938B00C0938A003E
:1003000024C084B5806884BDC7BD1FC080918000B3
:10031000806880938000D0938900C093880015C0C6
:100320008091B00080688093B000C093B3000DC08E
:100330008091B00080628093B000C093B40005C08B
:10034000C038D1050CF0B5CFAFCFDF91CF911F9161
:1003500008953FB7F8948091470190914801A0918A
:100360004901B0914A0126B5A89B05C02F3F19F05D
:100370000196A11DB11D3FBFBA2FA92F982F882725
:10038000820F911DA11DB11DBC01CD0142E0660F80
:10039000771F881F991F4A95D1F708958F929F92D2
:1003A000AF92BF92CF92DF92EF92FF926B017C01EE
:1003B0000E94A9014B015C01C114D104E104F104C4
:1003C000F1F00E94A901DC01CB0188199909AA0961
:1003D000BB09883E9340A105B10570F321E0C21A24
:1003E000D108E108F10888EE880E83E0981EA11C70
:1003F000B11CC114D104E104F10419F7DDCFFF9061
:10040000EF90DF90CF90BF90AF909F908F90089526
:10041000CF92DF92EF92FF920F931F93CF93DF93D0
:100420006C017A018B01C0E0D0E0CE15DF0589F0C8
:10043000D8016D918D01D601ED91FC910190F08173
:10044000E02DC6010995892B11F47E0102C0219689
:10045000ECCFC701DF91CF911F910F91FF90EF90EB
:10046000DF90CF900895089580E090E00895FC011A
:10047000538D448D252F30E0842F90E0821B930B09
:10048000541710F0CF96089501970895FC01918DAF
:10049000828D981761F0828DDF01A80FB11D5D96E6
:1004A0008C91928D9F5F9F73928F90E008958FEF54
:1004B0009FEF0895FC01918D828D981731F0828D08
:1004C000E80FF11D858D90E008958FEF9FEF08955F
:1004D000FC01918D228D892F90E0805C9F4F821BC3
:1004E00091098F73992708958BE491E00E94680227
:1004F00021E0892B09F420E0822F0895FC01848DEE
:10050000DF01A80FB11DA35ABF4F2C91848D90E03D
:1005100001968F739927848FA689B7892C93A08918
:10052000B1898C9180648C93938D848D981306C0CF
:100530000288F389E02D80818F7D80830895EF927A
:10054000FF920F931F93CF93DF93EC0181E0888F8D
:100550009B8D8C8D981305C0E889F989808185FD74
:1005600024C0F62E0B8D10E00F5F1F4F0F73112765
:10057000E02E8C8DE8120CC00FB607FCFACFE8898C
:10058000F989808185FFF5CFCE010E947E02F1CFEF
:100590008B8DFE01E80FF11DE35AFF4FF0820B8FA8
:1005A000EA89FB898081806207C0EE89FF896083C8
:1005B000E889F98980818064808381E090E0DF911F
:1005C000CF911F910F91FF90EF900895CF93DF93FC
:1005D000EC01888D8823C9F0EA89FB89808185FD3B
:1005E00005C0A889B9898C9186FD0FC00FB607FC9C
:1005F000F5CF808185FFF2CFA889B9898C9185FFDD
:10060000EDCFCE010E947E02E7CFDF91CF9108951A
:1006100080E090E0892B29F00E94740281110C94F3
:1006200000000895009769F0FC0101900020E9F7AF
:100630003197AF01481B590BBC018BE491E00C943E
:10064000080280E090E00895CF92DF92EF92FF924F
:100650000F931F93CF93DF93CDB7DEB7A1970FB65C
:10066000F894DEBF0FBECDBF282F30E040E050E051
:1006700019A28E010F5D1F4F8AE0C82ED12CE12CEC
:10068000F12CCA01B901A70196010E94D906605D4B
:10069000F80162938F01211531054105510589F754
:1006A000CF010E9412038C0182E191E00E941203AB
:1006B000800F911FA1960FB6F894DEBF0FBECDBF7D
:1006C000DF91CF911F910F91FF90EF90DF90CF902E
:1006D00008950E9401071F920F920FB60F921124E6
:1006E0002F933F938F939F93AF93BF938091430139
:1006F00090914401A0914501B09146013091420191
:1007000023E0230F2D3720F40196A11DB11D05C054
:1007100026E8230F0296A11DB11D2093420180936C
:10072000430190934401A0934501B0934601809109
:10073000470190914801A0914901B0914A01019669
:10074000A11DB11D8093470190934801A0934901D9
:10075000B0934A01BF91AF919F918F913F912F919B
:100760000F900FBE0F901F9018951F920F920FB60B
:100770000F9211242F933F934F935F936F937F9327
:100780008F939F93AF93BF93EF93FF938BE491E08D
:100790000E947E02FF91EF91BF91AF919F918F9147
:1007A0007F916F915F914F913F912F910F900FBE6D
:1007B0000F901F9018951F920F920FB60F92112451
:1007C0002F938F939F93EF93FF93E0915B01F091B1
:1007D0005C018081E0916101F091620182FD12C0B3
:1007E0009081809164018F5F8F73209165018217E2
:1007F00051F0E0916401F0E0E55BFE4F958F80934E
:10080000640101C08081FF91EF919F918F912F91A1
:100810000F900FBE0F901F901895789484B582604A
:1008200084BD84B5816084BD85B5826085BD85B594
:10083000816085BD80916E00816080936E00109212
:10084000810080918100826080938100809181008D
:10085000816080938100809180008160809380001E
:100860008091B10084608093B1008091B00081607C
:100870008093B00080917A00846080937A008091A8
:100880007A00826080937A0080917A008160809300
:100890007A0080917A00806880937A001092C1007B
:1008A00061E08DE00E940E0161E089E00E940E018E
:1008B00061E08AE00E940E0161E083E00E940E0187
:1008C00061E084E00E940E0161E085E00E940E017B
:1008D00061E086E00E940E0161E08BE00E940E0163
:1008E00060E087E00E940E0160E088E00E940E0157
:1008F00060E083E10E940E01E0915B01F0915C01F8
:1009000082E08083E0915701F09158011082E091DC
:100910005901F0915A018FEC808310926301E091AC
:100920005F01F091600186E08083E0915D01F091CC
:100930005E01808180618083E0915D01F0915E01C4
:10094000808188608083E0915D01F0915E0180810B
:1009500080688083E0915D01F0915E0180818F7DF0
:10096000808332E0E32EF12C01E010E045E4D42E48
:100970005FE7C52E87E00E94B5005C0190934101BE
:100980008093400188E00E94B500EC0190933F0104
:1009900080933E0181E0A816B10409F08FC08091D8
:1009A0003C0190913D018D7F892B09F008C161E0E8
:1009B0008BE00E94DE00C130D10521F461E085E0CA
:1009C0000E94DE006CE271E080E090E00E94CE01C7
:1009D00060E08BE00E94DE00C130D10521F460E0D0
:1009E00085E00E94DE006CE271E080E090E00E9411
:1009F000CE0161E08BE00E94DE00C130D10521F420
:100A000061E085E00E94DE006CE271E080E090E051
:100A10000E94CE0160E08BE00E94DE00C130D10573
:100A200021F460E085E00E94DE006CE271E080E08D
:100A300090E00E94CE0161E08BE00E94DE00C130B8
:100A4000D10521F461E085E00E94DE006CE271E0F6
:100A500080E090E00E94CE0160E08BE00E94DE002A
:100A6000C130D10521F460E085E00E94DE006CE237
:100A700071E080E090E00E94CE0161E08BE00E9496
:100A8000DE00C130D10521F461E085E00E94DE0086
:100A90006CE271E080E090E00E94CE0160E08BE0CB
:100AA0000E94DE00C130D10521F460E085E00E94A3
:100AB000DE0010933D0100933C016FC0A114B1040E
:100AC00009F07DC080913C0190913D01029708F0B2
:100AD00076C061E08BE00E94DE00C130D10521F4D8
:100AE00061E085E00E94DE0068EE73E080E090E067
:100AF0000E94CE0160E08BE00E94DE00C130D10593
:100B000021F460E085E00E94DE006CE271E080E0AC
:100B100090E00E94CE0161E08BE00E94DE00C130D7
:100B2000D10521F461E085E00E94DE006CE271E015
:100B300080E090E00E94CE0160E08BE00E94DE0049
:100B4000C130D10521F460E085E00E94DE006CE256
:100B500071E080E090E00E94CE0161E08BE00E94B5
:100B6000DE00C130D10521F461E085E00E94DE00A5
:100B700068EE73E080E090E00E94CE0160E08BE0E0
:100B80000E94DE00C130D10521F460E085E00E94C2
:100B9000DE00F0923D01E0923C0160E070E089E00F
:100BA0000E944A0160E070E08AE00E944A011092CF
:100BB0003B0110923A011092390110923801C13074
:100BC000D10501F561E08DE00E94DE0064E670E091
:100BD00080E090E00E94CE0160E08DE00E94DE00A7
:100BE00064E670E080E090E00E94CE0160913A01FE
:100BF00083E00E94DE006091380184E00E94DE0004
:100C00006A2D0BC0CD2B61F460E083E00E94DE0012
:100C100060E084E00E94DE0060E086E00E94DE008A
:100C2000C0913C01D0913D01C130D10559F5809171
:100C3000360190913701009771F460E070E089E02F
:100C40000E944A01D0933701C0933601D0933B01F3
:100C5000C0933A0110C0019771F46091350170E0C2
:100C600089E00E944A0110923701109236011092D9
:100C70003B0110923A0164EF71E080E090E00E9445
:100C8000CE0127C0229729F5809136019091370136
:100C9000009771F460E070E08AE00E944A011093CE
:100CA0003701009336011093390100933801E3CFE7
:100CB000019709F76091350170E08AE00E944A01CE
:100CC00010923701109236011092390110923801BA
:100CD000D2CFD0927C0080917A00806480937A0099
:100CE00080917A0086FDFCCF809178002091790078
:100CF00090E0922B97FD039695958795959587950E
:100D00008093350185E191E00E94120380913501C5
:100D10000E9424038091350187FDC09235018091A6
:100D200035018A3018F48AE08093350180913501CD
:100D3000880F8093340184E291E00E941203809135
:100D400034010E94240384E191E00E94120382E1B5
:100D500091E00E9412030ECEEBE4F1E013821282C6
:100D600088EE93E0A0E0B0E084839583A683B78308
:100D700084E091E09183808385EC90E0958784877F
:100D800084EC90E09787868780EC90E0918B808B55
:100D900081EC90E0938B828B82EC90E0958B848B3E
:100DA00086EC90E0978B868B118E128E138E148EAC
:100DB0000895A1E21A2EAA1BBB1BFD010DC0AA1F9C
:100DC000BB1FEE1FFF1FA217B307E407F50720F0B4
:100DD000A21BB30BE40BF50B661F771F881F991F2F
:100DE0001A9469F760957095809590959B01AC0178
:100DF000BD01CF010895EE0FFF1F0590F491E02D86
:100E0000099481E090E0F8940C940607F894FFCFE1
:100E1000000000009F0208023702E6026802460254
:100E20005A020D0A0076616C6F72652020204C44D6
:100E3000523A200072656D6170706564204C4452B6
:040E40003A20000054
:00000001FF
