:100000000C94C9000C94F1000C94F1000C9482043F
:100010000C94A6040C94CA040C94F1000C94F10006
:100020000C94F1000C94F1000C94F1000C94F1008C
:100030000C94F1000C94F1000C94F1000C94F1007C
:100040000C9444060C94F1000C9472080C94B508BE
:100050000C94F1000C94F1000C94F1000C94F1005C
:100060000C94F1000C94F100506172746520696C7D
:10007000206D6F6E69746F722073756C204D6173A3
:100080007465723A206C27696E646972697A7A6F56
:100090002065273A200000C2010001001100110074
:1000A0000C0000E100000A00250025002100009658
:1000B00000001900390039003600127A00001F00D4
:1000C0004600460044008070000022004D004D00B4
:1000D0004A00004B00003600750075007200403881
:1000E00000004A009C009C009900802500007200DE
:1000F000EC00EC00E900C0120000E900DA01DA01CE
:10010000D70160090000D701B603B603B303B004FA
:100110000000B3036E076E076B07580200006E07FE
:10012000DC0EDC0ED80E2C010000DC0EC11DC11D42
:10013000BE1D0000000700020100000304060000CD
:1001400000000000000001020408102040800102AD
:10015000040810200102040810200404040404040C
:100160000404020202020202030303030303000069
:1001700000002300260029000000000025002800C0
:100180002B0000000000240027002A009D017109B7
:10019000A40111241FBECFEFD8E0DEBFCDBF12E017
:1001A000A0E0B1E0EAE1F7E102C005900D92A837C6
:1001B000B107D9F723E0A8E7B2E001C01D92AC3B3C
:1001C000B207E1F711E0C0E9D1E004C02297FE01D7
:1001D0000E94740BCC38D107C9F70E94D3070C9446
:1001E000800B0C940000CF93DF9360E071E082E11C
:1001F00093E00E94470AC1E0D0E063E571E082E14C
:1002000093E00E942A0A4AE050E0BE0182E193E0B6
:100210000E94FC0A65E571E082E193E00E942A0AEF
:1002200067E571E082E193E00E942A0A2196CB30D3
:10023000D10519F768E571E082E193E00E94470A71
:10024000C4E9D2E06991799140E150E082E193E024
:100250000E94FC0A67E571E082E193E00E942A0AAD
:1002600082E0C83AD80771F768E571E082E193E06F
:100270000E94470A69E571E082E193E00E94470A23
:1002800065E572E082E193E0DF91CF910C94470A3B
:10029000CF93DF936CEA71E082E193E00E94470A1A
:1002A000C1E0D0E063E571E082E193E00E942A0AB8
:1002B0004AE050E0BE0182E193E00E94FC0A65E55D
:1002C00071E082E193E00E942A0A67E571E082E131
:1002D00093E00E942A0A2196CB30D10519F768E5F0
:1002E00071E082E193E00E94470ACEE7D2E0699193
:1002F000799140E150E082E193E00E94FC0A67E5D9
:1003000071E082E193E00E942A0A82E0C239D807B4
:1003100071F768E571E082E193E00E94470A60E0CE
:1003200072E082E193E00E94470A65E572E082E1B3
:1003300093E0DF91CF910C94470A20E045E066E01E
:1003400088EA92E00C943C0588EA92E00C943D0621
:1003500082E090E0909395028093940280E190E097
:1003600090939702809396021092990210929802AD
:1003700010929B0210929A0210929D0210929C027F
:1003800010929F0210929E021092A1021092A0025F
:100390001092A3021092A2021092A5021092A4023F
:1003A00083E090E09093A7028093A60240E855E294
:1003B00060E070E082E193E00E94F00861E08DE08F
:1003C0000E943B0761E083E00E943B0760E08CE015
:1003D0000E943B0760E08BE00E943B0760E083E007
:1003E0000E94740740EC52E160E070E088EA92E01D
:1003F0000E946C0568E670E082E193E00E94050AC5
:1004000060E070E084EC92E00E9410034AE050E06B
:10041000682F82E193E00E94110B68E571E082E1B0
:1004200093E00E94470A88EA92E00E944E03892BDB
:1004300049F088EA92E00E94130390937902809336
:100440007802F1CF0895CF93DF9381E090E090930D
:100450007B0280937A0288EA92E00E944E03892B05
:10046000D9F06AE070E080E090E00E94B106C091AF
:100470007A02D0917B0288EA92E00E941303FE0187
:10048000EE0FFF1FE458FD4F9183808380917A0225
:1004900090917B020196DBCF6AE070E080E090E013
:1004A000DF91CF910C94B106CF93DF9361E083E0AD
:1004B0000E9474076AE070E080E090E00E94B1065C
:1004C000C4E9D2E06881229688EA92E00E94100492
:1004D00082E0C83AD807B1F76AE070E080E090E0C7
:1004E0000E94B10660E083E0DF91CF910C94740725
:1004F0008F929F92AF92BF92CF92DF92EF92FF9234
:100500000F931F93CF93DF93C1E1D0E001E010E0A0
:1005100035E6E32EF12C42E1C42ED12C52E0A52E7B
:10052000B12C66E6862E912C8CE00E94AA07892BBE
:1005300031F18BE00E94AA07892B09F188EA92E049
:100540000E944E03181619060CF05DC00E9423028B
:100550000E94480161E08DE00E9474076AE070E04B
:1005600080E090E00E94B10660E08DE00E94740798
:100570006AE070E080E090E00E94B106DFCF8CE09E
:100580000E94AA07892B61F4D0939902C093980224
:1005900010939B0200939A02F0929F02E0929E02B7
:1005A0008BE00E94AA07892B61F4D0929902C09235
:1005B0009802B0929B02A0929A0290929F0280921F
:1005C0009E028CE00E94AA07892B29F08BE00E94F2
:1005D000AA07892B39F461E070E080E090E00E9486
:1005E000B106EFCF0E9454020E94F30060ED77E065
:1005F00080E090E00E94B10663E572E082E193E062
:100600000E94470A91CFDF91CF911F910F91FF90E8
:10061000EF90DF90CF90BF90AF909F908F90089514
:10062000CB010C94780B2091070330910803281715
:100630003907B9F49091C5028091C602981789F0E4
:10064000E091C502F0E0E953FD4F80812091C502A1
:1006500030E02F5F3F4F2F7333272093C50290E088
:1006600008958FEF9FEF08952091070330910803BD
:100670002817390781F49091C5028091C602981716
:1006800051F0E091C502F0E0E953FD4F80819927D8
:1006900087FD909508958FEF9FEF089520910703B0
:1006A000309108032817390771F48091C602209110
:1006B000C50290E0805C9F4F821B910960E470E06E
:1006C0000E94280B089580E090E008952091070390
:1006D000309108032817390739F48FB7F89410922E
:1006E000C6021092C5028FBF0895DC015196ED91AC
:1006F000FC915297208150968C9180958223808323
:10070000089520E001972FEF8F3F9207D9F70895C2
:1007100020910703309108032817390789F0FC015D
:10072000238D2E7F238F2FB7F8941092C60210923C
:10073000C50290930803809307032FBF81E00895BB
:1007400080E00895EF92FF920F931F93CF93DF9372
:10075000EC018B8DEE85FF859D8581FF04C0808136
:10076000892329F447C08081892309F043C08B89FC
:100770009C890E94810308E010E0EE24E394F12CB0
:100780008D899E890E948103EE85FF8580819D85EC
:10079000892311F0FE2803C08E2D8095F822EE0CDF
:1007A000015011090115110559F78F89988D0E9483
:1007B00081038B8D81FDF0948091C6022091C5024A
:1007C00090E001968F73992730E08217930779F0B4
:1007D000E091C602F0E0E953FD4FF0828091C6023D
:1007E00090E001968F7399278093C60203C08B8D8A
:1007F00081608B8FDF91CF911F910F91FF90EF90D0
:100800000895611102C00C947503DC015196ED91BD
:10081000FC915297208150968C91282B208308952B
:10082000DF92EF92FF920F931F93CF93DF93EC0130
:10083000E62E898D9A8D892B39F481E090E09B8397
:100840008A8380E090E04DC0DFB6F8946B8D6695AA
:100850006170CE010E940104898D9A8D05960E94D7
:1008600081038B8D08E010E0FF24F39481FF19C011
:100870008F2D8E2121F0CE010E94750304C061E00E
:10088000CE010E940104898D9A8D0E948103FF0C84
:10089000015011090115110559F7CE010E94750388
:1008A00019C08F2D8E2129F061E0CE010E94010434
:1008B00003C0CE010E947503898D9A8D0E94810329
:1008C000FF0C015011090115110559F761E0CE0126
:1008D0000E940104DFBE898D9A8D0E94810381E010
:1008E00090E0DF91CF911F910F91FF90EF90DF90FB
:1008F00008958091070390910803009711F00C94DC
:10090000A20308951F920F920FB60F9211242F93F6
:100910003F934F935F936F937F938F939F93AF9387
:10092000BF93EF93FF930E947904FF91EF91BF91E2
:10093000AF919F918F917F916F915F914F913F9177
:100940002F910F900FBE0F901F9018951F920F922E
:100950000FB60F9211242F933F934F935F936F9392
:100960007F938F939F93AF93BF93EF93FF930E94D7
:100970007904FF91EF91BF91AF919F918F917F91FA
:100980006F915F914F913F912F910F900FBE0F90FC
:100990001F9018951F920F920FB60F9211242F934C
:1009A0003F934F935F936F937F938F939F93AF93F7
:1009B000BF93EF93FF930E947904FF91EF91BF9152
:1009C000AF919F918F917F916F915F914F913F91E7
:1009D0002F910F900FBE0F901F9018951F93CF93DC
:1009E000DF93EC01162F61E0812F0E943B0761E04D
:1009F000812F0E947407812F90E0FC01EA5BFE4F7B
:100A0000E491E88BFC01E65AFE4FE491F0E0EE0F32
:100A1000FF1FE858FE4F859194919A8B898BDF9147
:100A2000CF911F9108951F93CF93DF93EC01162F61
:100A300060E0812F0E943B078B8D81FD04C061E047
:100A4000812F0E9474071C87812F90E0FC01EA5BD4
:100A5000FE4FE491ED87FC01E65AFE4FE491F0E091
:100A6000EE0FFF1FE259FE4F859194919F878E876D
:100A7000DF91CF911F910895FF920F931F93CF9312
:100A8000DF93EC01F62E522F1B821A8208EE13E040
:100A900020E030E00C831D832E833F838BE592E0C2
:100AA000998388831C8A1B8A1E8A1D8A188E1F8A36
:100AB0001A8E198E8B8D8E7F50FB81F98B8F642F50
:100AC000CE010E94EE046F2DCE01DF91CF911F91D8
:100AD0000F91FF900C9413050F931F93CF93DF9307
:100AE000EC011A8E198E188E1F8A1E8A1D8AA6E99D
:100AF000B0E080E090E0FD010591159125913491E1
:100B0000041715072607370709F031C02CE0289F86
:100B1000F001299FF00D1124E656FF4F25913491E5
:100B20003C8B2B8B2CE0289FF001299FF00D11248A
:100B3000E456FF4F259134913E8B2D8B2CE0289F5E
:100B4000F001299FF00D1124E256FF4F25913491B9
:100B5000388F2F8B2CE0289FF001299FF00D112456
:100B6000E056FF4F859194919A8F898F08C0019626
:100B70001C968D30910509F0BECF1C8A1B8A8F8987
:100B8000988D892B09F443C08C858631E0F520913E
:100B90006800883050F091E08E3008F490E081E0F9
:100BA00001C0880F9A95EAF701C084E0822B8093F8
:100BB00068002C85283038F02E3040F0263148F07F
:100BC000E0E0F0E008C0EDE6F0E005C0EBE6F0E0C4
:100BD00002C0ECE6F0E03081283030F481E001C062
:100BE000880F2A95EAF70DC0822F90E02E3010F47E
:100BF000089701C00E9791E001C0990F8A95EAF716
:100C0000892F832B8083898D9A8D0E948103CE0149
:100C1000DF91CF911F910F910C948803FC014485C3
:100C2000463150F5483028F04E3030F4EBE6F0E035
:100C300005C0EDE6F0E002C0ECE6F0E0508148309F
:100C400040F481E090E0042E01C0880F0A94EAF796
:100C500010C0242F30E04E3018F42850310902C063
:100C60002E50310981E090E0022E01C0880F0A94D5
:100C7000EAF780958523808308952BE532E0FC0117
:100C8000318320830C940E061F920F920FB60F92A1
:100C900011242F933F938F939F93AF93BF93809192
:100CA0000A0390910B03A0910C03B0910D033091B6
:100CB000090323E0230F2D3720F40196A11DB11D58
:100CC00005C026E8230F0296A11DB11D209309033C
:100CD00080930A0390930B03A0930C03B0930D032E
:100CE00080910E0390910F03A0911003B091110316
:100CF0000196A11DB11D80930E0390930F03A09345
:100D00001003B0931103BF91AF919F918F913F91C9
:100D10002F910F900FBE0F901F9018953FB7F8942A
:100D200080910E0390910F03A0911003B0911103D5
:100D300026B5A89B05C02F3F19F00196A11DB11D36
:100D40003FBF6627782F892F9A2F620F711D811D53
:100D5000911D42E0660F771F881F991F4A95D1F7B2
:100D60000895CF92DF92EF92FF92CF93DF936B01C2
:100D70007C010E948E06EB01C114D104E104F10450
:100D800079F00E948E066C1B7D0B683E7340A0F3C9
:100D900081E0C81AD108E108F108C851DC4FECCF56
:100DA000DF91CF91FF90EF90DF90CF9008957894EE
:100DB00084B5826084BD84B5816084BD85B5826060
:100DC00085BD85B5816085BDEEE6F0E080818160FE
:100DD0008083E1E8F0E010828081826080838081FE
:100DE00081608083E0E8F0E0808181608083E1EBD6
:100DF000F0E0808184608083E0EBF0E080818160BE
:100E00008083EAE7F0E08081846080838081826073
:100E1000808380818160808380818068808310925C
:100E2000C1000895833081F028F4813099F0823038
:100E3000A1F008958630A9F08730B9F08430D1F45C
:100E4000809180008F7D03C0809180008F77809398
:100E50008000089584B58F7702C084B58F7D84BDEE
:100E600008958091B0008F7703C08091B0008F7D8E
:100E70008093B0000895CF93DF9390E0FC01EA5B8C
:100E8000FE4F2491FC01E65AFE4F8491882349F1DC
:100E900090E0880F991FFC01EE57FE4FA591B49189
:100EA00088589E4FFC01C591D4919FB7611108C02D
:100EB000F8948C91209582238C93888182230AC098
:100EC000623051F4F8948C91322F309583238C93B7
:100ED0008881822B888304C0F8948C91822B8C9318
:100EE0009FBFDF91CF9108950F931F93CF93DF930F
:100EF0001F92CDB7DEB7282F30E0F901EE5CFE4F30
:100F00008491F901EA5BFE4F1491F901E65AFE4F14
:100F100004910023C9F0882321F069830E941207FD
:100F20006981E02FF0E0EE0FFF1FE858FE4FA5911A
:100F3000B4919FB7F8948C91611103C010958123EF
:100F400001C0812B8C939FBF0F90DF91CF911F9198
:100F50000F910895CF93DF93282F30E0F901EE5CD5
:100F6000FE4F8491F901EA5BFE4FD491F901E65AF4
:100F7000FE4FC491CC2391F081110E941207EC2FF7
:100F8000F0E0EE0FFF1FE259FE4FA591B4912C91B6
:100F90002D2381E090E021F480E002C080E090E029
:100FA000DF91CF9108950E94D7060E94A801CCEA54
:100FB000D8E00E9478022097E1F30E94AC08F9CFB4
:100FC000FC0124853585F901E05CFF4F808191812A
:100FD000329620813181821B930B8F73992708955C
:100FE000FC0184859585FC01E05CFF4F40815181C7
:100FF0003296208131814217530741F00190F081F0
:10100000E02DE80FF91F808190E008958FEF9FEFAA
:101010000895FC0184859585FC01E05CFF4F4081CB
:1010200051813296208131814217530779F0A08196
:10103000B181A80FB91F8C91208131812F5F3F4F63
:101040002F7333273183208390E008958FEF9FEF34
:101050000895FC0181A1882329F0A489B5898C9188
:1010600086FFFBCF11A20895CF93DF93FC01268565
:101070003785D901A05CBF4F8D919C911197019646
:101080008F739927E901CE5BDF4F4881598184171F
:101090009507D9F30D90BC91A02DA20FB31F6C93AF
:1010A000A685B785A05CBF4F11969C938E93A689A9
:1010B000B7892C9181E090E0078C02C0880F991FBE
:1010C0000A94E2F7282B2C9381E081A30488F58908
:1010D000E02D80818064808381E090E0DF91CF917A
:1010E000089508951F920F920FB60F9211242F9317
:1010F0003F934F938F939F93EF93FF938091C00003
:1011000082FD1CC04091C6008091B8039091B90344
:1011100001968F7399272091BA033091BB038217F0
:10112000930771F0E091B803F091B903E858FC4FD0
:1011300040839093B9038093B80302C08091C600A6
:10114000FF91EF919F918F914F913F912F910F9030
:101150000FBE0F901F90189582E193E00E94E00768
:10116000892B11F00C94710808951F920F920FB6FD
:101170000F9211242F933F938F939F93EF93FF939D
:1011800020917403309175038091760390917703D9
:101190002817390731F48091C1008F7D8093C100F9
:1011A00014C0E0917603F0917703EC5CFC4F208152
:1011B000809176039091770301968F73992790938E
:1011C0007703809376032093C600FF91EF919F9160
:1011D0008F913F912F910F900FBE0F901F901895F8
:1011E000CF92DF92EF92FF92CF93DF93EC016A01EF
:1011F0007B01411581EE580761057105F9F0EC8915
:10120000FD8981E090E008A002C0880F991F0A9430
:10121000E2F7808360E079E08DE390E0A70196013A
:101220000E943C0B215031094109510956954795BF
:1012300037952795211580E1380798F0EC89FD89CD
:10124000108260E874E88EE190E0A70196010E94A8
:101250003C0B215031094109510956954795379565
:101260002795E889F9893083EA89FB89208319A2C7
:10127000EE89FF89408181E090E09C010C8C02C0E6
:10128000220F331F0A94E2F7422B4083EE89FF8935
:1012900040819C010D8C02C0220F331F0A94E2F79B
:1012A000422B4083EE89FF8940819C010E8C02C055
:1012B000220F331F0A94E2F7422B4083EE89FF8905
:1012C00020810F8C02C0880F991F0A94E2F7809545
:1012D00082238083DF91CF91FF90EF90DF90CF90BA
:1012E0000895109215031092140388EE93E0A0E085
:1012F000B0E08093160390931703A0931803B09364
:1013000019038BE692E0909313038093120388E70E
:1013100093E090931F0380931E0384E393E09093E4
:1013200021038093200385EC90E090932303809326
:10133000220384EC90E0909325038093240380ECB7
:1013400090E0909327038093260381EC90E09093A4
:1013500029038093280382EC90E090932B038093E1
:101360002A0386EC90E090932D0380932C0384E075
:1013700080932E0383E080932F0387E080933003D4
:1013800085E08093310381E0809332030895CF920A
:10139000DF92EF92FF920F931F93CF93DF936C0135
:1013A0007A01EB01E60EF71E00E010E0CE15DF0536
:1013B00061F06991D601ED91FC910190F081E02DF1
:1013C000C6010995080F191FF1CFC801DF91CF9110
:1013D0001F910F91FF90EF90DF90CF9008956115CE
:1013E000710581F0DB010D900020E9F7AD0141505E
:1013F0005109461B570BDC01ED91FC910280F381F2
:10140000E02D099480E090E00895EF92FF920F9311
:101410001F93CF93DF938C01FB01C0E0D0E0649178
:101420007F018FEFE81AF80A662361F0D801ED9189
:10143000FC910190F081E02DC8010995C80FD91FDA
:10144000F701EDCFCE01DF91CF911F910F91FF906A
:10145000EF9008950C94EF09DC01ED91FC9101905F
:10146000F081E02D09940F931F93CF93DF93EC014C
:101470006DE00E942C0A8C016AE0CE010E942C0AC9
:10148000800F911FDF91CF911F910F9108950F93BE
:101490001F93CF93DF93EC010E94EF098C01CE01E3
:1014A0000E94330A800F911FDF91CF911F910F91FE
:1014B00008958F929F92AF92BF92CF92DF92EF9258
:1014C000FF920F931F93CF93DF93CDB7DEB7A19712
:1014D0000FB6F894DEBF0FBECDBF7C01C42EE52F42
:1014E000CB01D22E19A221E02D1510F02AE0D22E28
:1014F0008E010F5D1F4F8D2C912CA12CB12C6C2DCA
:101500007E2FA50194010E943C0B8C2DD29E801948
:101510001124015011098A3014F4805D01C0895CE6
:10152000F8018083211531054105510521F0C22EB6
:10153000E32FCA01E4CFB801C7010E94EF09A196C9
:101540000FB6F894DEBF0FBECDBFDF91CF911F91D4
:101550000F91FF90EF90DF90CF90BF90AF909F9052
:101560008F900895CF92DF92EF92FF920F931F9387
:10157000CF93DF93EC016A017B012115310579F4EA
:10158000E881F9810190F081E02D642FDF91CF9106
:101590001F910F91FF90EF90DF90CF9009942A3028
:1015A0003105E9F477FF1AC06DE20E942C0A8C0124
:1015B00044275527BA014C195D096E097F092AE0B5
:1015C000CE010E94590A800F911FDF91CF911F9188
:1015D0000F91FF90EF90DF90CF9008952AE0B70130
:1015E000A601CE01DF91CF911F910F91FF90EF9057
:1015F000DF90CF900C94590A9A01AB01662757FDF2
:101600006095762F0C94B20A2115310541F4DC0166
:10161000ED91FC910190F081E02D642F09940C94E0
:10162000590A0F931F93CF93DF93EC019A01462F32
:1016300050E060E070E00E94040B8C01CE010E943B
:10164000330A800F911FDF91CF911F910F91089561
:1016500097FB072E16F4009407D077FD09D00E945F
:101660005E0B07FC05D03EF4909581959F4F089541
:10167000709561957F4F0895A1E21A2EAA1BBB1B9E
:10168000FD010DC0AA1FBB1FEE1FFF1FA217B3074E
:10169000E407F50720F0A21BB30BE40BF50B661F64
:1016A000771F881F991F1A9469F760957095809528
:1016B00090959B01AC01BD01CF010895AA1BBB1BF6
:1016C00051E107C0AA1FBB1FA617B70710F0A61B42
:1016D000B70B881F991F5A95A9F780959095BC0163
:1016E000CD010895EE0FFF1F0590F491E02D0994B0
:1016F000F999FECF92BD81BDF89A992780B50895DA
:1017000011E0C0E9D1E004C0FE010E94740B2296F2
:0A171000C239D107C9F7F894FFCFE2
:10171A00696E766961746F2073756C6C61203438F8
:10172A0035202D3E2020202D2D2D2D2D2D2D2D2DFA
:10173A002D2D2D2D2D2D2D2D2D2D2D2D2D2D2D2DCF
:10174A002D2D2D2D2D2D2D2D2D2D2D2D2D2D2D2DBF
:10175A002D2D2D2D2D2D2D696E697A696F206461CD
:10176A007469005B005D0009002D2D2D2D2D2D2D96
:10177A002D2D2D2D2D2D2D2D2D2D2D2D2D2D2D2D8F
:10178A002D2D2D2D2D2D2D2D2D2D2D2D2D2D2D2D7F
:10179A002D2D2D2D2D2D2D2D2D2D2D2D2D2D2D2D6F
:1017AA002D2D2D2D2D2D2D2D2D2D2D2D2D2D2D2D5F
:1017BA002D2066696E6520646174690052696365EB
:1017CA00767574692064616C6C61203438352069DF
:1017DA002073656775656E74692064617469203A5F
:1017EA00202D2D2D2D2D2D2D2D2D2D2D2D2D2D2D2C
:1017FA002D2D2D2D2D2D2D2D2D2D2D2D2D2D2D2D0F
:10180A002D2D2D2D2D2D2D2D2D2D2D2D2D2D2D002B
:10181A002D2D2D2D2D2D2D2D2D2D2D2D2D2D2D2DEE
:10182A002D2D2D2D2D2D2D2D2D2D2D2D2D2D2D2DDE
:10183A002D2D2D2D2D2D2D2D2D2D2D2D2D2D2D2DCE
:10184A002D2D2D2D2D2D2D2D2D2D2D2D2D2D206692
:10185A00696E6520646174692064616C6C6120340E
:10186A0038350020202000000000001004C7094E6F
:10187A0003130334036603000000003408C709E0B9
:08188A00070908F00729080016
:00000001FF
