:100000000C9462000C948A000C948A000C948A0070
:100010000C948A000C948A000C948A000C948A0038
:100020000C948A000C948A000C948A000C948A0028
:100030000C948A000C948A000C948A000C948A0018
:100040000C9451030C948A000C94FB050C943E060E
:100050000C948A000C948A000C948A000C948A00F8
:100060000C948A000C948A00000000070002010032
:100070000003040600000000000000000102040864
:100080001020408001020408102001020408102002
:10009000040404040404040402020202020203032E
:1000A00003030303000000002300260029000000D2
:1000B0000000250028002B0000000000240027007D
:1000C0002A00FA0611241FBECFEFD8E0DEBFCDBF55
:1000D00011E0A0E0B1E0E4E4FFE002C005900D9281
:1000E000AA32B107D9F721E0AAE2B1E001C01D921E
:1000F000AD3EB207E1F710E0C4ECD0E004C02297B7
:10010000FE010E949C07C23CD107C9F70E945C0512
:100110000C94A0070C94000061E0809104010E94FF
:10012000C40461E080910A010E94C40461E08091EE
:1001300008010E94C40461E0809116010E94C40479
:1001400061E0809114010E94C40461E08091120179
:100150000E94C40461E0809110010E94C40461E027
:10016000809106010E94C40460E080910E010E940B
:10017000C40460E080910C010E94C40460E080919E
:1001800002010E94C40440E855E260E070E083E4AC
:1001900091E00C947906CF93DF93C4E0D1E061E065
:1001A00088810E94FD0464E670E080E090E00E9497
:1001B000BE0360E088810E94FD0464E670E080E098
:1001C00090E0DF91CF910C94BE0361E08091060135
:1001D0000E94FD048091340190913501019731F422
:1001E00060910001809112010E94FD046CE271E0B7
:1001F00080E090E00E94BE0360E0809106010E94D2
:10020000FD048091340190913501019731F46091A2
:100210002E01809112010E94FD046CE271E080E0E9
:1002200090E00E94BE0361E0809106010E94FD04FF
:100230008091340190913501019731F46091000172
:10024000809112010E94FD046CE271E080E090E078
:100250000E94BE0360E0809106010E94FD0480912F
:10026000340190913501019731F460912E01809114
:1002700012010E94FD046CE271E080E090E00E94B7
:10028000BE0361E0809106010E94FD04809134016B
:1002900090913501019731F4609100018091120134
:1002A0000E94FD046CE271E080E090E00E94BE03D9
:1002B00060E0809106010E94FD04809134019091DC
:1002C0003501019731F460912E01809112010E9455
:1002D000FD046CE271E080E090E00E94BE0361E00A
:1002E000809106010E94FD048091340190913501B6
:1002F000019731F460910001809112010E94FD0488
:100300006CE271E080E090E00E94BE0360E08091CA
:1003100006010E94FD0480913401909135010197FE
:1003200031F460912E01809112010C94FD04089526
:1003300061E0809106010E94FD048091340190915A
:100340003501019731F460910001809112010E9402
:10035000FD0468EE73E080E090E00E94BE0360E080
:10036000809106010E94FD04809134019091350135
:10037000019731F460912E01809112010E94FD04D9
:100380006CE271E080E090E00E94BE0361E0809149
:1003900006010E94FD04809134019091350101977E
:1003A00031F460910001809112010E94FD046CE221
:1003B00071E080E090E00E94BE0360E08091060161
:1003C0000E94FD048091340190913501019731F430
:1003D00060912E01809112010E94FD046CE271E097
:1003E00080E090E00E94BE0361E0809106010E94DF
:1003F000FD048091340190913501019731F46091B1
:100400000001809112010E94FD0468EE73E080E01B
:1004100090E00E94BE0360E0809106010E94FD040E
:100420008091340190913501019731F460912E0152
:10043000809112010C94FD040895C1E0D0E032E0F7
:10044000E32EF12C80910E010E9433059093370129
:100450008093360180910C010E9433059093350101
:100460008093340120913601309137018091000151
:10047000909101012817390709F580913801909171
:1004800039018D7F892BD1F40E94E500D093390189
:10049000C093380160E070E080910A010E943C0442
:1004A00060E070E0809108010E943C0410922D01F0
:1004B00010922C0110922B0110922A0120913601EA
:1004C0003091370180912E0190912F012817390723
:1004D00001F580913801909139010297D0F40E9482
:1004E0009801F0923901E092380160E070E080916B
:1004F0000A010E943C0460E070E0809108010E94C3
:100500003C0410922D0110922C0110922B0110929C
:100510002A0180913401909135018130910589F44F
:100520000E94CB0060912C01809116010E94FD0475
:1005300060912A01809114010E94FD0460913601AE
:1005400010C0892B91F460912E01809116010E94B8
:10055000FD0460912E01809114010E94FD046091C0
:100560002E01809110010E94FD040091380110912C
:1005700039010130110509F03FC08091320190919D
:10058000330120912E0130912F018217930799F4A6
:1005900060E070E080910A010E943C0480910001BB
:1005A00090910101909333018093320110932D01BA
:1005B00000932C011BC02091000130910101821792
:1005C0009307A1F4609130017091310180910A018B
:1005D0000E943C0480912E0190912F019093330151
:1005E0008093320110922D0110922C0164EF71E082
:1005F00080E090E00E94BE03809138019091390123
:10060000029709F03FC0809132019091330120910F
:100610002E0130912F018217930799F460E070E06A
:10062000809108010E943C04809100019091010199
:100630009093330180933201D0932B01C0932A0110
:100640001BC0209100013091010182179307A1F492
:100650006091300170913101809108010E943C0449
:1006600080912E0190912F0190933301809332015C
:1006700010922B0110922A0164EF71E080E090E06B
:100680000E94BE03809102010E941F0497FD039601
:100690009595879595958795909331018093300135
:1006A000D1CE1F920F920FB60F9211242F933F932A
:1006B0008F939F93AF93BF9380913B0190913C01A7
:1006C000A0913D01B0913E0130913A0123E0230F0A
:1006D0002D3720F40196A11DB11D05C026E8230F7A
:1006E0000296A11DB11D20933A0180933B01909386
:1006F0003C01A0933D01B0933E0180913F01909158
:100700004001A0914101B09142010196A11DB11D8E
:1007100080933F0190934001A0934101B093420127
:10072000BF91AF919F918F913F912F910F900FBEED
:100730000F901F9018953FB7F89480913F019091CA
:100740004001A0914101B091420126B5A89B05C08E
:100750002F3F19F00196A11DB11D3FBF6627782FCD
:10076000892F9A2F620F711D811D911D42E0660F26
:10077000771F881F991F4A95D1F70895CF92DF926E
:10078000EF92FF92CF93DF936B017C010E949B035A
:10079000EB01C114D104E104F10479F00E949B0340
:1007A0006C1B7D0B683E7340A0F381E0C81AD10832
:1007B000E108F108C851DC4FECCFDF91CF91FF90F9
:1007C000EF90DF90CF900895789484B5826084BDD7
:1007D00084B5816084BD85B5826085BD85B5816045
:1007E00085BDEEE6F0E0808181608083E1E8F0E0A5
:1007F0001082808182608083808181608083E0E8D4
:10080000F0E0808181608083E1EBF0E080818460B2
:100810008083E0EBF0E0808181608083EAE7F0E0B4
:100820008081846080838081826080838081816018
:1008300080838081806880831092C10008958E300B
:1008400008F08E5087702091180190E4299F900144
:100850001124822B80937C0080917A0080648093A5
:100860007A0080917A0086FDFCCF809178002091FB
:10087000790090E0922B08951F93CF93DF93182F68
:10088000EB0161E00E94C404209711F460E004C011
:10089000CF3FD10539F461E0812FDF91CF911F91D6
:1008A0000C94FD04E12FF0E0E859FF4FE491E330B0
:1008B000F9F048F4E130B9F0E230A1F584B5806296
:1008C00084BDC8BD34C0E630E9F0E73019F1E4304A
:1008D00049F580918000806280938000D0938B00E6
:1008E000C0938A0024C084B5806884BDC7BD1FC082
:1008F00080918000806880938000D0938900C093AD
:10090000880015C08091B00080688093B000C093CB
:10091000B3000DC08091B00080628093B000C0939E
:10092000B40005C0C038D1050CF0B5CFAFCFDF9112
:10093000CF911F910895833081F028F4813099F090
:100940008230A1F008958630A9F08730B9F0843064
:10095000D1F4809180008F7D03C0809180008F77DB
:1009600080938000089584B58F7702C084B58F7D11
:1009700084BD08958091B0008F7703C08091B0004E
:100980008F7D8093B0000895CF93DF9390E0FC01BA
:10099000E458FF4F2491FC01E057FF4F84918823D6
:1009A00049F190E0880F991FFC01E854FF4FA59191
:1009B000B49182559F4FFC01C591D4919FB76111AD
:1009C00008C0F8948C91209582238C93888182238F
:1009D0000AC0623051F4F8948C91322F3095832301
:1009E0008C938881822B888304C0F8948C91822B0D
:1009F0008C939FBFDF91CF9108950F931F93CF9357
:100A0000DF931F92CDB7DEB7282F30E0F901E85908
:100A1000FF4F8491F901E458FF4F1491F901E05719
:100A2000FF4F04910023C9F0882321F069830E94BD
:100A30009B046981E02FF0E0EE0FFF1FE255FF4FAE
:100A4000A591B4919FB7F8948C91611103C0109552
:100A5000812301C0812B8C939FBF0F90DF91CF9199
:100A60001F910F910895CF93DF93282F30E0F90164
:100A7000E859FF4F8491F901E458FF4FD491F901EF
:100A8000E057FF4FC491CC2391F081110E949B0449
:100A9000EC2FF0E0EE0FFF1FEC55FF4FA591B49146
:100AA0002C912D2381E090E021F480E002C080E0D1
:100AB00090E0DF91CF9108950E94E4030E948C00A2
:100AC000C5E3D6E00E941D022097E1F30E9435069F
:100AD000F9CFFC0124853585F901E05CFF4F808169
:100AE0009181329620813181821B930B8F739927DC
:100AF0000895FC0184859585FC01E05CFF4F4081F1
:100B000051813296208131814217530741F0019083
:100B1000F081E02DE80FF91F808190E008958FEFBC
:100B20009FEF0895FC0184859585FC01E05CFF4FF3
:100B3000408151813296208131814217530779F0EB
:100B4000A081B181A80FB91F8C91208131812F5FC5
:100B50003F4F2F7333273183208390E008958FEF29
:100B60009FEF0895FC0181A1882329F0A489B5890C
:100B70008C9186FFFBCF11A20895CF93DF93FC01E8
:100B800026853785D901A05CBF4F8D919C91119727
:100B900001968F739927E901CE5BDF4F4881598118
:100BA00084179507D9F30D90BC91A02DA20FB31F08
:100BB0006C93A685B785A05CBF4F11969C938E93CE
:100BC000A689B7892C9181E090E0078C02C0880F3C
:100BD000991F0A94E2F7282B2C9381E081A30488C3
:100BE000F589E02D80818064808381E090E0DF9151
:100BF000CF91089508951F920F920FB60F9211246E
:100C00002F933F934F938F939F93EF93FF938091F5
:100C1000C00082FD1CC04091C6008091E901909106
:100C2000EA0101968F7399272091EB013091EC0135
:100C30008217930771F0E091E901F091EA01E7551D
:100C4000FE4F40839093EA018093E90102C08091B6
:100C5000C600FF91EF919F918F914F913F912F91FE
:100C60000F900FBE0F901F90189583E491E00E94A3
:100C70006905892B11F00C94FA0508951F920F92C3
:100C80000FB60F9211242F933F938F939F93EF935F
:100C9000FF932091A5013091A6018091A701909129
:100CA000A8012817390731F48091C1008F7D809306
:100CB000C10014C0E091A701F091A801EB59FE4FCB
:100CC00020818091A7019091A80101968F739927A7
:100CD0009093A8018093A7012093C600FF91EF9104
:100CE0009F918F913F912F910F900FBE0F901F906A
:100CF0001895CF92DF92EF92FF92CF93DF93EC01A2
:100D00006A017B01411581EE580761057105F9F013
:100D1000EC89FD8981E090E008A002C0880F991F4E
:100D20000A94E2F7808360E079E08DE390E0A70128
:100D300096010E94780721503109410951095695C1
:100D4000479537952795211580E1380798F0EC896C
:100D5000FD89108260E874E88EE190E0A7019601B9
:100D60000E9478072150310941095109569547954C
:100D700037952795E889F9893083EA89FB892083AB
:100D800019A2EE89FF89408181E090E09C010C8CE2
:100D900002C0220F331F0A94E2F7422B4083EE89F0
:100DA000FF8940819C010D8C02C0220F331F0A94E1
:100DB000E2F7422B4083EE89FF8940819C010E8C33
:100DC00002C0220F331F0A94E2F7422B4083EE89C0
:100DD000FF8920810F8C02C0880F991F0A94E2F7C7
:100DE000809582238083DF91CF91FF90EF90DF90F9
:100DF000CF900895109246011092450188EE93E03D
:100E0000A0E0B0E08093470190934801A09349018E
:100E1000B0934A018DE191E09093440180934301A6
:100E200089EA91E09093500180934F0185E691E02B
:100E3000909352018093510185EC90E0909354017E
:100E40008093530184EC90E0909356018093550178
:100E500080EC90E0909358018093570181EC90E0F2
:100E600090935A018093590182EC90E090935C0139
:100E700080935B0186EC90E090935E0180935D012E
:100E800084E080935F0183E08093600187E080933A
:100E9000610185E08093620181E0809363010895A0
:100EA000CF92DF92EF92FF920F931F93CF93DF9336
:100EB0006C017A01EB01E60EF71E00E010E0CE15A2
:100EC000DF0561F06991D601ED91FC910190F0810F
:100ED000E02DC6010995080F191FF1CFC801DF9158
:100EE000CF911F910F91FF90EF90DF90CF900895D9
:100EF000A1E21A2EAA1BBB1BFD010DC0AA1FBB1F1E
:100F0000EE1FFF1FA217B307E407F50720F0A21B8F
:100F1000B30BE40BF50B661F771F881F991F1A94FC
:100F200069F760957095809590959B01AC01BD0126
:100F3000CF010895EE0FFF1F0590F491E02D099465
:040F4000F894FFCF53
:100F4400010013000D000B000A000900080007004F
:100F540006000500040003000100000000BD055068
:0A0F640007690592057905B2050042
:00000001FF
