:100000000C945D000C9485000C9485000C94850084
:100010000C9485000C9485000C9485000C9485004C
:100020000C9485000C9485000C9485000C9485003C
:100030000C9485000C9485000C9485000C9485002C
:100040000C94AE020C9485000C9485000C948500F1
:100050000C9485000C9485000C9485000C9485000C
:100060000C9485000C94850000000007000201003C
:100070000003040600000000000000000102040864
:100080001020408001020408102001020408102002
:10009000040404040404040402020202020203032E
:1000A0000303030300000000250028002B000000CC
:1000B0000000240027002A00D60011241FBECFEF25
:1000C000D8E0DEBFCDBF11E0A0E0B1E0E8EEF8E09F
:1000D00002C005900D92A431B107D9F721E0A4E147
:1000E000B1E001C01D92A333B207E1F710E0CAEB03
:1000F000D0E004C02297FE010E946E04C83BD107E5
:10010000C9F70E941F040C9472040C94000020E0B4
:1001100042E068E285E191E00E94CE0185E191E054
:100120000C94920110921401609114016932B8F498
:1001300040E085E191E00E94990168E071E085E18D
:1001400091E00E946A0464E670E080E090E00E9422
:100150001B03809114018F5F80931401E5CF1092EF
:100160001401609114016932B8F441E085E191E035
:100170000E9499016AE071E085E191E00E946A04C1
:1001800064E670E080E090E00E941B03809114011F
:100190008F5F80931401E5CF6CE271E080E090E026
:1001A0000E941B0385E191E00C949201CF92EF92A3
:1001B0000F9382E0C82E93E0E92E04E025E046E0AC
:1001C00067E085E191E00E9482020F91EF90CF906D
:1001D0000895CF93DF93EC0160E08E810E94E903E4
:1001E00081E090E00E94410361E08E810E94E9037A
:1001F00081E090E00E94410360E08E810E94E9036B
:1002000084E690E0DF91CF910C944103CF92DF928E
:10021000EF92FF920F931F93CF93DF937C01C0E087
:10022000D0E0C62ED12C87010C0F1D1F61E0F80114
:1002300087810E94B003B6010C2E02C075956795A8
:100240000A94E2F76170F80187810E94E903219620
:10025000C430D10541F7C701DF91CF911F910F91B4
:10026000FF90EF90DF90CF900C94E900CF92DF9257
:10027000EF92FF920F931F93CF93DF937C01C0E027
:10028000D0E0C62ED12C87010C0F1D1F61E0F801B4
:1002900087810E94B003B6010C2E02C07595679548
:1002A0000A94E2F76170F80187810E94E9032196C0
:1002B000C830D10541F7C701DF91CF911F910F9150
:1002C000FF90EF90DF90CF900C94E9001F93CF93B5
:1002D000DF93EC01162F642F8C810E94E9038D813E
:1002E0008F3F19F060E00E94E9038F85612F84FF42
:1002F00006C0CE01DF91CF911F910C94360170E0C2
:1003000084E0759567958A95E1F7CE010E94060114
:10031000612FCE01DF91CF911F910C94060140E037
:100320000C94660161E00E948F0180ED97E00C94CF
:100330004103CF93DF93CDB7DEB728970FB6F8947C
:10034000DEBF0FBECDBF28E0E0E0F1E0DE01119698
:1003500001900D922A95E1F7FC012389421710F0D4
:100360004FEF420FFE013196E40FF11DE40FF11D36
:100370002081260F2068622F28960FB6F894DEBFE2
:100380000FBECDBFDF91CF910C948F01FC0160892E
:10039000262F2460208B6C600C948F01CF93DF9309
:1003A000EC01423018F08F8588608F874B8B1C8A58
:1003B000222329F0413019F48F8584608F8780E5EE
:1003C00093EC0E94410360E08C810E94E90360E0AD
:1003D0008E810E94E9038D818F3F19F060E00E94B9
:1003E000E9036F8564FD1DC063E0CE010E94060134
:1003F00084E991E10E94410363E0CE010E9406017D
:1004000084E991E10E94410363E0CE010E9406016C
:1004100086E990E00E94410362E0CE010E9406015D
:1004200016C06062CE010E948F0184E991E10E94B2
:1004300041036F856062CE010E948F0186E990E0E2
:100440000E9441036F856062CE010E948F016F851B
:100450006062CE010E948F0184E0888BCE010E94F1
:10046000C601CE010E94920182E0898B66E0CE0136
:10047000DF91CF910C948F016F927F928F92AF9208
:10048000CF92EF920F931F93CF93DF93CDB7DEB749
:100490003C01162F842F5D854E853F859889F30199
:1004A000848325830683E782C086A186828653875C
:1004B00044873587968761E00E94B003F301858108
:1004C0008F3F19F061E00E94B00361E0F301868183
:1004D0000E94B003112319F0F301178603C080E1D5
:1004E000F301878720E041E060E1C301DF91CF9114
:1004F0001F910F91EF90CF90AF908F907F906F9062
:100500000C94CE018F92AF92CF92EF920F93DC01B9
:1005100013961C921E921297E0E1F1E0ED93FC938A
:100520001F921F921F921F928C2CAE2CC02EE22E77
:10053000042F2FEF462F61E00E943C020F900F9096
:100540000F900F900F91EF90CF90AF908F900895F4
:1005500041E00E94660181E090E008951F920F92B1
:100560000FB60F9211242F933F938F939F93AF93C6
:10057000BF9380912B0190912C01A0912D01B091FE
:100580002E0130912A0123E0230F2D3720F401960C
:10059000A11DB11D05C026E8230F0296A11DB11DA6
:1005A00020932A0180932B0190932C01A0932D017D
:1005B000B0932E0180912F0190913001A0913101D3
:1005C000B09132010196A11DB11D80932F0190932E
:1005D0003001A0933101B0933201BF91AF919F914F
:1005E0008F913F912F910F900FBE0F901F901895F4
:1005F0003FB7F89480912F0190913001A091310183
:10060000B091320126B5A89B05C02F3F19F0019685
:10061000A11DB11D3FBF6627782F892F9A2F620F2A
:10062000711D811D911D42E0660F771F881F991F64
:100630004A95D1F70895CF92DF92EF92FF92CF9330
:10064000DF936B017C010E94F802EB01C114D1041D
:10065000E104F10479F00E94F8026C1B7D0B683E06
:100660007340A0F381E0C81AD108E108F108C8512D
:10067000DC4FECCFDF91CF91FF90EF90DF90CF90E8
:1006800008950197009739F0880F991F880F991FD7
:1006900002970197F1F70895789484B5826084BD3C
:1006A00084B5816084BD85B5826085BD85B5816076
:1006B00085BDEEE6F0E0808181608083E1E8F0E0D6
:1006C0001082808182608083808181608083E0E805
:1006D000F0E0808181608083E1EBF0E080818460E4
:1006E0008083E0EBF0E0808181608083EAE7F0E0E6
:1006F000808184608083808182608083808181604A
:1007000080838081806880831092C1000895833047
:1007100081F028F4813099F08230A1F0089586307C
:10072000A9F08730B9F08430D1F4809180008F7DBA
:1007300003C0809180008F7780938000089584B5F6
:100740008F7702C084B58F7D84BD08958091B000FD
:100750008F7703C08091B0008F7D8093B0000895A3
:10076000CF93DF9390E0FC01E458FF4F2491FC010C
:10077000E057FF4F8491882349F190E0880F991F3B
:10078000FC01E255FF4FA591B4918C559F4FFC01A0
:10079000C591D4919FB7611108C0F8948C912095B0
:1007A00082238C93888182230AC0623051F4F894AA
:1007B0008C91322F309583238C938881822B888370
:1007C00004C0F8948C91822B8C939FBFDF91CF91C2
:1007D00008950F931F93CF93DF931F92CDB7DEB78A
:1007E000282F30E0F901E859FF4F8491F901E458CE
:1007F000FF4F1491F901E057FF4F04910023C9F016
:10080000882321F069830E9487036981E02FF0E04B
:10081000EE0FFF1FEC55FF4FA591B4919FB7F894D1
:100820008C91611103C01095812301C0812B8C93A1
:100830009FBF0F90DF91CF911F910F9108950E945C
:100840004C030E948700C0E0D0E00E9492002097F5
:10085000E1F30E940000F9CFCF92DF92EF92FF9276
:100860000F931F93CF93DF936C017A01EB01E60E98
:10087000F71E00E010E0CE15DF0561F06991D601AA
:10088000ED91FC910190F081E02DC6010995080FD2
:10089000191FF1CFC801DF91CF911F910F91FF90E8
:1008A000EF90DF90CF9008956115710581F0DB0125
:1008B0000D900020E9F7AD0141505109461B570B3F
:1008C000DC01ED91FC910280F381E02D099480E040
:1008D00090E008950C945404EE0FFF1F0590F491DE
:0808E000E02D0994F894FFCF0C
:1008E8000000400014005400780059000000000087
:0408F800A8022C0422
:00000001FF
