:100000000C94C1000C94E9000C94E9000C94960542
:100010000C94BA050C94DE050C94E9000C94E900EC
:100020000C94E9000C94E9000C94E9000C94E900AC
:100030000C94E9000C94E9000C94E9000C94E9009C
:100040000C94370A0C94E9000C94650C0C94A80CE1
:100050000C94E9000C94E9000C94E9000C94E9007C
:100060000C940A090C94E900536C6176653A206996
:100070006C206D696F20696E646972697A7A6F208D
:100080006527200000C201000100110011000C00D2
:1000900000E100000A002500250021000096000074
:1000A0001900390039003600127A00001F0046009E
:1000B000460044008070000022004D004D004A00C0
:1000C000004B0000360075007500720040380000DB
:1000D0004A009C009C009900802500007200EC0002
:1000E000EC00E900C0120000E900DA01DA01D701F2
:1000F00060090000D701B603B603B303B0040000E3
:10010000B3036E076E076B07580200006E07DC0E24
:10011000DC0ED80E2C010000DC0EC11DC11DBE1D61
:1001200000000007000201000003040600000000B8
:1001300000000000010204081020408001020408B1
:100140001020010204081020040404040404040420
:100150000202020202020303030303030000000081
:1001600023002600290000000000250028002B00A5
:1001700000000000240027002A0059012808640D0F
:10018000600111241FBECFEFD8E0DEBFCDBF12E06B
:10019000A0E0B1E0E0E0F5E202C005900D92AE3DD6
:1001A000B107D9F724E0AEEDB2E001C01D92A23F45
:1001B000B207E1F711E0C0E8D1E004C02297FE01E8
:1001C0000E946712CA37D107C9F70E94C60B0C9468
:1001D00073120C940000DC01ED91FC910190F08110
:1001E000E02D0994CF93DF936CEA71E088E494E00A
:1001F0000E943A0EC1E0D0E065E571E088E494E049
:100200000E941D0E4AE050E0BE0188E494E00E9486
:10021000EF0E6DE972E088E494E00E941D0E67E540
:1002200071E088E494E00E941D0E2196CB30D10548
:1002300019F768E571E088E494E00E943A0ECAE09C
:10024000D3E06991799140E150E088E494E00E9424
:10025000EF0E67E571E088E494E00E941D0E83E0F4
:10026000CE31D80771F768E571E088E494E00E9428
:100270003A0E6FEF71E088E494E00E943A0E68E96C
:1002800072E088E494E00E943A0E68E972E088E443
:1002900094E00E943A0E68E972E088E494E00E94DB
:1002A0003A0E68E972E088E494E0DF91CF910C9413
:1002B0003A0E20E045E066E08EE193E00C945006B3
:1002C0008EE193E00C945107CF93DF9381E090E0AF
:1002D0009093ED028093EC028EE193E00E94620421
:1002E000892BD9F06AE070E080E090E00E94A40AD7
:1002F000C091EC02D091ED028EE193E00E942704C0
:10030000FE01EE0FFF1FEE50FD4F91838083809121
:10031000EC029091ED020196DBCF6AE070E080E0A4
:1003200090E0DF91CF910C94A40ACF93DF9361E02A
:1003300083E00E94670B6AE070E080E090E00E943A
:10034000A40ACAE0D3E0688122968EE193E00E947D
:10035000240583E0CE31D807B1F76AE070E080E091
:1003600090E00E94A40A60E083E0DF91CF910C94BA
:10037000670B1F93CF93DF93182FEB016091000160
:10038000709101018FE793E00E941308612F8FE7BE
:1003900093E00E94B0076D2F70E08FE793E00E941A
:1003A000EB00BE0177278FE793E00E94EB0061E04E
:1003B0008FE793E0DF91CF911F910C941508609126
:1003C0000001709101018FE793E00E94130861E042
:1003D0008FE793E00E94B00764E68FE793E00E9406
:1003E000B00761E08FE793E00E94150860E07DE1CF
:1003F00082E00E94B90160E07EE183E00C94B901E3
:100400008FE793E00E94EF0740E855E260E070E07C
:1004100088E494E00E94E30C62E572E088E494E0F2
:100420000E943A0E61E08DE00E942E0B60E087E0B2
:100430000E942E0B61E087E00E94670B61E083E081
:100440000E942E0B60E083E00E94670B40EC52E1BB
:1004500060E070E08EE193E00E9480060E94DF0180
:1004600082E090E090930B0380930A0360E070E0D9
:100470008AE393E00E94240490E090930D0380931C
:100480000C0380E190E090930F0380930E03109291
:100490001103109210031092130310921203109282
:1004A0001503109214031092170310921603109262
:1004B00019031092180310921B0310921A0383E081
:1004C00090E090931D0380931C0368E670E088E43D
:1004D00094E00E94F80D60910C0370910D0340E1CF
:1004E00050E088E494E00E94F70E68E571E088E44B
:1004F00094E00E943A0E8EE193E00E946204892B00
:1005000049F08EE193E00E9427049093F1028093DA
:10051000F002F1CF0895CF92DF92EF92FF920F9306
:100520001F9360910001709101018FE793E00E9499
:10053000130860E08FE793E00E94B00761E08FE767
:1005400093E00E941508609100017091010142E062
:1005500050E08FE793E00E9406088FE793E00E9447
:10056000600700E010E0182F8FE793E00E9460071B
:10057000802B912B34E0969587953A95E1F7BC0155
:1005800080E090E00E94FE1020E030E040E85DE373
:100590000E94B4116093E6027093E7028093E80230
:1005A0009093E90262E672E088E494E00E941D0EF6
:1005B0004091E6025091E7026091E8027091E902F1
:1005C00022E030E088E494E00E94FA0F68E672E0EE
:1005D00088E494E00E941D0E87E00E949D0B4AE093
:1005E00050E0BC0188E494E00E94F70EC090E6025F
:1005F000D090E702E090E802F090E90220E030E0DD
:1006000040E251E4C701B6010E94B4110E94CD102E
:100610008B019C01E4E6F0E0CB01BF010E941B12BC
:10062000A801481B590BCA01BF010E941B127093FD
:10063000E3026093E2024CE94603F001479FF00DAC
:100640001124E00FF11F2AE030E0CF01B9010E9430
:100650001B12AF01481B590BCA01B9010E941B12A2
:100660007093E1026093E00226EF2603C001279F0A
:10067000900D11248E0F9F1F9093E5028093E4024A
:100680009093DF028093DE0222E030E0B701A60102
:1006900088E494E00E94FA0F61E772E088E494E055
:1006A0000E941D0E6091E2027091E3024AE050E068
:1006B00088E494E00E94EF0E6091E0027091E10204
:1006C0004AE050E088E494E00E94EF0E64E772E0B4
:1006D00088E494E00E941D0E6091DE027091DF02BA
:1006E0004AE050E088E494E00E94EF0E66E772E092
:1006F00088E494E00E943A0E6BE271E088E494E0B2
:100700000E943A0E68E972E088E494E00E943A0E92
:1007100068E972E088E494E01F910F91FF90EF90F8
:10072000DF90CF900C943A0ECF93DF93C1E0D0E0EE
:100730008EE193E00E946204892B39F00E946401EB
:10074000D093EB02C093EA02F3CF8091EA0290913A
:10075000EB02019709F075C01092EB021092EA02C9
:100760008091EE029091EF020196883C910514F081
:1007700082E090E09093EF028093EE028091EE028F
:100780009091EF02909311038093100361E08DE04C
:100790000E94670B6AE070E080E090E00E94A40A8B
:1007A000C091F802D091F90260E070E08AE393E032
:1007B0000E94240490E0C817D90709F042C068E5F8
:1007C00071E088E494E00E943A0E6BE772E088E4FE
:1007D00094E00E941D0E6AE972E088E494E00E94B1
:1007E0003A0E81E590E090931B0380931A030E94D8
:1007F0008B0281E090E09093150380931403809125
:10080000E2029091E3029093170380931603809184
:10081000E0029091E1029093190380931803809174
:10082000DE029091DF0290931B0380931A030E94D3
:1008300095010E94F20060E08DE0DF91CF910C9471
:10084000670BDF91CF910895CB010C946B1220912F
:100850007D0330917E0328173907B9F490913B034B
:1008600080913C03981789F0E0913B03F0E0E35C52
:10087000FC4F808120913B0330E02F5F3F4F2F736F
:10088000332720933B0390E008958FEF9FEF089567
:1008900020917D0330917E032817390781F49091D0
:1008A0003B0380913C03981751F0E0913B03F0E04B
:1008B000E35CFC4F8081992787FD909508958FEF29
:1008C0009FEF089520917D0330917E03281739070B
:1008D00071F480913C0320913B0390E0805C9F4F3A
:1008E000821B910960E470E00E941B12089580E071
:1008F00090E0089520917D0330917E0328173907F9
:1009000039F48FB7F89410923C0310923B038FBFD9
:100910000895DC015196ED91FC91529720815096FB
:100920008C91809582238083089520E001972FEF9A
:100930008F3F9207D9F7089520917D0330917E0370
:100940002817390789F0FC01238D2E7F238F2FB7BD
:10095000F89410923C0310923B0390937E03809393
:100960007D032FBF81E0089580E00895EF92FF920C
:100970000F931F93CF93DF93EC018B8DEE85FF8553
:100980009D8581FF04C08081892329F447C080812F
:10099000892309F043C08B899C890E94950408E053
:1009A00010E0EE24E394F12C8D899E890E94950439
:1009B000EE85FF8580819D85892311F0FE2803C087
:1009C0008E2D8095F822EE0C0150110901151105AC
:1009D00059F78F89988D0E9495048B8D81FDF09435
:1009E00080913C0320913B0390E001968F739927FF
:1009F00030E08217930779F0E0913C03F0E0E35C8C
:100A0000FC4FF08280913C0390E001968F73992710
:100A100080933C0303C08B8D81608B8FDF91CF91DE
:100A20001F910F91FF90EF900895611102C00C94F7
:100A30008904DC015196ED91FC91529720815096EA
:100A40008C91282B20830895DF92EF92FF920F93D1
:100A50001F93CF93DF93EC01E62E898D9A8D892B1E
:100A600039F481E090E09B838A8380E090E04DC080
:100A7000DFB6F8946B8D66956170CE010E94150506
:100A8000898D9A8D05960E9495048B8D08E010E063
:100A9000FF24F39481FF19C08F2D8E2121F0CE0108
:100AA0000E94890404C061E0CE010E941505898D71
:100AB0009A8D0E949504FF0C015011090115110532
:100AC00059F7CE010E94890419C08F2D8E2129F07B
:100AD00061E0CE010E94150503C0CE010E94890489
:100AE000898D9A8D0E949504FF0C01501109011502
:100AF000110559F761E0CE010E941505DFBE898D11
:100B00009A8D0E94950481E090E0DF91CF911F9132
:100B10000F91FF90EF90DF90089580917D03909169
:100B20007E03009711F00C94B60408951F920F9263
:100B30000FB60F9211242F933F934F935F936F93B0
:100B40007F938F939F93AF93BF93EF93FF930E94F5
:100B50008D05FF91EF91BF91AF919F918F917F9103
:100B60006F915F914F913F912F910F900FBE0F901A
:100B70001F9018951F920F920FB60F9211242F936A
:100B80003F934F935F936F937F938F939F93AF9315
:100B9000BF93EF93FF930E948D05FF91EF91BF915B
:100BA000AF919F918F917F916F915F914F913F9105
:100BB0002F910F900FBE0F901F9018951F920F92BC
:100BC0000FB60F9211242F933F934F935F936F9320
:100BD0007F938F939F93AF93BF93EF93FF930E9465
:100BE0008D05FF91EF91BF91AF919F918F917F9173
:100BF0006F915F914F913F912F910F900FBE0F908A
:100C00001F9018951F93CF93DF93EC01162F61E08F
:100C1000812F0E942E0B61E0812F0E94670B812F94
:100C200090E0FC01EC5CFE4FE491E88BFC01E85B9A
:100C3000FE4FE491F0E0EE0FFF1FEA59FE4F859161
:100C400094919A8B898BDF91CF911F9108951F9377
:100C5000CF93DF93EC01162F60E0812F0E942E0BC3
:100C60008B8D81FD04C061E0812F0E94670B1C8782
:100C7000812F90E0FC01EC5CFE4FE491ED87FC01DC
:100C8000E85BFE4FE491F0E0EE0FFF1FE45AFE4FE9
:100C9000859194919F878E87DF91CF911F910895C1
:100CA000FF920F931F93CF93DF93EC01F62E522FF9
:100CB0001B821A8208EE13E020E030E00C831D83D3
:100CC0002E833F8383EA92E0998388831C8A1B8A60
:100CD0001E8A1D8A188E1F8A1A8E198E8B8D8E7F02
:100CE00050FB81F98B8F642FCE010E9402066F2D7D
:100CF000CE01DF91CF911F910F91FF900C942706A9
:100D00000F931F93CF93DF93EC011A8E198E188ED9
:100D10001F8A1E8A1D8AA4E8B0E080E090E0FD01F1
:100D2000059115912591349104171507260737076A
:100D300009F031C02CE0289FF001299FF00D11240B
:100D4000E857FF4F259134913C8B2B8B2CE0289F4B
:100D5000F001299FF00D1124E657FF4F25913491A2
:100D60003E8B2D8B2CE0289FF001299FF00D112444
:100D7000E457FF4F25913491388F2F8B2CE0289F1B
:100D8000F001299FF00D1124E257FF4F85919491B6
:100D90009A8F898F08C001961C968D30910509F0B5
:100DA000BECF1C8A1B8A8F89988D892B09F443C07A
:100DB0008C858631E0F520916800883050F091E014
:100DC0008E3008F490E081E001C0880F9A95EAF730
:100DD00001C084E0822B809368002C85283038F095
:100DE0002E3040F0263148F0E0E0F0E008C0EDE6BB
:100DF000F0E005C0EBE6F0E002C0ECE6F0E03081A8
:100E0000283030F481E001C0880F2A95EAF70DC040
:100E1000822F90E02E3010F4089701C00E9791E0D9
:100E200001C0990F8A95EAF7892F832B8083898DDA
:100E30009A8D0E949504CE01DF91CF911F910F9161
:100E40000C949C04FC014485463150F5483028F050
:100E50004E3030F4EBE6F0E005C0EDE6F0E002C025
:100E6000ECE6F0E05081483040F481E090E0042E60
:100E700001C0880F0A94EAF710C0242F30E04E30EA
:100E800018F42850310902C02E50310981E090E059
:100E9000022E01C0880F0A94EAF78095852380838B
:100EA000089523EA32E0FC01318320830C94220769
:100EB0008091AF0390E02091B003821B91090895C7
:100EC0002091B0038091AF03281750F4E22FF0E097
:100ED000EF54FC4F808190E02F5F2093B003089582
:100EE0008FEF9FEF0895E091B0038091AF03E81773
:100EF00030F4F0E0EF54FC4F808190E008958FEFE4
:100F00009FEF08950895CF92DF92EF92FF920F9393
:100F10001F93CF93DF937C01CB018A0120918B0338
:100F2000222389F0EB016B01C40ED51ECC15DD0523
:100F300069F06991D701ED91FC910190F081E02D6C
:100F4000C7010995F3CF642F0E94E108C801DF9122
:100F5000CF911F910F91FF90EF90DF90CF90089568
:100F6000CF93DF931F92CDB7DEB7698320918B03B8
:100F70002223D1F020918C03203240F021E030E098
:100F8000FC013383228380E090E015C080918D03C3
:100F9000E82FF0E0E257FC4F998190838F5F8093B8
:100FA0008D0380938C0305C061E0CE0101960E9401
:100FB000E10881E090E00F90DF91CF910895FC016E
:100FC0001382128248EE53E060E070E04483558360
:100FD0006683778383EB92E09183808308951092F8
:100FE000B0031092AF0310928D0310928C030C94F7
:100FF0002C08862F413208F040E261EB73E00E943A
:101000004A081092B0038093AF03089521E00C9436
:10101000F90781E080938B036093AE0310928D03F8
:1010200010928C0308950C9409080F93062F21E069
:1010300040918C036EE873E08091AE030E948E08AD
:1010400010928D0310928C0310928B030F910895D0
:101050008FE793E00C94DF0710923E0481E08093C9
:101060003C0410923B0461E082E10E94670B61E066
:1010700083E10E94670BE9EBF0E080818E7F808343
:1010800080818D7F808388E48093B80085E480939D
:10109000BC000895413208F03FC090913E04911188
:1010A000FCCF91E090933E0420933C042FEF2093DB
:1010B000D10310921604240F2093150490933D043D
:1010C00090913D04880F892B80933D0480913B04CF
:1010D000813041F410923B0480913D048093BB0029
:1010E00085EC01C085EE8093BC0080913E04813088
:1010F000E1F380911604841710F44091160427E15F
:1011000034E0FB01D9018A2F821B841718F48D91DA
:101110008193F9CF842F089580E008950F93413291
:1011200008F046C090913E049111FCCF92E090935C
:101130003E0400933C049FEF9093D1031092160459
:1011400040931504FB0167E174E0DB019A2F961BC5
:10115000941718F491919D93F9CF10923D049091BA
:101160003D04880F892B80933D0480913B0481309E
:1011700041F410923B0480913D048093BB0085ECC8
:1011800001C085EE8093BC00222321F080913E04B3
:101190008230E1F38091D1038F3F61F08091D103E0
:1011A000803251F08091D103803341F483E007C055
:1011B00081E005C080E003C082E001C084E00F91BF
:1011C0000895613298F420913E04243089F46093AC
:1011D000F303FC0185EF93E0DC012A2F281B26177F
:1011E00018F421912D93F9CF80E0089581E00895BE
:1011F00082E0089585ED8093BC008091BC0084FD61
:10120000FCCF10923E04089585EC8093BC001092B0
:101210003E0408951F920F920FB60F9211242F9340
:101220003F934F935F936F937F938F939F93AF936E
:10123000BF93EF93FF938091B900887F803609F4C4
:101240009CC068F5883209F45BC090F4803109F4E1
:1012500054C038F4882309F4F5C0883009F44DC02F
:10126000F5C0883109F44CC0803209F45DC0EEC08D
:10127000803409F468C048F4803309F455C08833D9
:1012800009F0E4C08093D103A8C0803509F44FC0B1
:10129000883509F45DC0883409F0D8C0D5C08839D4
:1012A00009F4C6C0A8F4883709F467C038F4883652
:1012B00009F463C0803709F460C0C8C0883809F4F5
:1012C000B7C0803909F45FC0803809F0BFC05BC087
:1012D000803B09F485C038F4803A09F466C0883A46
:1012E00009F47EC0B3C0803C09F4A6C0883C09F470
:1012F000A3C0883B09F489C0A9C080913D0410C0F7
:101300009091160480911504981770F5E0911604D9
:1013100081E08E0F80931604F0E0E95EFB4F808140
:101320008093BB0085EC85C08093D1038DC0E09194
:10133000160481E08E0F809316048091BB00F0E0CC
:10134000E95EFB4F808390911604809115046DC077
:10135000E091160481E08E0F809316048091BB000B
:10136000F0E0E95EFB4F808380913C0481116CC00A
:1013700081E080933B0484EA60C083E080933E0474
:101380001092D203CFCF8091D203803208F050C0A8
:10139000E091D20381E08E0F8093D2038091BB0055
:1013A000F0E0ED52FC4F8083BDCF8091D2038032BC
:1013B00030F4E091D203F0E0ED52FC4F10820E9435
:1013C000FA086091D20370E0E0913704F09138049C
:1013D00083ED93E009951092D2030E94040936C070
:1013E00084E080933E041092F4031092F303E091A2
:1013F0003904F0913A0409958091F303811105C0F5
:1014000081E08093F3031092F503E091F40381E00F
:101410008E0F8093F403F0E0EB50FC4F80818093BB
:10142000BB009091F4038091F303981708F47ACFEE
:1014300085E88093BC000AC085EC8093BC001092C4
:101440003E0404C01092D1030E94FA08FF91EF916C
:10145000BF91AF919F918F917F916F915F914F91CC
:101460003F912F910F900FBE0F901F9018951F92D4
:101470000F920FB60F9211242F933F938F939F9348
:10148000AF93BF938091400490914104A091420496
:10149000B091430430913F0423E0230F2D3720F413
:1014A0000196A11DB11D05C026E8230F0296A11DBE
:1014B000B11D20933F048093400490934104A09376
:1014C0004204B09343048091440490914504A09158
:1014D0004604B09147040196A11DB11D80934404B8
:1014E00090934504A0934604B0934704BF91AF91F5
:1014F0009F918F913F912F910F900FBE0F901F9052
:1015000018953FB7F8948091440490914504A091B8
:101510004604B091470426B5A89B05C02F3F19F09B
:101520000196A11DB11D3FBF6627782F892F9A2FE5
:10153000620F711D811D911D42E0660F771F881F8C
:10154000991F4A95D1F70895CF92DF92EF92FF92BB
:10155000CF93DF936B017C010E94810AEB01C114E0
:10156000D104E104F10479F00E94810A6C1B7D0B27
:10157000683E7340A0F381E0C81AD108E108F10881
:10158000C851DC4FECCFDF91CF91FF90EF90DF900F
:10159000CF900895789484B5826084BD84B58160CD
:1015A00084BD85B5826085BD85B5816085BDEEE66B
:1015B000F0E0808181608083E1E8F0E0108280814A
:1015C00082608083808181608083E0E8F0E08081B8
:1015D00081608083E1EBF0E0808184608083E0EBD8
:1015E000F0E0808181608083EAE7F0E080818460C0
:1015F000808380818260808380818160808380811C
:10160000806880831092C1000895833081F028F4AF
:10161000813099F08230A1F008958630A9F08730AA
:10162000B9F08430D1F4809180008F7D03C0809127
:1016300080008F7780938000089584B58F7702C0F3
:1016400084B58F7D84BD08958091B0008F7703C0ED
:101650008091B0008F7D8093B0000895CF93DF9389
:1016600090E0FC01EC5CFE4F2491FC01E85BFE4F36
:101670008491882349F190E0880F991FFC01E0597B
:10168000FE4FA591B4918A599E4FFC01C591D4910A
:101690009FB7611108C0F8948C91209582238C9398
:1016A000888182230AC0623051F4F8948C91322FE1
:1016B000309583238C938881822B888304C0F8948F
:1016C0008C91822B8C939FBFDF91CF9108950F93C4
:1016D0001F93CF93DF931F92CDB7DEB7282F30E053
:1016E000F901E05EFE4F8491F901EC5CFE4F14912C
:1016F000F901E85BFE4F04910023C9F0882321F033
:1017000069830E94050B6981E02FF0E0EE0FFF1F57
:10171000EA59FE4FA591B4919FB7F8948C9161114D
:1017200003C01095812301C0812B8C939FBF0F9024
:10173000DF91CF911F910F910895CF93DF93282FC1
:1017400030E0F901E05EFE4F8491F901EC5CFE4F60
:10175000D491F901E85BFE4FC491CC2391F0811143
:101760000E94050BEC2FF0E0EE0FFF1FE45AFE4F36
:10177000A591B4912C912D2381E090E021F480E09B
:1017800002C080E090E0DF91CF9108950E94CA0AE4
:101790000E940002CFE9DCE00E9494032097E1F36D
:1017A0000E949F0CF9CFFC0124853585F901E05C8E
:1017B000FF4F80819181329620813181821B930B72
:1017C0008F7399270895FC0184859585FC01E05C61
:1017D000FF4F40815181329620813181421753075A
:1017E00041F00190F081E02DE80FF91F808190E039
:1017F00008958FEF9FEF0895FC0184859585FC0186
:10180000E05CFF4F40815181329620813181421747
:10181000530779F0A081B181A80FB91F8C91208165
:1018200031812F5F3F4F2F7333273183208390E027
:1018300008958FEF9FEF0895FC0181A1882329F07F
:10184000A489B5898C9186FFFBCF11A20895CF930F
:10185000DF93FC0126853785D901A05CBF4F8D91B0
:101860009C91119701968F739927E901CE5BDF4F09
:101870004881598184179507D9F30D90BC91A02D0B
:10188000A20FB31F6C93A685B785A05CBF4F1196BE
:101890009C938E93A689B7892C9181E090E0078C68
:1018A00002C0880F991F0A94E2F7282B2C9381E03D
:1018B00081A30488F589E02D80818064808381E0A4
:1018C00090E0DF91CF91089508951F920F920FB687
:1018D0000F9211242F933F934F938F939F93EF93E6
:1018E000FF938091C00082FD1CC04091C600809192
:1018F000EE049091EF0401968F7399272091F004E4
:101900003091F1048217930771F0E091EE04F091A9
:10191000EF04E255FB4F40839093EF048093EE0475
:1019200002C08091C600FF91EF919F918F914F91DE
:101930003F912F910F900FBE0F901F90189588E444
:1019400094E00E94D30B892B11F00C94640C089541
:101950001F920F920FB60F9211242F933F938F93E4
:101960009F93EF93FF932091AA043091AB04809151
:10197000AC049091AD042817390731F48091C1006F
:101980008F7D8093C10014C0E091AC04F091AD0450
:10199000E659FB4F20818091AC049091AD040196F3
:1019A0008F7399279093AD048093AC042093C60065
:1019B000FF91EF919F918F913F912F910F900FBECB
:1019C0000F901F901895CF92DF92EF92FF92CF93D6
:1019D000DF93EC016A017B01411581EE5807610537
:1019E0007105F9F0EC89FD8981E090E008A002C062
:1019F000880F991F0A94E2F7808360E079E08DE315
:101A000090E0A70196010E942F122150310941094F
:101A100051095695479537952795211580E1380747
:101A200098F0EC89FD89108260E874E88EE190E01E
:101A3000A70196010E942F12215031094109510935
:101A40005695479537952795E889F9893083EA892E
:101A5000FB89208319A2EE89FF89408181E090E013
:101A60009C010C8C02C0220F331F0A94E2F7422B18
:101A70004083EE89FF8940819C010D8C02C0220FBA
:101A8000331F0A94E2F7422B4083EE89FF8940819D
:101A90009C010E8C02C0220F331F0A94E2F7422BE6
:101AA0004083EE89FF8920810F8C02C0880F991F27
:101AB0000A94E2F7809582238083DF91CF91FF9093
:101AC000EF90DF90CF90089510924B0410924A044B
:101AD00088EE93E0A0E0B0E080934C0490934D0436
:101AE000A0934E04B0934F0483EC92E0909349048A
:101AF000809348048EEA94E09093550480935404B4
:101B00008AE694E0909357048093560485EC90E025
:101B1000909359048093580484EC90E090935B0474
:101B200080935A0480EC90E090935D0480935C0471
:101B300081EC90E090935F0480935E0482EC90E0EF
:101B4000909361048093600486EC90E0909363042A
:101B50008093620484E08093640483E0809365044E
:101B600087E08093660485E08093670481E080933A
:101B700068040895CF92DF92EF92FF920F931F9324
:101B8000CF93DF936C017A01EB01E60EF71E00E0C4
:101B900010E0CE15DF0561F06991D601ED91FC9161
:101BA0000190F081E02DC6010995080F191FF1CFB2
:101BB000C801DF91CF911F910F91FF90EF90DF90BF
:101BC000CF9008956115710581F0DB010D90002023
:101BD000E9F7AD0141505109461B570BDC01ED916E
:101BE000FC910280F381E02D099480E090E008955B
:101BF000EF92FF920F931F93CF93DF938C01FB0122
:101C0000C0E0D0E064917F018FEFE81AF80A662304
:101C100061F0D801ED91FC910190F081E02DC801B7
:101C20000995C80FD91FF701EDCFCE01DF91CF91F4
:101C30001F910F91FF90EF9008950C94E20DDC013D
:101C4000ED91FC910190F081E02D09940F931F9389
:101C5000CF93DF93EC016DE00E941F0E8C016AE0D0
:101C6000CE010E941F0E800F911FDF91CF911F9117
:101C70000F9108950F931F93CF93DF93EC010E9470
:101C8000E20D8C01CE010E94260E800F911FDF9184
:101C9000CF911F910F9108958F929F92AF92BF9213
:101CA000CF92DF92EF92FF920F931F93CF93DF9328
:101CB000CDB7DEB7A1970FB6F894DEBF0FBECDBF8C
:101CC0007C01C42EE52FCB01D22E19A221E02D15C7
:101CD00010F02AE0D22E8E010F5D1F4F8D2C912C1B
:101CE000A12CB12C6C2D7E2FA50194010E942F12E6
:101CF0008C2DD29E80191124015011098A3014F4C0
:101D0000805D01C0895CF8018083211531054105A2
:101D1000510521F0C22EE32FCA01E4CFB801C7015B
:101D20000E94E20DA1960FB6F894DEBF0FBECDBFA4
:101D3000DF91CF911F910F91FF90EF90DF90CF90A7
:101D4000BF90AF909F908F900895CF92DF92EF92C7
:101D5000FF920F931F93CF93DF93EC016A017B01F6
:101D60002115310579F4E881F9810190F081E02DA8
:101D7000642FDF91CF911F910F91FF90EF90DF9033
:101D8000CF9009942A303105E9F477FF1AC06DE24B
:101D90000E941F0E8C0144275527BA014C195D097A
:101DA0006E097F092AE0CE010E944C0E800F911F20
:101DB000DF91CF911F910F91FF90EF90DF90CF9027
:101DC00008952AE0B701A601CE01DF91CF911F91BE
:101DD0000F91FF90EF90DF90CF900C944C0E9A01F2
:101DE000AB01662757FD6095762F0C94A50E0F93D7
:101DF0001F93CF93DF93EC019A01AB01662757FD48
:101E00006095762F0E94A50E8C01CE010E94260EB1
:101E1000800F911FDF91CF911F910F9108954F92E5
:101E20005F926F927F928F929F92AF92BF92CF926A
:101E3000DF92EF92FF920F931F93CF93DF93EC010A
:101E40006A017B01B22E9A01AB01C701B6010E9463
:101E50001712882319F06FEC72E027C026013701B2
:101E6000E89477F82FEF3FEF4FE75FE7C301B20148
:101E70000E94171281110DC02FEF3FEF4FE75FE770
:101E8000C301B2010E94611018161CF463ED72E0E8
:101E90000CC02FEF3FEF4FE75FE4C701B6010E9490
:101EA000B0111816ACF467ED72E0CE01DF91CF915E
:101EB0001F910F91FF90EF90DF90CF90BF90AF9068
:101EC0009F908F907F906F905F904F900C94E20D59
:101ED0002FEF3FEF4FE75FECC701B6010E946110A3
:101EE00087FDE1CF20E030E0A901C701B6010E94E3
:101EF000611087FF0AC06DE2CE010E941F0E8C01A7
:101F0000F7FAF094F7F8F09402C000E010E0A12C8A
:101F100060E070E080E09FE3AB1441F020E030E04F
:101F200040E251E40E946510A394F6CF9B01AC01FE
:101F3000C701B6010E94FD0F6B017C010E94D21007
:101F40002B013C010E94FE109B01AC01C701B601B0
:101F50000E94FC0F6B017C012AE0B301A201CE01BB
:101F60000E944C0E080F191FBB2039F06BED72E078
:101F7000CE010E94E20D080F191F7B2C772041F142
:101F800020E030E040E251E4C701B6010E94B41104
:101F90006B017C010E94CD104B01AA2497FCA094F8
:101FA000BA2C2AE030E0B501A401CE010E94A50EB2
:101FB000080F191FC501B4010E9400119B01AC015B
:101FC000C701B6010E94FC0F6B017C017A94D6CF49
:101FD000C801DF91CF911F910F91FF90EF90DF909B
:101FE000CF90BF90AF909F908F907F906F905F90B9
:101FF0004F9008950C940F0F5058BB27AA270ED06E
:1020000075C166D130F06BD120F031F49F3F11F4EF
:102010001EF45BC10EF4E095E7FB51C1E92F77D1C7
:1020200080F3BA17620773078407950718F071F4F5
:102030009EF58FC10EF4E0950B2EBA2FA02D0B014B
:10204000B90190010C01CA01A0011124FF27591BFD
:1020500099F0593F50F4503E68F11A16F040A22F03
:10206000232F342F4427585FF3CF46953795279574
:10207000A795F0405395C9F77EF41F16BA0B620B73
:10208000730B840BBAF09150A1F0FF0FBB1F661FBA
:10209000771F881FC2F70EC0BA0F621F731F841FFD
:1020A00048F4879577956795B795F7959E3F08F023
:1020B000B3CF9395880F08F09927EE0F97958795E2
:1020C0000895D9D008F481E008950CD00FC107D14C
:1020D00040F0FED030F021F45F3F19F0F0C0511114
:1020E00039C1F3C014D198F39923C9F35523B1F33F
:1020F000951B550BBB27AA2762177307840738F077
:102100009F5F5F4F220F331F441FAA1FA9F333D0D5
:102110000E2E3AF0E0E830D091505040E695001C89
:10212000CAF729D0FE2F27D0660F771F881FBB1F45
:10213000261737074807AB07B0E809F0BB0B802D1F
:10214000BF01FF2793585F4F2AF09E3F510568F06B
:10215000B6C000C15F3FECF3983EDCF386957795FF
:102160006795B795F7959F5FC9F7880F911D96956D
:10217000879597F90895E1E0660F771F881FBB1FC9
:10218000621773078407BA0720F0621B730B840B76
:10219000BA0BEE1F88F7E095089504D06894B1114A
:1021A000D9C00895BCD088F09F5790F0B92F9927D7
:1021B000B751A0F0D1F0660F771F881F991F1AF052
:1021C000BA95C9F712C0B13081F0C3D0B1E008951B
:1021D000C0C0672F782F8827B85F39F0B93FCCF39C
:1021E000869577956795B395D9F73EF49095809548
:1021F000709561957F4F8F4F9F4F0895E89409C068
:1022000097FB3EF490958095709561957F4F8F4F29
:102210009F4F9923A9F0F92F96E9BB279395F6953F
:10222000879577956795B795F111F8CFFAF4BB0FBD
:1022300011F460FF1BC06F5F7F4F8F4F9F4F16C021
:10224000882311F096E911C0772321F09EE8872FAB
:10225000762F05C0662371F096E8862F70E060E067
:102260002AF09A95660F771F881FDAF7880F9695E0
:10227000879597F90895990F0008550FAA0BE0E884
:10228000FEEF16161706E807F907C0F01216130638
:10229000E407F50798F0621B730B840B950B39F478
:1022A0000A2661F0232B242B252B21F408950A26DE
:1022B00009F4A140A6958FEF811D811D089597F91E
:1022C0009F6780E870E060E008959FEF80EC0895DC
:1022D00000240A9416161706180609060895002405
:1022E0000A9412161306140605060895092E03947F
:1022F000000C11F4882352F0BB0F40F4BF2B11F4F3
:1023000060FF04C06F5F7F4F8F4F9F4F089557FD51
:102310009058440F551F59F05F3F71F04795880F53
:1023200097FB991F61F09F3F79F0879508951216EA
:1023300013061406551FF2CF4695F1DF08C0161696
:1023400017061806991FF1CF869571056105089447
:102350000895E894BB2766277727CB0197F908955E
:102360008ADF08F48FEF08950BD0C0CFB1DF28F0DB
:10237000B6DF18F0952309F0A2CFA7CF1124EACF3A
:10238000C6DFA0F3959FD1F3950F50E0551F629FD4
:10239000F001729FBB27F00DB11D639FAA27F00DBE
:1023A000B11DAA1F649F6627B00DA11D661F829FE5
:1023B0002227B00DA11D621F739FB00DA11D621FCA
:1023C000839FA00D611D221F749F3327A00D611DE7
:1023D000231F849F600D211D822F762F6A2F1124C9
:1023E0009F5750408AF0E1F088234AF0EE0FFF1F1C
:1023F000BB1F661F771F881F91505040A9F79E3F53
:10240000510570F05CCFA6CF5F3FECF3983EDCF354
:10241000869577956795B795F795E7959F5FC1F78F
:10242000FE2B880F911D9695879597F9089523DFC8
:10243000880B990B089597FB072E16F4009407D08C
:1024400077FD09D00E94511207FC05D03EF490950B
:1024500081959F4F0895709561957F4F0895A1E2F2
:102460001A2EAA1BBB1BFD010DC0AA1FBB1FEE1F0E
:10247000FF1FA217B307E407F50720F0A21BB30B59
:10248000E40BF50B661F771F881F991F1A9469F7D5
:1024900060957095809590959B01AC01BD01CF0131
:1024A0000895AA1BBB1B51E107C0AA1FBB1FA6179B
:1024B000B70710F0A61BB70B881F991F5A95A9F7ED
:1024C00080959095BC01CD010895EE0FFF1F0590FA
:1024D000F491E02D0994F999FECF92BD81BDF89A4F
:1024E000992780B5089511E0C0E8D1E004C0FE014D
:1024F0000E9467122296C238D107C9F7F894FFCF1D
:102500004800526963657675746F2064616C206D54
:10251000617374657220692073656775656E74698F
:102520002064617469203A202D2D2D2D2D2D2D2D07
:102530002D2D2D2D2D2D2D2D2D2D2D2D2D2D2D2DCB
:102540002D2D2D2D2D2D2D2D2D2D2D2D2D2D2D2DBB
:102550002D2D2D2D005B0009002D2D2D2D2D2D2D28
:102560002D2D2D2D2D2D2D2D2D2D2D2D2D2D2D2D9B
:102570002D2D2D2D2D2D2D2D2D2D2D2D2D2D2D2D8B
:102580002D2D2D2D2D2D2D2D2D2D2D2D2D2D2D2D7B
:102590002D2D2D2D2D2D2D66696E6520646174699C
:1025A0002064616C206D617374657200696E766978
:1025B00061746F20616C206D6173746572202D3EB3
:1025C0002020202D2D2D2D2D2D2D2D2D2D2D2D2D62
:1025D0002D2D2D2D2D2D2D2D2D2D2D2D2D2D2D2D2B
:1025E0002D2D2D2D2D2D2D2D2D2D2D2D2D2D2D2D1B
:1025F0002D2D2D696E697A696F2064617469002DD3
:102600002D2D2D2D2D2D2D2D2D2D2D2D2D2D2D2DFA
:102610002D2D2D2D2D2D2D2D2D2D2D2D2D2D2D2DEA
:102620002D2D2D2D2D2D2D2D2D2D2D2D2D2D2D2DDA
:102630002D2D2D2D2D2D2D2D2D2D2D2D2D2D2D2DCA
:102640002D2D2D2D2D2D2D2D66696E652064617427
:102650006900536C617665206162696C69746174AC
:102660006F0054656D703D0020416C61726D3D20BE
:10267000002D3E002C0020C2B0430045565649565E
:10268000412120496C20636F6D616E646F20652766
:1026900020706572206D652120005B53325D000063
:1026A0000000002405BA0D6204270448047A0400DF
:1026B000000000B007830758076007730782070010
:1026C000000000270CBA0DD30BFC0BE30B1C0C6EA7
:0E26D000616E00696E66006F7666002E000077
:00000001FF
