:100000000C945E000C9486000C9486000C94860080
:100010000C9486000C9486000C9486000C94860048
:100020000C9486000C9486000C9486000C94860038
:100030000C9486000C9486000C9486000C94860028
:100040000C9471030C9486000C9476050C94B905FD
:100050000C9486000C9486000C9486000C94860008
:100060000C9486000C94860000000007000201003A
:100070000003040600000000000000000102040864
:100080001020408001020408102001020408102002
:10009000040404040404040402020202020203032E
:1000A0000303030300000000250028002B000000CC
:1000B0000000240027002A00A401750611241FBE99
:1000C000CFEFD8E0DEBFCDBF17E0A0E0B1E0EAE4BB
:1000D000F0E102C005900D92A438B107D9F728E0ED
:1000E000A4E8B7E001C01D92A139B207E1F710E022
:1000F000CCEBD0E004C02297FE010E941F08C83B51
:10010000D107C9F70E94D7040C9423080C9400006F
:1001100040E855E260E070E087EE97E00E94F40569
:1001200040E060E070E086E897E00E941F0241E056
:1001300050E060E070E086E897E00E94420260E0F4
:1001400070E086E897E00E94520240E061E070E0D3
:1001500086E897E00E941F0241E050E061E070E015
:1001600086E897E00E94420261E070E086E897E04E
:100170000E94520240E062E070E086E897E00E9450
:100180001F0241E050E062E070E086E897E00E94E4
:10019000420262E070E086E897E00C945202EF922F
:1001A000FF920F931F93CF93DF93EE24E394F12CF0
:1001B00000E010E0F0928507E0928407C0E0D0E014
:1001C000E0918407F0918507EC0FFD1FEE0FFF1FF4
:1001D000E050FF4F2081AE0160E070E086E897E0DC
:1001E0000E941503E0918407F0918507EC0FFD1F35
:1001F000EE0FFF1FE050FF4F2081AE0162E070E084
:1002000086E897E00E9415032196C830D105C1F613
:100210004AE050E0B80187EE97E00E94DB0766E60F
:1002200077E087EE97E00E9409076091840770915C
:1002300085074AE050E087EE97E00E94DB0769E619
:1002400077E087EE97E00E94260760916207709141
:10025000630780916407909165070E94DE030F5F3A
:100260001F4F88E0E80EF11C0730110509F0A2CFFE
:1002700029E3E22EF12C07E010E0F0928507E092EE
:100280008407C0E0D0E0E0918407F0918507EC0F8F
:10029000FD1FEE0FFF1FE050FF4F2081AE0160E019
:1002A00070E086E897E00E941503E0918407F091E2
:1002B0008507EC0FFD1FEE0FFF1FE050FF4F208161
:1002C000AE0162E070E086E897E00E941503219697
:1002D000C830D105C1F64AE050E0B80187EE97E09A
:1002E0000E94DB0766E677E087EE97E00E94090749
:1002F00060918407709185074AE050E087EE97E0AF
:100300000E94E3076EE677E087EE97E00E942607FB
:10031000609162077091630780916407909165070F
:100320000E94DE030150110988E0E81AF108011566
:10033000110509F0A2CFDF91CF911F910F91FF908E
:10034000EF9008950C94CF000F931F9303E010E0FB
:1003500027E030E046E050E065E070E086E897E0B6
:100360000E9488021F910F9108958F929F92AF92E1
:10037000BF92CF92DF92EF92FF920F931F93CF9392
:10038000DF9300D0CDB7DEB78C0149832A83660F97
:10039000771FF801EA5AFF4FE080F180EE0CFF1C56
:1003A00080E090E08E159F0544F4F801E80FF91FF6
:1003B000E05CFF4F10820196F5CF8981600F711FBD
:1003C000FB01EF5BFF4F80838A8131978083680157
:1003D00084E5C80ED11C60E0F60180810E94A10472
:1003E0005801F2E5AF0EB11C480180E5880E911C62
:1003F0001E141F048CF4E1E0EE1AF108F801EE0D72
:10040000FF1DE05CFF4F208141E0F5016081F401B8
:1004100080810E943203ECCF61E0F60180810F9071
:100420000F90DF91CF911F910F91FF90EF90DF9090
:10043000CF90BF90AF909F908F900C94A10477FDC8
:1004400010C0FC01EA5AFF4F208131816217730707
:1004500044F4442311F020E001C021E04CE00C946E
:10046000B5010895242F77FD0CC0FC01EA5AFF4F17
:100470000190F081E02D6E177F071CF44BE00C9487
:10048000B5010895242F77FD0CC0FC01EA5AFF4FF7
:100490000190F081E02D6E177F071CF44AE00C9468
:1004A000B5010895CF92DF92EF92FF920F931F93C1
:1004B000CF93DF937C018B0177FD21C0FC01EA5AC9
:1004C000FF4F8081918168177907CCF46B0123E09D
:1004D000CC0CDD1C2A95E1F7C0E0D0E0CE0CDF1C8F
:1004E000F601EC0FFD1F10824C2F4F5F20E0B8018A
:1004F000C7010E94B5012196C830D10589F7DF9167
:10050000CF911F910F91FF90EF90DF90CF900895C2
:100510004F925F927F928F929F92AF92BF92CF92B3
:10052000DF92EF92FF920F931F93CF93DF931F926F
:10053000CDB7DEB72C01762E7C0180E5E80EF11CEC
:10054000F701608371834201F2E58F0E911CF40183
:10055000518340836201F4E5CF0ED11CF601318353
:100560002083C8010197089710F008E010E05201BD
:10057000F6E5AF0EB11CF5011183008361E0872D14
:1005800079830E94680461E0F40180810E9468041C
:1005900061E0F60180810E94680461E0F6018081DB
:1005A0000E94A104F701708279817183F20180E0D9
:1005B00090E01192019680349105D9F700E010E0A7
:1005C000F5018081918108171907F4F420E04FE0CC
:1005D000B801C2010E94B50147E050E0B801C20174
:1005E0000E94320220E049E0B801C2010E94B50138
:1005F000B801C2010E94520241E0B801C2010E944A
:100600001F020F5F1F4FDCCF0F90DF91CF911F9123
:100610000F91FF90EF90DF90CF90BF90AF909F90A1
:100620008F907F905F904F90089577FD1AC0FC01E6
:10063000EA5AFF4F0190F081E02D6E177F078CF48E
:100640004830510570F4FB01A3E0EE0FFF1FAA959F
:10065000E1F7E40FF51FE80FF91F20834F5F0C94BB
:10066000B5010895BF92CF92DF92EF92FF920F9360
:100670001F93CF93DF93C82ED62EB42EC7E0D0E0C1
:10068000022F10E087E0E82EF12CB1100AC0F7012C
:10069000EC1BFD0BB80102C075956795EA95E2F772
:1006A00007C0B8010C2E02C0759567950A94E2F751
:1006B000617077278C2D0E94A10461E08D2D0E942E
:1006C000A10460E08D2D0E94A1042197F0F6DF9136
:1006D000CF911F910F91FF90EF90DF90CF90BF903F
:1006E00008951F920F920FB60F9211242F933F93EC
:1006F0008F939F93AF93BF938091DF079091E00713
:10070000A091E107B091E2073091DE0723E0230FCB
:100710002D3720F40196A11DB11D05C026E8230F39
:100720000296A11DB11D2093DE078093DF079093F1
:10073000E007A093E107B093E2078091E30790916F
:10074000E407A091E507B091E6070196A11DB11D50
:100750008093E3079093E407A093E507B093E6073F
:10076000BF91AF919F918F913F912F910F900FBEAD
:100770000F901F9018953FB7F8948091E3079091E0
:10078000E407A091E507B091E60726B5A89B05C050
:100790002F3F19F00196A11DB11D3FBF6627782F8D
:1007A000892F9A2F620F711D811D911D42E0660FE6
:1007B000771F881F991F4A95D1F70895CF92DF922E
:1007C000EF92FF92CF93DF936B017C010E94BB03FA
:1007D000EB01C114D104E104F10479F00E94BB03E0
:1007E0006C1B7D0B683E7340A0F381E0C81AD108F2
:1007F000E108F108C851DC4FECCFDF91CF91FF90B9
:10080000EF90DF90CF900895789484B5826084BD96
:1008100084B5816084BD85B5826085BD85B5816004
:1008200085BDEEE6F0E0808181608083E1E8F0E064
:100830001082808182608083808181608083E0E893
:10084000F0E0808181608083E1EBF0E08081846072
:100850008083E0EBF0E0808181608083EAE7F0E074
:1008600080818460808380818260808380818160D8
:1008700080838081806880831092C10008958330D6
:1008800081F028F4813099F08230A1F0089586300B
:10089000A9F08730B9F08430D1F4809180008F7D49
:1008A00003C0809180008F7780938000089584B585
:1008B0008F7702C084B58F7D84BD08958091B0008C
:1008C0008F7703C08091B0008F7D8093B000089532
:1008D000CF93DF9390E0FC01E458FF4F2491FC019B
:1008E000E057FF4F8491882349F190E0880F991FCA
:1008F000FC01E255FF4FA591B4918C559F4FFC012F
:10090000C591D4919FB7611108C0F8948C9120953E
:1009100082238C93888182230AC0623051F4F89438
:100920008C91322F309583238C938881822B8883FE
:1009300004C0F8948C91822B8C939FBFDF91CF9150
:1009400008950F931F93CF93DF931F92CDB7DEB718
:10095000282F30E0F901E859FF4F8491F901E4585C
:10096000FF4F1491F901E057FF4F04910023C9F0A4
:10097000882321F069830E943F046981E02FF0E021
:10098000EE0FFF1FEC55FF4FA591B4919FB7F89460
:100990008C91611103C01095812301C0812B8C9330
:1009A0009FBF0F90DF91CF911F910F9108950E94EB
:1009B00004040E948800C0EBD5E00E94A2012097A9
:1009C000E1F30E94B005F9CFFC0124853585F901DA
:1009D000E05CFF4F80819181329620813181821BC2
:1009E000930B8F7399270895FC0184859585FC01ED
:1009F000E05CFF4F40815181329620813181421766
:100A0000530741F00190F081E02DE80FF91F80813C
:100A100090E008958FEF9FEF0895FC018485958500
:100A2000FC01E05CFF4F4081518132962081318191
:100A30004217530779F0A081B181A80FB91F8C919B
:100A4000208131812F5F3F4F2F73332731832083E4
:100A500090E008958FEF9FEF0895FC0181A1882316
:100A600029F0A489B5898C9186FFFBCF11A2089546
:100A7000CF93DF93FC0126853785D901A05CBF4F5A
:100A80008D919C91119701968F739927E901CE5B07
:100A9000DF4F4881598184179507D9F30D90BC9198
:100AA000A02DA20FB31F6C93A685B785A05CBF4F86
:100AB00011969C938E93A689B7892C9181E090E042
:100AC000078C02C0880F991F0A94E2F7282B2C93F9
:100AD00081E081A30488F589E02D80818064808392
:100AE00081E090E0DF91CF91089508951F920F92D9
:100AF0000FB60F9211242F933F934F938F939F9391
:100B0000EF93FF938091C00082FD1CC04091C6000E
:100B100080918D0890918E0801968F73992720916E
:100B20008F08309190088217930771F0E0918D083B
:100B3000F0918E08E35BF74F408390938E0880938B
:100B40008D0802C08091C600FF91EF919F918F9117
:100B50004F913F912F910F900FBE0F901F901895BE
:100B600087EE97E00E94E404892B11F00C94750540
:100B700008951F920F920FB60F9211242F933F9357
:100B80008F939F93EF93FF932091490830914A08E8
:100B900080914B0890914C082817390731F48091C7
:100BA000C1008F7D8093C10014C0E0914B08F0918B
:100BB0004C08E75FF74F208180914B0890914C08DB
:100BC00001968F73992790934C0880934B0820933C
:100BD000C600FF91EF919F918F913F912F910F90C0
:100BE0000FBE0F901F901895CF92DF92EF92FF9259
:100BF000CF93DF93EC016A017B01411581EE580729
:100C000061057105F9F0EC89FD8981E090E008A0AB
:100C100002C0880F991F0A94E2F7808360E079E0B0
:100C20008DE390E0A70196010E94FB072150310956
:100C3000410951095695479537952795211580E12A
:100C4000380798F0EC89FD89108260E874E88EE13D
:100C500090E0A70196010E94FB072150310941094C
:100C600051095695479537952795E889F989308335
:100C7000EA89FB89208319A2EE89FF89408181E0FE
:100C800090E09C010C8C02C0220F331F0A94E2F703
:100C9000422B4083EE89FF8940819C010D8C02C06C
:100CA000220F331F0A94E2F7422B4083EE89FF891B
:100CB00040819C010E8C02C0220F331F0A94E2F780
:100CC000422B4083EE89FF8920810F8C02C0880F60
:100CD000991F0A94E2F7809582238083DF91CF9158
:100CE000FF90EF90DF90CF9008951092EA07109256
:100CF000E90788EE93E0A0E0B0E08093EB079093E3
:100D0000EC07A093ED07B093EE0788E797E0909388
:100D1000E8078093E7078DE498E09093F4078093C9
:100D2000F30789E098E09093F6078093F50785EC48
:100D300090E09093F8078093F70784EC90E090930D
:100D4000FA078093F90780EC90E09093FC0780937A
:100D5000FB0781EC90E09093FE078093FD0782EC07
:100D600090E0909300088093FF0786EC90E09093CA
:100D700002088093010884E08093030883E0809355
:100D8000040887E08093050885E08093060881E0E9
:100D9000809307080895CF92DF92EF92FF920F930E
:100DA0001F93CF93DF936C017A01EB01E60EF71EE0
:100DB00000E010E0CE15DF0561F06991D601ED91FC
:100DC000FC910190F081E02DC6010995080F191FD3
:100DD000F1CFC801DF91CF911F910F91FF90EF905C
:100DE000DF90CF9008956115710581F0DB010D90C2
:100DF0000020E9F7AD0141505109461B570BDC01BA
:100E0000ED91FC910280F381E02D099480E090E067
:100E100008950C94F306DC01ED91FC910190F081B2
:100E2000E02D09940F931F93CF93DF93EC016DE0B6
:100E30000E940B078C016AE0CE010E940B07800F15
:100E4000911FDF91CF911F910F9108950F931F93E1
:100E5000CF93DF93EC010E94F3068C01CE010E9438
:100E60001207800F911FDF91CF911F910F9108956D
:100E70008F929F92AF92BF92CF92DF92EF92FF92AA
:100E80000F931F93CF93DF93CDB7DEB7A1970FB624
:100E9000F894DEBF0FBECDBF7C01C42EE52FCB0181
:100EA000D22E19A221E02D1510F02AE0D22E8E01AB
:100EB0000F5D1F4F8D2C912CA12CB12C6C2D7E2FF2
:100EC000A50194010E94FB078C2DD29E801911244C
:100ED000015011098A3014F4805D01C0895CF80169
:100EE0008083211531054105510521F0C22EE32FE4
:100EF000CA01E4CFB801C7010E94F306A1960FB65C
:100F0000F894DEBF0FBECDBFDF91CF911F910F913F
:100F1000FF90EF90DF90CF90BF90AF909F908F9019
:100F20000895CF92DF92EF92FF920F931F93CF938A
:100F3000DF93EC016A017B012115310579F4E88129
:100F4000F9810190F081E02D642FDF91CF911F9105
:100F50000F91FF90EF90DF90CF9009942A303105E8
:100F6000E9F477FF1AC06DE20E940B078C01442759
:100F70005527BA014C195D096E097F092AE0CE0197
:100F80000E943807800F911FDF91CF911F910F9121
:100F9000FF90EF90DF90CF9008952AE0B701A6016F
:100FA000CE01DF91CF911F910F91FF90EF90DF90D5
:100FB000CF900C9438079A01AB01662757FD6095D6
:100FC000762F0C9491070F931F93CF93DF93EC012F
:100FD0009A01AB01662757FD6095762F0E94910715
:100FE0008C01CE010E941207800F911FDF91CF91DB
:100FF0001F910F910895A1E21A2EAA1BBB1BFD01A0
:101000000DC0AA1FBB1FEE1FFF1FA217B307E407E7
:10101000F50720F0A21BB30BE40BF50B661F771F3F
:10102000881F991F1A9469F760957095809590951F
:101030009B01AC01BD01CF010895EE0FFF1F05908C
:0A104000F491E02D0994F894FFCF1D
:10104A00000018002400420042004200420024002E
:10105A00180018003C005A004200420042002400D6
:10106A001800180024005A005A00420042002400C6
:10107A0018001800240042005A005A0042002400B6
:10108A00180018002400420042005A005A002400A6
:10109A001800180024004200420042005A003C0096
:1010AA0018001800100010001000100010001000A6
:1010BA00180000000000000000000000000000000E
:1010CA00000000005F0000000000000000000000B7
:1010DA000000000003000000030000000000000000
:1010EA000000000014003E0014003E00140000003E
:1010FA000000000024006A002B001200000000001B
:10110A000000000063001300080064006300000090
:10111A000000000036004900560020005000000080
:10112A0000000000030000000000000000000000B2
:10113A00000000001C002200410000000000000026
:10114A0000000000410022001C0000000000000016
:10115A0000000000280018000E00180028000000F7
:10116A0000000000080008003E0008000800000017
:10117A0000000000B0007000000000000000000045
:10118A000000000008000800080008000000000035
:10119A000000000060006000000000000000000085
:1011AA0000000000600018000600010000000000B6
:1011BA00000000003E00410041003E000000000027
:1011CA000000000042007F00400000000000000014
:1011DA0000000000620051004900460000000000C3
:1011EA000000000022004100490036000000000013
:1011FA00000000001800140012007F000000000028
:10120A0000000000270045004500390000000000EA
:10121A00000000003E0049004900300000000000C4
:10122A000000000061001100090007000000000032
:10123A0000000000360049004900360000000000A6
:10124A00000000000600490049003E0000000000BE
:10125A000000000050000000000000000000000034
:10126A0000000000800050000000000000000000A4
:10127A0000000000100028004400000000000000E8
:10128A000000000014001400140000000000000018
:10129A0000000000440028001000000000000000C8
:1012AA0000000000020059000900060000000000CA
:1012BA00000000003E00490055005D000E000000DD
:1012CA00000000007E00110011007E0000000000F6
:1012DA00000000007F0049004900360000000000BD
:1012EA00000000003E004100410022000000000012
:1012FA00000000007F00410041003E0000000000A5
:10130A00000000007F004900490041000000000081
:10131A00000000007F000900090001000000000031
:10132A00000000003E00410049007A000000000071
:10133A00000000007F00080008007F000000000095
:10134A000000000041007F00410000000000000092
:10135A00000000003000400041003F000000000093
:10136A00000000007F000800140063000000000075
:10137A00000000007F004000400040000000000024
:10138A00000000007F0002000C0002007F00000045
:10139A00000000007F000400080010007F00000029
:1013AA00000000003E00410041003E000000000035
:1013BA00000000007F00090009000600000000008C
:1013CA00000000003E0041004100BE000000000095
:1013DA00000000007F0009000900760000000000FC
:1013EA0000000000460049004900320000000000E9
:1013FA0000000000010001007F0001000100000060
:10140A00000000003F00400040003F0000000000D4
:10141A00000000000F003000400030000F00000004
:10142A00000000003F004000380040003F0000007C
:10143A0000000000630014000800140063000000AC
:10144A000000000007000800700008000700000004
:10145A000000000061005100490047000000000040
:10146A00000000007F0041000000000000000000B2
:10147A0000000000010006001800600000000000E3
:10148A000000000041007F00000000000000000092
:10149A00000000000200010002000000000000003D
:1014AA000000000040004000400040000000000032
:1014BA00000000000100020000000000000000001F
:1014CA0000000000200054005400780000000000D2
:1014DA00000000007F0044004400380000000000C3
:1014EA00000000003800440044002800000000000A
:1014FA00000000003800440044007F0000000000A3
:10150A0000000000380054005400180000000000D9
:10151A000000000004007E0005000000000000003A
:10152A00000000009800A400A40078000000000059
:10153A00000000007F0004000400780000000000A2
:10154A000000000044007D00400000000000000090
:10155A00000000004000800084007D0000000000C0
:10156A00000000007F001000280044000000000076
:10157A000000000041007F00400000000000000061
:10158A00000000007C0004007C00040078000000D9
:10159A00000000007C000400040078000000000045
:1015AA000000000038004400440038000000000039
:1015BA0000000000FC0024002400180000000000C5
:1015CA0000000000180024002400FC0000000000B5
:1015DA00000000007C000800040004000000000075
:1015EA0000000000480054005400240000000000DD
:1015FA000000000004003F0044000000000000005A
:10160A00000000003C00400040007C000000000098
:10161A00000000001C002000400020001C00000008
:10162A00000000003C0040003C0040003C0000007C
:10163A0000000000440028001000280044000000B8
:10164A00000000009C00A000A0007C000000000038
:10165A0000000000640054004C000000000000007C
:10166A0000000000080036004100000000000000F1
:10167A00000000007F0000000000000000000000E1
:10168A0000000000410036000800000000000000D1
:10169A000000000008000400080004000000000028
:1016AA0000005E01000020200020737520002067E2
:1016BA0069752000000000003805CB06E4040D051A
:0416CA00F4042D05F2
:00000001FF
