:100000000C94ED000C9415010C9415010C94F10660
:100010000C9415070C9439070C9415010C941501D8
:100020000C9415010C9415010C9415010C941501F8
:100030000C9415010C9415010C9415010C941501E8
:100040000C94B3080C9415010C94C40A0C94070B7F
:100050000C9415010C9415010C9415010C941501C8
:100060000C9415010C94150152657175657374201B
:100070006973204E4F5420666F72206D652E2E2EB0
:100080003A20005265717565737420697320666F3C
:1000900072206D652E2E2E3A20616E73776572691F
:1000A0006E672E2E2E006D53004E657373756E6154
:1000B000207269636869657374612072696365762B
:1000C00075746120696E20756E2074656D706F2087
:1000D00064693A20005D202D2000205B0000C201F1
:1000E000000100110011000C0000E100000A0025D1
:1000F0000025002100009600001900390039003663
:1001000000127A00001F0046004600440080700084
:100110000022004D004D004A00004B0000360075E3
:100120000075007200403800004A009C009C009955
:1001300000802500007200EC00EC00E900C0120015
:1001400000E900DA01DA01D70160090000D701B641
:1001500003B603B303B0040000B3036E076E076B6E
:1001600007580200006E07DC0EDC0ED80E2C0100D2
:1001700000DC0EC11DC11DBE1D00000007000201F4
:10018000000003040600000000000000000102045B
:100190000810204080010204081020010204081009
:1001A0002004040404040404040202020202020300
:1001B00003030303030000000023002600290000BE
:1001C000000000250028002B00000000002400276C
:1001D000002A00004A02C30B600211241FBECFEFA9
:1001E000D8E0DEBFCDBF12E0A0E0B1E0E2E0FCE18C
:1001F00002C005900D92A035B107D9F723E0A0E524
:10020000B2E001C01D92A63CB207E1F711E0C8EDD3
:10021000D1E004C02297FE010E94E80DC43DD10741
:10022000C9F70E94250A0C94F40D0C94000081E09B
:100230008093A60240E855E260E070E08CE193E034
:100240000E94420B40E855E260E070E088EA92E0EC
:100250000E94DB0761E084E00E94B60961E08DE066
:100260000E94B60960E070E08EEC92E00E947F058B
:100270008093A70240E363E090E00E94C602FC0185
:10028000808180930901818180930A01828180931A
:100290000B0160E071E08CE193E00C94AB0CCF9328
:1002A000DF93E9019091A7029D8B8E8B962FFB0126
:1002B00083E0861B382F3E0F2E2F291B241738F47E
:1002C0002191DE01A30FB11D54962C93F3CF4D5F06
:1002D0004C8B61E084E00E94EF09BE0184E692E06D
:1002E0000E948C0360E084E0DF91CF910C94EF09D1
:1002F0001F93CF93DF93182FEB01AB01682F8DE194
:1003000091E00E944B03AE01485D5F4F612F8AE28E
:1003100091E0DF91CF911F910C944B03EF92FF92EC
:100320000F931F93CF93DF93CDB7DEB727970FB609
:10033000F894DEBF0FBECDBF8C01FC01F180E280DE
:100340008091A702E8121EC063E870E08CE193E0A0
:100350000E94990C87E0E4E6F1E0DE01119601903D
:100360000D928A95E1F768EE73E080E090E00E94DC
:100370002C09980147E0BE016F5F7F4F8F2D0E94CF
:100380004F012AC08CE193E00E94850C67E371E085
:100390008CE193E00E947C0C4AE050E060E070E069
:1003A0008CE193E00E94600D44E951E06F2D80E400
:1003B00091E00E94A70244E951E06E2D82E591E0B0
:1003C0000E94A70268E670E08CE193E00E94990C1D
:1003D000B80180E00E94780127960FB6F894DEBF3E
:1003E0000FBECDBFDF91CF911F910F91FF90EF9086
:1003F0000895CF9380E197E2A0E0B0E08093A2025D
:100400009093A302A093A402B093A50240E552E00A
:100410006DE672E089E692E00E940904C82F81111E
:1004200005C080E592E0CF910C948E01809150023E
:1004300081112EC060E071E08CE193E00E947C0CA1
:1004400067E371E08CE193E00E947C0C4AE050E0AD
:100450006C2F8CE193E00E94850D69EA70E08CE1DD
:1004600093E00E94570C4091A2025091A302609128
:10047000A4027091A5022AE030E08CE193E00E9492
:10048000780D66EA70E08CE193E0CF910C94990CC2
:10049000CF91089520E042E063E088EA92E00E9474
:1004A000AB0780E197E2A0E0B0E08093A2029093D6
:1004B000A302A093A402B093A5021092A6020895ED
:1004C00088EA92E00C94AC08682F88EA92E00C94D9
:1004D0007F0688EA92E00C94BD0588EA92E00C94CD
:1004E0008205CF93DF93EB01682F70E042E084EC4C
:1004F00092E00E94470564EC72E08CE193E00E9478
:100500007C0CBE018CE193E0DF91CF910C947C0CCC
:10051000EF92FF920F931F93CF93DF93F62E8A01F2
:10052000E82EEC018C2F8E198F1530F462E671E005
:1005300089910E947102F6CFB8018CE193E0DF91BE
:10054000CF911F910F91FF90EF900C947C0C1F9313
:10055000CF93DF93162FEA01BC018CE193E00E9458
:100560007C0C612F70E042E084EC92E00E94470531
:1005700064EC72E08CE193E00E947C0CBE018CE1A3
:1005800093E0DF91CF911F910C947C0CCF93C62FF9
:100590001092CD02ECECF2E0CE1B2AE030E05C2FB2
:1005A0005E0F009741F0B9010E949C0D805D808331
:1005B000CB013197F4CF852FDF011196515010F008
:1005C0004E93FCCF9F01281B3109C9010196CF91A1
:1005D0000895582FFC0180E07CE89E2F951B96170C
:1005E00088F4419198E0A42FA827282F30E0359572
:1005F0002795822FA0FF02C0872F82274695915012
:1006000091F7EBCF0895AF92BF92DF92EF92FF92F6
:100610000F931F93CF93DF931F92CDB7DEB78C015B
:100620005A01262F30E094E0359527959A95E1F709
:100630004FE0D42EE22EED2454E0220F331F5A95C2
:10064000E1F7E22A8E2D6983F8010995F50180A56D
:100650008F5F80A7E80FF11DE0A669816F70F0E160
:100660006F9F90011124F62EFD24F22A8F2DF801A0
:100670000995F50180A58F5F80A7E80FF11DF0A611
:100680000F90DF91CF911F910F91FF90EF90DF902E
:10069000BF90AF9008950F931F93CF93DF93062FD2
:1006A000EA011881BC018CE193E00E947C0CE02FF0
:1006B000F0E0EE0FFF1FE15FFE4F608171818CE182
:1006C00093E00E947C0C6AED70E08CE193E00E9464
:1006D000570C40E263E0812F90E00E94C602BC010B
:1006E0008CE193E00E947C0C65ED70E08CE193E07E
:1006F0000E94570C112359F044E951E0612FCE01BB
:100700000196DF91CF911F910F910C948802DF9198
:10071000CF911F910F910895CF92DF92EF92FF92A8
:100720000F931F93CF93DF93CDB7DEB76A970FB6C2
:10073000F894DEBF0FBECDBF7C018B018DE0E8E7F2
:10074000F1E0DE011E9601900D928A95E1F78DE0B1
:10075000E5E8F1E0DE01119601900D928A95E1F74E
:10076000FB016489C80145960E94E902C82EF80180
:1007700010A682E0F7010995F80190A59F5F90A768
:10078000E90FF11D82E080A7DD24D394F80184896C
:100790008D1550F0F801ED0DF11DA8016489C70118
:1007A0000E940303D394F2CFA8016C2DC7010E94CD
:1007B000030383E0F7010995F80180A58F5F80A707
:1007C000E80FF11D83E080A7F801EA5AFF4F80810E
:1007D000882381F0A801485D5F4F60E0CE0101965B
:1007E0000E944B03A8014C5E5F4F60E0CE010E9665
:1007F0000E944B036A960FB6F894DEBF0FBECDBFC2
:10080000DF91CF911F910F91FF90EF90DF90CF90EC
:1008100008954F925F926F927F928F929F92AF92C4
:10082000BF92CF92DF92EF92FF920F931F93CF93DD
:10083000DF93CDB7DEB76A970FB6F894DEBF0FBE71
:10084000CDBF6C015B018A018DE0E9EAF1E0DE01D8
:100850001E9601900D928A95E1F78DE0E6EBF1E0AE
:10086000DE01119601900D928A95E1F70E94FD0834
:100870002B013C01F80110A6912C7801F2E5EF0E56
:10088000F11C882483940E94FD0864197509860967
:100890009709F701208131814281538162177307E3
:1008A0008407950708F0D1C0F601099518161906B6
:1008B00054F7F5010995F80120A52A3208F069C01E
:1008C0002F5F20A7E20FF11D80A79C013327293657
:1008D000310509F4ABC06CF52E31310509F4A6C021
:1008E000ACF42330310509F44FC02F30310509F441
:1008F0009DC02230310509F0A0C0F80180A60E94F9
:10090000FD082B013C0199249394BDCF2C33310574
:1009100009F48CC02CF42D32310509F08EC086C04C
:100920002B34310509F482C02A35310509F085C020
:100930007DC0243B310509F479C09CF4273831058A
:1009400009F474C02CF42837310509F076C06EC064
:100950002639310509F46AC0253A310509F06DC020
:1009600065C0223D310509F461C02CF4233C3105FA
:1009700009F063C05BC0213E310509F457C0203F38
:10098000310509F05AC052C0F80130A592E060E08C
:100990000AC0A801485D5F4F61E0CE010E960E943B
:1009A0004B0381E05DC0931780F46F5FD801A60F01
:1009B000B11DF801E90FF11D81A582958F7020A569
:1009C000207F822B8C939E5FEECFF801E60FF11D06
:1009D000F0806150F8016193CF010E94E9028F1508
:1009E00051F0A801485D5F4F62E0CE010E960E9473
:1009F0004B0382E035C0F801EA5AFF4F808188231B
:100A000071F162E971E08CE193E00E947C0CA80135
:100A1000485D5F4F60E0CE010E960E944B03A80137
:100A200060E0CE0101960E944B0319C091102BCFBC
:100A3000F80180A5815080A726CF44E951E0682FB6
:100A400087E991E00E94A7021ECFA801485D5F4F91
:100A500064E0CE010E960E944B0384E001C080E06A
:100A60006A960FB6F894DEBF0FBECDBFDF91CF916F
:100A70001F910F91FF90EF90DF90CF90BF90AF90BC
:100A80009F908F907F906F905F904F900895CF933D
:100A9000DF93CDB7DEB761970FB6F894DEBF0FBE18
:100AA000CDBF21E1EEE1F2E0DE01119601900D9261
:100AB0002A95E1F7FC01E40FF11D47FDFA9510823C
:100AC0004150CB0124E0969587952A95E1F7DB010B
:100AD000AF70BB2721E030E02C0F3D1FA20FB31FEA
:100AE0002C912293442311F0BC01EACF61960FB6FA
:100AF000F894DEBF0FBECDBFDF91CF910895CB013B
:100B00000C94EC0D20911103309112032817390732
:100B1000B9F49091CF028091D002981789F0E091BA
:100B2000CF02F0E0EF52FD4F80812091CF0230E004
:100B30002F5F3F4F2F7333272093CF0290E008950C
:100B40008FEF9FEF08952091110330911203281722
:100B5000390781F49091CF028091D002981751F01B
:100B6000E091CF02F0E0EF52FD4F8081992787FDA1
:100B7000909508958FEF9FEF089520911103309184
:100B800012032817390771F48091D0022091CF0207
:100B900090E0805C9F4F821B910960E470E00E94AE
:100BA000B00D089580E090E00895209111033091F8
:100BB00012032817390739F48FB7F8941092D0022E
:100BC0001092CF028FBF0895DC015196ED91FC91F8
:100BD0005297208150968C9180958223808308952E
:100BE00020E001972FEF8F3F9207D9F708952091CA
:100BF0001103309112032817390789F0FC01238D66
:100C00002E7F238F2FB7F8941092D0021092CF022C
:100C100090931203809311032FBF81E0089580E029
:100C20000895EF92FF920F931F93CF93DF93EC0100
:100C30008B8DEE85FF859D8581FF04C08081892392
:100C400029F447C08081892309F043C08B899C899E
:100C50000E94F00508E010E0EE24E394F12C8D8969
:100C60009E890E94F005EE85FF8580819D85892300
:100C700011F0FE2803C08E2D8095F822EE0C015055
:100C800011090115110559F78F89988D0E94F005FA
:100C90008B8D81FDF0948091D0022091CF0290E065
:100CA00001968F73992730E08217930779F0E091CE
:100CB000D002F0E0EF52FD4FF0828091D00290E040
:100CC00001968F7399278093D00203C08B8D81602A
:100CD0008B8FDF91CF911F910F91FF90EF9008952F
:100CE000611102C00C94E405DC015196ED91FC9178
:100CF0005297208150968C91282B20830895DF9263
:100D0000EF92FF920F931F93CF93DF93EC01E62EA8
:100D1000898D9A8D892B39F481E090E09B838A83B9
:100D200080E090E04DC0DFB6F8946B8D6695617001
:100D3000CE010E947006898D9A8D05960E94F0055D
:100D40008B8D08E010E0FF24F39481FF19C08F2DF4
:100D50008E2121F0CE010E94E40504C061E0CE01A5
:100D60000E947006898D9A8D0E94F005FF0C01503B
:100D700011090115110559F7CE010E94E40519C0AA
:100D80008F2D8E2129F061E0CE010E94700603C0F4
:100D9000CE010E94E405898D9A8D0E94F005FF0C1A
:100DA000015011090115110559F761E0CE010E94AA
:100DB0007006DFBE898D9A8D0E94F00581E090E07B
:100DC000DF91CF911F910F91FF90EF90DF900895E9
:100DD0008091110390911203009711F00C94110669
:100DE00008951F920F920FB60F9211242F933F93E5
:100DF0004F935F936F937F938F939F93AF93BF9323
:100E0000EF93FF930E94E806FF91EF91BF91AF919E
:100E10009F918F917F916F915F914F913F912F9112
:100E20000F900FBE0F901F9018951F920F920FB644
:100E30000F9211242F933F934F935F936F937F9360
:100E40008F939F93AF93BF93EF93FF930E94E80616
:100E5000FF91EF91BF91AF919F918F917F916F9192
:100E60005F914F913F912F910F900FBE0F901F9068
:100E700018951F920F920FB60F9211242F933F9344
:100E80004F935F936F937F938F939F93AF93BF9392
:100E9000EF93FF930E94E806FF91EF91BF91AF910E
:100EA0009F918F917F916F915F914F913F912F9182
:100EB0000F900FBE0F901F9018951F93CF93DF9345
:100EC000EC01162F61E0812F0E94B60961E0812FAD
:100ED0000E94EF09812F90E0FC01E357FE4FE4915F
:100EE000E88BFC01EF55FE4FE491F0E0EE0FFF1FA1
:100EF000E154FE4F859194919A8B898BDF91CF912C
:100F00001F9108951F93CF93DF93EC01162F60E09C
:100F1000812F0E94B6098B8D81FD04C061E0812F75
:100F20000E94EF091C87812F90E0FC01E357FE4FE0
:100F3000E491ED87FC01EF55FE4FE491F0E0EE0FF8
:100F4000FF1FEB54FE4F859194919F878E87DF9111
:100F5000CF911F910895FF920F931F93CF93DF932B
:100F6000EC01F62E522F1B821A8208EE13E020E0CD
:100F700030E00C831D832E833F8383E392E09983CB
:100F800088831C8A1B8A1E8A1D8A188E1F8A1A8EC5
:100F9000198E8B8D8E7F50FB81F98B8F642FCE0144
:100FA0000E945D076F2DCE01DF91CF911F910F91B0
:100FB000FF900C9482070F931F93CF93DF93EC0164
:100FC0001A8E198E188E1F8A1E8A1D8AADEDB0E00A
:100FD00080E090E0FD010591159125913491041771
:100FE00015072607370709F031C02CE0289FF001CC
:100FF000299FF00D1124EF51FF4F259134913C8B27
:101000002B8B2CE0289FF001299FF00D1124ED512E
:10101000FF4F259134913E8B2D8B2CE0289FF001C2
:10102000299FF00D1124EB51FF4F25913491388FFA
:101030002F8B2CE0289FF001299FF00D1124E951FE
:10104000FF4F859194919A8F898F08C001961C96C5
:101050008D30910509F0BECF1C8A1B8A8F89988D2F
:10106000892B09F443C08C858631E0F52091680016
:10107000883050F091E08E3008F490E081E001C0BB
:10108000880F9A95EAF701C084E0822B809368006C
:101090002C85283038F02E3040F0263148F0E0E042
:1010A000F0E008C0EDE6F0E005C0EBE6F0E002C0DD
:1010B000ECE6F0E03081283030F481E001C0880FA8
:1010C0002A95EAF70DC0822F90E02E3010F4089791
:1010D00001C00E9791E001C0990F8A95EAF7892F18
:1010E000832B8083898D9A8D0E94F005CE01DF913C
:1010F000CF911F910F910C94F705FC014485463167
:1011000050F5483028F04E3030F4EBE6F0E005C002
:10111000EDE6F0E002C0ECE6F0E05081483040F44B
:1011200081E090E0042E01C0880F0A94EAF710C015
:10113000242F30E04E3018F42850310902C02E50D0
:10114000310981E090E0022E01C0880F0A94EAF78D
:10115000809585238083089523E332E0FC01318369
:1011600020830C947D081F920F920FB60F921124CA
:101170002F933F938F939F93AF93BF9380911403CB
:1011800090911503A0911603B091170330911303AA
:1011900023E0230F2D3720F40196A11DB11D05C0BA
:1011A00026E8230F0296A11DB11D209313038093FF
:1011B000140390931503A0931603B0931703809123
:1011C000180390911903A0911A03B0911B03019683
:1011D000A11DB11D8093180390931903A0931A03C6
:1011E000B0931B03BF91AF919F918F913F912F912E
:1011F0000F900FBE0F901F9018952FB7F894609125
:1012000014037091150380911603909117032FBF5B
:1012100008953FB7F8948091180390911903A09115
:101220001A03B0911B0326B5A89B05C02F3F19F0E8
:101230000196A11DB11D3FBF6627782F892F9A2FD8
:10124000620F711D811D911D42E0660F771F881F7F
:10125000991F4A95D1F70895CF92DF92EF92FF92AE
:10126000CF93DF936B017C010E940909EB01C1144C
:10127000D104E104F10479F00E9409096C1B7D0B93
:10128000683E7340A0F381E0C81AD108E108F10874
:10129000C851DC4FECCFDF91CF91FF90EF90DF9002
:1012A000CF900895789484B5826084BD84B58160C0
:1012B00084BD85B5826085BD85B5816085BDEEE65E
:1012C000F0E0808181608083E1E8F0E0108280813D
:1012D00082608083808181608083E0E8F0E08081AB
:1012E00081608083E1EBF0E0808184608083E0EBCB
:1012F000F0E0808181608083EAE7F0E080818460B3
:10130000808380818260808380818160808380810E
:10131000806880831092C1000895833081F028F4A2
:10132000813099F08230A1F008958630A9F087309D
:10133000B9F08430D1F4809180008F7D03C080911A
:1013400080008F7780938000089584B58F7702C0E6
:1013500084B58F7D84BD08958091B0008F7703C0E0
:101360008091B0008F7D8093B0000895CF93DF937C
:1013700090E0FC01E357FE4F2491FC01EF55FE4F36
:101380008491882349F190E0880F991FFC01E7536D
:10139000FE4FA591B49181549E4FFC01C591D4910B
:1013A0009FB7611108C0F8948C91209582238C938B
:1013B000888182230AC0623051F4F8948C91322FD4
:1013C000309583238C938881822B888304C0F89482
:1013D0008C91822B8C939FBFDF91CF9108950F93B7
:1013E0001F93CF93DF931F92CDB7DEB7282F30E046
:1013F000F901E758FE4F8491F901E357FE4F14912C
:10140000F901EF55FE4F04910023C9F0882321F024
:1014100069830E948D096981E02FF0E0EE0FFF1FC4
:10142000E154FE4FA591B4919FB7F8948C9161114E
:1014300003C01095812301C0812B8C939FBF0F9017
:10144000DF91CF911F910F9108950E9452090E9440
:101450001701CEEFDAE00E94F9012097E1F30E9434
:10146000FE0AF9CFFC0124853585F901E05CFF4FC8
:1014700080819181329620813181821B930B8F7301
:1014800099270895FC0184859585FC01E05CFF4F58
:10149000408151813296208131814217530741F0BA
:1014A0000190F081E02DE80FF91F808190E0089510
:1014B0008FEF9FEF0895FC0184859585FC01E05C2A
:1014C000FF4F40815181329620813181421753076D
:1014D00079F0A081B181A80FB91F8C912081318151
:1014E0002F5F3F4F2F7333273183208390E0089580
:1014F0008FEF9FEF0895FC0181A1882329F0A48933
:10150000B5898C9186FFFBCF11A20895CF93DF930D
:10151000FC0126853785D901A05CBF4F8D919C9138
:10152000119701968F739927E901CE5BDF4F4881B0
:10153000598184179507D9F30D90BC91A02DA20F66
:10154000B31F6C93A685B785A05CBF4F11969C9383
:101550008E93A689B7892C9181E090E0078C02C018
:10156000880F991F0A94E2F7282B2C9381E081A31E
:101570000488F589E02D80818064808381E090E09B
:10158000DF91CF91089508951F920F920FB60F9299
:1015900011242F933F934F938F939F93EF93FF9338
:1015A0008091C00082FD1CC04091C6008091C203A2
:1015B0009091C30301968F7399272091C4033091B2
:1015C000C5038217930771F0E091C203F091C30342
:1015D000EE57FC4F40839093C3038093C20302C035
:1015E0008091C600FF91EF919F918F914F913F9114
:1015F0002F910F900FBE0F901F9018958CE193E0E4
:101600000E94320A892B11F00C94C30A08951F928C
:101610000F920FB60F9211242F933F938F939F93A6
:10162000EF93FF9320917E0330917F03809180039D
:10163000909181032817390731F48091C1008F7D83
:101640008093C10014C0E0918003F0918103E25CBB
:10165000FC4F2081809180039091810301968F73CC
:10166000992790938103809380032093C600FF9174
:10167000EF919F918F913F912F910F900FBE0F90FF
:101680001F901895CF92DF92EF92FF92CF93DF9346
:10169000EC016A017B01411581EE58076105710576
:1016A000F9F0EC89FD8981E090E008A002C0880F84
:1016B000991F0A94E2F7808360E079E08DE390E07F
:1016C000A70196010E94C40D215031094109510919
:1016D0005695479537952795211580E1380798F05D
:1016E000EC89FD89108260E874E88EE190E0A70142
:1016F00096010E94C40D21503109410951095695A6
:10170000479537952795E889F9893083EA89FB89D8
:10171000208319A2EE89FF89408181E090E09C013D
:101720000C8C02C0220F331F0A94E2F7422B408335
:10173000EE89FF8940819C010D8C02C0220F331F6E
:101740000A94E2F7422B4083EE89FF8940819C0195
:101750000E8C02C0220F331F0A94E2F7422B408303
:10176000EE89FF8920810F8C02C0880F991F0A948F
:10177000E2F7809582238083DF91CF91FF90EF90F5
:10178000DF90CF90089510921F0310921E0388EEF1
:1017900093E0A0E0B0E08093200390932103A09316
:1017A0002203B093230383E492E090931D0380937C
:1017B0001C0382E893E090932903809328038EE32F
:1017C00093E090932B0380932A0385EC90E0909311
:1017D0002D0380932C0384EC90E090932F0380934F
:1017E0002E0380EC90E0909331038093300381ECE2
:1017F00090E0909333038093320382EC90E09093D7
:1018000035038093340386EC90E090933703809304
:10181000360384E08093380383E08093390387E0C4
:1018200080933A0385E080933B0381E080933C03FF
:101830000895CF92DF92EF92FF920F931F93CF9371
:10184000DF936C017A01EB01E60EF71E00E010E079
:10185000CE15DF0561F06991D601ED91FC91019003
:10186000F081E02DC6010995080F191FF1CFC801BD
:10187000DF91CF911F910F91FF90EF90DF90CF906C
:1018800008956115710581F0DB010D900020E9F7E5
:10189000AD0141505109461B570BDC01ED91FC9104
:1018A0000280F381E02D099480E090E00895EF92AA
:1018B000FF920F931F93CF93DF938C01FB01C0E046
:1018C000D0E064917F018FEFE81AF80A662361F097
:1018D000D801ED91FC910190F081E02DC8010995AE
:1018E000C80FD91FF701EDCFCE01DF91CF911F9126
:1018F0000F91FF90EF9008950C94410CDC01ED9155
:10190000FC910190F081E02D09940F931F93CF93E8
:10191000DF93EC016DE00E947E0C8C016AE0CE0149
:101920000E947E0C800F911FDF91CF911F910F912C
:1019300008950F931F93CF93DF93EC010E94570CF0
:101940008C01CE010E94850C800F911FDF91CF91F9
:101950001F910F9108950F931F93CF93DF93EC0185
:101960000E94410C8C01CE010E94850C800F911FBA
:10197000DF91CF911F910F9108958F929F92AF9217
:10198000BF92CF92DF92EF92FF920F931F93CF936C
:10199000DF93CDB7DEB7A1970FB6F894DEBF0FBEC9
:1019A000CDBF7C01C42EE52FCB01D22E19A221E0A0
:1019B0002D1510F02AE0D22E8E010F5D1F4F8D2CB9
:1019C000912CA12CB12C6C2D7E2FA50194010E948D
:1019D000C40D8C2DD29E80191124015011098A301A
:1019E00014F4805D01C0895CF80180832115310504
:1019F0004105510521F0C22EE32FCA01E4CFB80101
:101A0000C7010E94410CA1960FB6F894DEBF0FBE2D
:101A1000CDBFDF91CF911F910F91FF90EF90DF909D
:101A2000CF90BF90AF909F908F900895CF92DF920C
:101A3000EF92FF920F931F93CF93DF93EC016A0114
:101A40007B012115310579F4E881F9810190F0815C
:101A5000E02D642FDF91CF911F910F91FF90EF90B8
:101A6000DF90CF9009942A303105E9F477FF1AC04E
:101A70006DE20E947E0C8C0144275527BA014C1957
:101A80005D096E097F092AE0CE010E94BD0C800F1E
:101A9000911FDF91CF911F910F91FF90EF90DF90F9
:101AA000CF9008952AE0B701A601CE01DF91CF9132
:101AB0001F910F91FF90EF90DF90CF900C94BD0C91
:101AC0000F931F93CF93DF93EC019A01AB0166272D
:101AD00057FD6095762F0E94160D8C01CE010E9455
:101AE000850C800F911FDF91CF911F910F91089569
:101AF0002115310541F4DC01ED91FC910190F0815B
:101B0000E02D642F09940C94BD0C0F931F93CF9379
:101B1000DF93EC019A01462F50E060E070E00E94F4
:101B2000780D8C01CE010E94850C800F911FDF91F2
:101B3000CF911F910F910895AA1BBB1B51E107C0C4
:101B4000AA1FBB1FA617B70710F0A61BB70B881F4D
:101B5000991F5A95A9F780959095BC01CD010895DC
:101B600097FB072E16F4009407D077FD09D00E944A
:101B70009C0D07FC05D03EF4909581959F4F0895EC
:101B8000709561957F4F0895A1E21A2EAA1BBB1B89
:101B9000FD010DC0AA1FBB1FEE1FFF1FA217B30739
:101BA000E407F50720F0A21BB30BE40BF50B661F4F
:101BB000771F881F991F1A9469F760957095809513
:101BC00090959B01AC01BD01CF010895EE0FFF1F61
:101BD0000590F491E02D0994F999FECF92BD81BD55
:101BE000F89A992780B5089511E0C8EDD1E004C0B6
:101BF000FE010E94E80D2296CA3DD107C9F7F8946C
:021C0000FFCF14
:101C020041726475696E6F3A20787878203A00C321
:101C120001D001DD01EA01F70104021102696E6FD0
:101C2200524543562D6461746100696E6F53454E8F
:101C3200442D72617720002072436F64653A200060
:101C420020736F7572636520616464726573733AA1
:101C52002000206465737441646472202020202077
:101C6200203A20004C6F7265746F00696E6F5345A5
:101C72004E442D64617461006C696253454E442D7B
:101C820064617461006C696253454E442D726177E0
:101C920020000D0A0D0A00756E657870657874650E
:101CA2006420627974653A20006C69625245435639
:101CB2002D72617720006C6962524543562D646132
:101CC200746100202D204F4B2E2E2E2E2E2E3A00E8
:101CD200202D204F564552464C4F573A00202D207A
:101CE2004241442D4352432E3A00202D204241448A
:101CF2002D434841523A00202D2054494D454F551D
:101D0200542E3A00202D205041594C4F41442E3A36
:101D120000202D2044454255472E2E2E3A003031C8
:101D22003233343536373839414243444546000070
:101D32000000007F06190CBD058205A305D505002C
:101D4200000000860A190C320A5B0A420A7B0A006A
:00000001FF
